:1000000000000320AD0C0000F50C0000F90C00000E
:10001000F10C0000F10C0000F10C000000000000E9
:10002000000000000000000000000000917C0000C3
:10003000F10C000000000000E15E0000515F0000D4
:10004000090D00000D0D0000110D0000150D000040
:10005000190D00001D0D0000210D0000250D0000F0
:10006000290D00002D0D0000310D0000350D0000A0
:10007000390D00003D0D0000410D0000450D000050
:10008000490D0000F10C0000F10C0000F10C000023
:10009000F10C0000F10C0000F10C0000F10C00006C
:1000A0004D0D0000510D0000550D0000590D0000D0
:1000B0005D0D0000610D0000650D0000690D000080
:1000C0006D0D0000710D0000750D0000790D000030
:1000D0007D0D0000810D0000850D0000F10C000079
:1000E000F10C0000F10C0000F10C0000F10C00001C
:1000F000F10C0000F10C0000F10C0000F10C00000C
:10010000F10C0000F10C0000F10C0000F10C0000FB
:10011000F10C0000F10C0000F10C0000F10C0000EB
:10012000F10C0000F10C0000F10C0000F10C0000DB
:10013000F10C0000F10C0000F10C0000F10C0000CB
:10014000F10C0000890D00008D0D0000910D0000E4
:10015000950D0000990D0000F10C0000F10C00005D
:10016000F10C0000F10C00009D0D0000A10D00003D
:10017000A50D0000A90D0000AD0D0000B10D00009F
:10018000B50D0000B90D0000BD0D00009532000056
:10019000B5320000D5320000F10C0000F10C000077
:1001A000F10C0000F10C0000F10C0000F10C00005B
:1001B000F10C0000F10C0000F10C0000F10C00004B
:1001C000F10C0000F10C0000F10C0000F10C00003B
:1001D000F10C0000F10C0000F10C0000F10C00002B
:1003F000F10C0000F10C0000F10C0000FFFFFFFF0A
:10040000FFFFFFFFFFFFFFFFFFFFFFFFFEFFFFFFFD
:1004100010B5054C237833B9044B13B10448AFF33E
:1004200000800123237010BDCC00FF1F00000000DE
:10043000D0DB000008B5064B1BB106480649AFF3F8
:1004400000800648036813B1054B03B1984708BD07
:1004500000000000D0DB0000D000FF1FC800FF1F1D
:1004600000000000154B002B08BF134B9D46A3F561
:10047000803A00218B460F461348144A121A0AF09C
:1004800083FC0F4B002B00D098470E4B002B00D065
:1004900098470020002104000D000D48002802D0DC
:1004A0000C48AFF300800AF049FC200029000AF054
:1004B000A7F80AF02FFC00BF00000800000003208E
:1004C0000000000000000000CC00FF1F00A6FF1F7E
:1004D000000000000000000081F0004102E000BFC9
:1004E00083F0004330B54FEA41044FEA430594EAF4
:1004F000050F08BF90EA020F1FBF54EA000C55EA2F
:10050000020C7FEA645C7FEA655C00F0E2804FEAFF
:100510005454D4EB5555B8BF6D420CDD2C4480EAE1
:10052000020281EA030382EA000083EA010180EA11
:10053000020281EA0303362D88BF30BD11F0004F5F
:100540004FEA01314FF4801C4CEA113102D0404295
:1005500061EB410113F0004F4FEA03334CEA1333D0
:1005600002D0524263EB430394EA050F00F0A780E8
:10057000A4F10104D5F1200E0DDB02FA0EFC22FAE3
:1005800005F2801841F1000103FA0EF2801843FAD7
:1005900005F359410EE0A5F120050EF1200E012AC8
:1005A00003FA0EFC28BF4CF0020C43FA05F3C01806
:1005B00051EBE37101F0004507D54FF0000EDCF17F
:1005C000000C7EEB00006EEB0101B1F5801F1BD328
:1005D000B1F5001F0CD349085FEA30004FEA3C0C2C
:1005E00004F101044FEA445212F5800F80F09A8022
:1005F000BCF1004F08BF5FEA500C50F1000041EB26
:10060000045141EA050130BD5FEA4C0C404141EB29
:10061000010111F4801FA4F10104E9D191F0000F50
:1006200004BF01460020B1FA81F308BF2033A3F1D3
:100630000B03B3F120020CDA0C3208DD02F1140CCA
:10064000C2F10C0201FA0CF021FA02F10CE002F105
:100650001402D8BFC2F1200C01FA02F120FA0CFCFE
:10066000DCBF41EA0C019040E41AA2BF01EB045147
:10067000294330BD6FEA04041F3C1CDA0C340EDC45
:1006800004F11404C4F1200220FA04F001FA02F388
:1006900040EA030021FA04F345EA030130BDC4F146
:1006A0000C04C4F1200220FA02F001FA04F340EA3B
:1006B0000300294630BD21FA04F0294630BD94F0EC
:1006C000000F83F4801306BF81F480110134013DD3
:1006D0004EE77FEA645C18BF7FEA655C29D094EA44
:1006E000050F08BF90EA020F05D054EA000C04BFC2
:1006F0001946104630BD91EA030F1EBF00210020AD
:1007000030BD5FEA545C05D14000494128BF41F04B
:10071000004130BD14F580043CBF01F5801130BDAF
:1007200001F0004545F0FE4141F470014FF000003A
:1007300030BD7FEA645C1ABF194610467FEA655CEB
:100740001CBF0B46024650EA013406BF52EA03358D
:1007500091EA030F41F4002130BD00BF90F0000F7B
:1007600004BF0021704730B54FF4806404F13204B7
:100770004FF000054FF0000150E700BF90F0000F70
:1007800004BF0021704730B54FF4806404F1320497
:1007900010F0004548BF40424FF000013EE700BF67
:1007A00042004FEAE2014FEA31014FEA02701FBFF7
:1007B00012F07F4393F07F4F81F06051704792F0C9
:1007C000000F14BF93F07F4F704730B54FF4607443
:1007D00001F0004521F0004120E700BF50EA01028E
:1007E00008BF704730B54FF000050AE050EA01023B
:1007F00008BF704730B511F0004502D5404261EBAB
:1008000041014FF4806404F132045FEA915C3FF4EB
:10081000DCAE4FF003025FEADC0C18BF03325FEA84
:10082000DC0C18BF033202EBDC02C2F1200300FA39
:1008300003FC20FA02F001FA03FE40EA0E0021FA5E
:1008400002F11444C1E600BF70B54FF0FF0C4CF448
:10085000E06C1CEA11541DBF1CEA135594EA0C0FFE
:1008600095EA0C0F00F0DEF82C4481EA030621EA39
:100870004C5123EA4C5350EA013518BF52EA033574
:1008800041F4801143F4801338D0A0FB02CE4FF026
:100890000005E1FB02E506F00042E0FB03E54FF056
:1008A0000006E1FB03569CF0000F18BF4EF0010E4E
:1008B000A4F1FF04B6F5007F64F5407404D25FEA4A
:1008C0004E0E6D4146EB060642EAC62141EA5551FD
:1008D0004FEAC52040EA5E504FEACE2EB4F1FD0C3F
:1008E00088BFBCF5E06F1ED8BEF1004F08BF5FEABD
:1008F000500E50F1000041EB045170BD06F000466F
:1009000046EA010140EA020081EA0301B4EB5C041B
:10091000C2BFD4EB0C0541EA045170BD41F4801113
:100920004FF0000E013C00F3AB8014F1360FDEBF38
:10093000002001F0004170BDC4F10004203C35DA14
:100940000C341BDC04F11404C4F1200500FA05F397
:1009500020FA04F001FA05F240EA020001F0004238
:1009600021F0004110EBD37021FA04F642EB0601AE
:100970005EEA430E08BF20EAD37070BDC4F10C04D8
:10098000C4F1200500FA04F320FA05F001FA04F29C
:1009900040EA020001F0004110EBD37041F1000188
:1009A0005EEA430E08BF20EAD37070BDC4F1200593
:1009B00000FA05F24EEA020E20FA04F301FA05F2FB
:1009C00043EA020321FA04F001F0004121FA04F2A3
:1009D00020EA020000EBD3705EEA430E08BF20EA73
:1009E000D37070BD94F0000F0FD101F000464000AD
:1009F00041EB010111F4801F08BF013CF7D041EA2F
:100A0000060195F0000F18BF704703F00046520032
:100A100043EB030313F4801F08BF013DF7D043EA03
:100A20000603704794EA0C0F0CEA135518BF95EAB9
:100A30000C0F0CD050EA410618BF52EA4306D1D140
:100A400081EA030101F000414FF0000070BD50EA5F
:100A5000410606BF1046194652EA430619D094EAE9
:100A60000C0F02D150EA013613D195EA0C0F05D1D3
:100A700052EA03361CBF104619460AD181EA030127
:100A800001F0004141F0FE4141F470014FF00000DF
:100A900070BD41F0FE4141F4780170BD70B54FF07A
:100AA000FF0C4CF4E06C1CEA11541DBF1CEA1355FA
:100AB00094EA0C0F95EA0C0F00F0A7F8A4EB0504DC
:100AC00081EA030E52EA03354FEA013100F08880D3
:100AD0004FEA03334FF0805545EA131343EA12639C
:100AE0004FEA022245EA111545EA10654FEA002651
:100AF0000EF000419D4208BF964244F1FD0404F50A
:100B0000407402D25B084FEA3202B61A65EB030565
:100B10005B084FEA32024FF480104FF4002CB6EB22
:100B2000020E75EB030E22BFB61A754640EA0C00A2
:100B30005B084FEA3202B6EB020E75EB030E22BFE2
:100B4000B61A754640EA5C005B084FEA3202B6EB23
:100B5000020E75EB030E22BFB61A754640EA9C00E2
:100B60005B084FEA3202B6EB020E75EB030E22BFB2
:100B7000B61A754640EADC0055EA060E18D04FEA70
:100B8000051545EA16754FEA06164FEAC30343EA10
:100B900052734FEAC2025FEA1C1CC0D111F4801FDD
:100BA0000BD141EA00014FF000004FF0004CB6E7D6
:100BB00011F4801F04BF01430020B4F1FD0C88BF75
:100BC000BCF5E06F3FF6AFAEB5EB030C04BFB6EB80
:100BD000020C5FEA500C50F1000041EB045170BD73
:100BE0000EF0004E4EEA113114EB5C04C2BFD4EBA0
:100BF0000C0541EA045170BD41F480114FF0000E24
:100C0000013C90E645EA060E8DE60CEA135594EA9F
:100C10000C0F08BF95EA0C0F3FF43BAF94EA0C0FA2
:100C20000AD150EA01347FF434AF95EA0C0F7FF417
:100C300025AF104619462CE795EA0C0F06D152EA6B
:100C400003353FF4FDAE1046194622E750EA41064F
:100C500018BF52EA43067FF4C5AE50EA41047FF460
:100C60000DAF52EA43057FF4EBAE12E74A0011D212
:100C700012F5001211D20DD56FF47873B3EB6252F6
:100C80000ED44FEAC12343F0004343EA505323FA02
:100C900002F070474FF00000704750EA013002D177
:100CA0004FF0FF3070474FF00000704772B60948B0
:100CB000094901600948804709490A4A0A4B9A4292
:100CC000BEBF51F8040B42F8040BF8E762B60748C0
:100CD0008047000008ED00E00000000069A400006B
:100CE000F8DB00000000FF1FCC00FF1F65040000C0
:100CF000FFF7FEBF354800473548004735480047F5
:100D000035480047354800473548004735480047D3
:100D100035480047354800473548004735480047C3
:100D200035480047354800473548004735480047B3
:100D300035480047354800473548004735480047A3
:100D40003548004735480047354800473548004793
:100D50003548004735480047354800473548004783
:100D60003548004735480047354800473548004773
:100D70003548004735480047354800473548004763
:100D80003548004735480047354800473548004753
:100D90003548004735480047354800473548004743
:100DA0003548004734480047334800473248004739
:100DB0003148004730480047304800473048004736
:100DC000304800473048004730480047F50C0000E5
:100DD000F90C0000917C0000E15E0000515F000012
:100DE000F5320000093300001D33000031330000EC
:100DF00045330000593300006D330000813300009B
:100E000095330000A9330000BD330000D13300004A
:100E1000E5330000F93300000D34000021340000F8
:100E2000F10C00009D2A0000B92A0000CD35000019
:100E30000936000085280000C9280000F10C0000D8
:100E400051210000F10C00007D210000F10C000098
:100E5000A9210000F10C0000D5210000F10C0000D8
:100E60004536000001220000F10C00002D22000098
:100E7000F10C0000D52A0000513200003922000098
:100E8000F10C0000F10C0000F10C0000F10C00006E
:100E90004FF0FF3C06E000BF4FF0010C02E000BF46
:100EA0004FF0010C4DF804CD4FEA410C7FEA6C5C29
:100EB0004FEA430C18BF7FEA6C5C1BD001B050EACC
:100EC000410C0CBF52EA430C91EA030F02BF90EAB7
:100ED000020F0020704710F1000F91EA030F58BF76
:100EE000994208BF90422CBFD8176FEAE37040F0D8
:100EF000010070474FEA410C7FEA6C5C02D150EA76
:100F0000013C07D14FEA430C7FEA6C5CD6D152EA30
:100F1000033CD3D05DF8040B704700BF84461046F5
:100F200062468C461946634600E000BF01B5FFF7F4
:100F3000B7FF002848BF10F1000F01BD4DF808EDC4
:100F4000FFF7F4FF0CBF012000205DF808FB00BF95
:100F50004DF808EDFFF7EAFF34BF012000205DF8EF
:100F600008FB00BF4DF808EDFFF7E0FF94BF01203C
:100F700000205DF808FB00BF4DF808EDFFF7CEFF3D
:100F800094BF012000205DF808FB00BF4DF808ED7C
:100F9000FFF7C4FF34BF012000205DF808FB00BF4D
:100FA00080B483B000AF78600B46FB70FB78002BF9
:100FB00008D07B68DB78DBB243F00803DAB27B68E9
:100FC000DA7007E07B68DB78DBB223F00803DAB283
:100FD0007B68DA700C37BD465DF8047B704700BF54
:100FE00080B483B000AF78600B46FB70FB78002BB9
:100FF00008D07B68DB78DBB243F00403DAB27B68AD
:10100000DA7007E07B68DB78DBB223F00403DAB246
:101010007B68DA700C37BD465DF8047B704700BF13
:1010200080B588B000AFF860B9607A603B603B681B
:10103000BB6100237B610023FB617A6840F2EB33E4
:101040009A420AD1BB69DA6907F1140310460121FB
:101050001A4605F0E3F9F86131E07A6840F2EA33C4
:101060009A420AD1BB691A6A07F11403104601219A
:101070001A4605F0D3F9F86121E07B68B3F57C7F6F
:101080000AD1BB69DA6907F11403104602211A4636
:1010900005F0C4F9F86112E07A6840F2F1339A423F
:1010A0000DD1F868082100F01DFBBB69DA6907F172
:1010B0001403104604211A4605F0B0F9F861FB69E3
:1010C000002B0AD07B69002B07D0054B4FF08052D4
:1010D0001A60BFF34F8FBFF36F8F2037BD4680BDBF
:1010E00004ED00E080B588B000AFF860B9607A60C8
:1010F000FB68002B01D10423A8E0BB68002B01D1C1
:101100000423A3E07B68002B01D104239EE07B68CD
:101110001B68002B01D1042398E07B685B68002BDF
:1011200001D1042392E07B689B68002B01D104234A
:101130008CE07B681A68FB681A60FB68BA685A62C0
:10114000012005F00DFB0246FB689A61FB689B6974
:10115000002B01D1012379E0012005F001FB0246BB
:10116000FB685A61FB685B69002B06D1FB689B69D1
:10117000184604F091F8012368E004F04FFF02469E
:10118000FB681A62FB681B6A002B0BD1FB685B696A
:10119000184604F081F8FB689B69184604F07CF857
:1011A000012353E004F03AFF0246FB68DA61FB6872
:1011B000DB69002B10D1FB68DB69184605F0D0F81D
:1011C000FB685B69184604F067F8FB689B69184682
:1011D00004F062F8012339E007F11403184601F026
:1011E00087FA7B689B687B617B681B7B3B767B68AF
:1011F0005B7B7B76FB6819687B685B6807F1140290
:10120000084611461A4601F007F9FB681A68FB68A0
:101210005B6A104619460F4AFB6800F06BFBFB68DF
:101220001868FB68596A7B681A697B685B6900F01B
:10123000ADFBFB681B6818460121FFF7B1FEFB6898
:101240001B6818460121FFF7CBFE00231846203704
:10125000BD4680BD2110000080B588B002AFF860A7
:10126000B9607A6000237B61FB681B68002B01D1A9
:10127000012348E07B68002B01D1002343E0BB68D9
:10128000002B01D104233EE0FB689B691846002136
:101290000022002305F00EFC0346002B01D10123A0
:1012A00031E0FB68BA685A60FB687A689A60FB684C
:1012B0001968FB685A6AFB680433084611461A46E7
:1012C00000F0A8FBFB681B6A4FF0FF320092184643
:1012D00001210122002304F0B9FE38613B6903F0CB
:1012E0000103002B01D101237B61FB689B69184638
:1012F00000210022002305F04BFA0346002B01D108
:1013000001237B617B6918461837BD4680BD00BF4D
:1013100080B58AB002AFF860B9607A603B600023A4
:101320003B610123FB610023BB61FB681B68002B51
:1013300001D1012389E07B68002B07D13B68002B9A
:1013400002D03A693B681A6000237EE0BB68002B3C
:1013500001D1042379E0FB685B69184600214FF056
:10136000FF32002305F0A6FB0346002B01D1012329
:101370006BE0FB68BA68DA60FB687A681A61FB6840
:101380001868FB68596AFB6803F10C0207F1100347
:1013900000F0A2FBFB68DB694FF0FF3200921846B9
:1013A00007210122002304F051FE78617B6903F0DC
:1013B0000403002B13D0FB681A68FB685B6A1046B5
:1013C000194600F075FCFB68DB691846012104F042
:1013D00007FF40F2F133FB610023BB6121E07B6931
:1013E00003F00203002B13D0FB681A68FB685B6AEA
:1013F0001046194600F05CFCFB68DB6918460121C9
:1014000004F0EEFE4FF47C73FB610023BB6108E047
:101410007B6903F00103002B03D00023FB617B6891
:10142000BB613B68002B02D03B68BA691A60FB685D
:101430005B69184600210022002305F0A9F9034644
:10144000002B01D10123FB61FB6918462037BD4603
:1014500080BD00BF80B582B000AF03F035F8786082
:1014600004484FF4E13101227B6809F05BF9083749
:10147000BD4680BD00A0064080B400AF054B03F51B
:10148000825304334FF092721A60BD465DF8047BBC
:10149000704700BF0070044080B483B000AF786034
:1014A000034B7A681A600C37BD465DF8047B7047C1
:1014B0005CA4FF1F80B584B000AF134A07F10C0392
:1014C0001188927819809A70104A3B1D92E80300A7
:1014D00083E80300FFF7D0FF00F01EF807F10C03CC
:1014E000002000211A4602F0EDF80220002100221F
:1014F00002F054FA3B1D184602F01CF9044B054A51
:101500001A601037BD4680BD4CC1000050C10000BC
:101510000000FF1F000E270780B582B000AF084A09
:101520003B4692E8030083E803003B46184602F07E
:10153000FDFA0448FFF7B0FF0837BD4680BD00BF85
:1015400058C1000080F0FA0280B485B000AF786026
:101550007B681B0C03F1804303F58E23FB60FB6863
:10156000FA6811687A6892B2012000FA02F20A431E
:101570001A601437BD465DF8047B704780B586B0AD
:1015800000AFF860B9607A607B68002B06D109482B
:101590004FF48171084A094B02F072F8BB689B0056
:1015A000FA6813447B617B697A6812881A8018375D
:1015B000BD4680BD60C1000064DB000024C10000A6
:1015C00080B485B000AFF860B9601346FB71FB686A
:1015D000BA6853F8223023F4E062FB791B0203F46B
:1015E000E06342EA0301FB68BA6843F8221014374B
:1015F000BD465DF8047B704780B500AF1848FFF723
:10160000A3FF184810210322FFF7DAFF1548112124
:101610000322FFF7D5FF1449134B03F58053103312
:101620001B6823F0030201F5805310331A600F4842
:10163000FFF78AFF0E480E210322FFF7C1FF0C4877
:101640000F210322FFF7BCFF06480A210322FFF700
:10165000B7FF04480B210322FFF7B2FF80BD00BF94
:101660000A00381000A00440007004400B0038103D
:1016700000B0044080B582B000AF1848FFF764FFA7
:101680000023BB803B7943F003033B713B7943F07C
:1016900020033B717B79052262F302037B713B1DC2
:1016A0000F4818211A46FFF769FF00233B803B785B
:1016B00043F003033B703B7843F020033B707B789F
:1016C000052262F302037B703B46054819211A4646
:1016D000FFF754FF0837BD4680BD00BF0D0038102E
:1016E00000D0044080B584B000AF786039607B687A
:1016F0005B79FB72FB7A03F03F03FB723B681B0ACA
:10170000DAB2FB7A1343DAB27B685A713B681B0E7C
:10171000DAB27B689A743B6803F01703002B03D09E
:101720007B681B797B68DB793B6803F00803002B3F
:101730000BD07B681B797B68DB797B685B7CDBB2D9
:1017400043F04003DAB27B685A74786801F076F8A7
:1017500002463B681340002B03D040F2EE33FB609F
:1017600001E00023FB60FB6818461037BD4680BDD2
:1017700080B485B000AFF860B9607A600CE0FB68B7
:101780001B79DBB2DBB25BB2002BF8DABB685A1C08
:10179000BA601A78FB68DA717B685A1E7A60002B8F
:1017A000EDD11437BD465DF8047B704780B586B037
:1017B00000AFF860B9607A60BB68002B06D10D48B5
:1017C00040F22E210C4A0D4B01F05AFF00237B61A1
:1017D00008E0BA687B6913441A78FB68DA717B69A0
:1017E00001337B617A697B689A42F2D31837BD4630
:1017F00080BD00BF78C1000070DA000090C1000019
:1018000080B586B000AFF860B9607A60BB68002B25
:1018100036D120484FF40F711F4A204B01F030FFA2
:10182000F86801F00BF878617B6903F00803002B7E
:1018300002D040F2F13329E07B6903F00403002B6E
:1018400002D040F2F23321E07B6903F00203002B67
:1018500002D040F2F33319E07B6903F00103002B5F
:1018600002D04FF47D7311E0FB689B7DDBB2002B4F
:10187000D6D0BB685A1CBA60FA68D279D2B21A7054
:101880007B685A1E7A60002BEED100231846183769
:10189000BD4680BD78C1000088DA000090C100001C
:1018A00080B586B000AFF860B9607A60BB68002B85
:1018B00006D10D4840F266210C4A0D4B01F0E0FEC6
:1018C00000237B6109E0BA687B691344FA68D27926
:1018D000D2B21A707B6901337B617A697B689A4264
:1018E000F1D31837BD4680BD78C100009CDA0000F6
:1018F00090C1000080B586B000AFF860B9607A6032
:101900003B60BB68002B06D1194840F27721194A89
:10191000194B01F0B5FEB8680021302209F034FA05
:10192000BB68022283F82D20BB68002283F82C209C
:10193000BB687A685A62BB683A689A62FB6801229F
:101940005A75F86800F0DEFC78610C4B7A69B9686A
:1019500043F822100A4B0B4A1A600B4A7B69134466
:101960001B785BB2184600F0BBFC1837BD4680BD43
:1019700078C10000B4DA000098C10000FCA4FF1F89
:1019800014A5FF1F1D1D0000D4D9000080B584B030
:1019900000AFF860B9607A603B60BB68002B06D18D
:1019A000184840F29F21184A184B01F069FE7B68E5
:1019B000002B06D113484FF42871134A144B01F041
:1019C0005FFEBB687A689A61BB683A68DA61BB6897
:1019D00000221A84BB6800225A84F8684FF422213E
:1019E00000F0B4FEFB689B78DBB203F00203DBB2CD
:1019F000002B04D0F8684FF4803100F0A7FE1037B8
:101A0000BD4680BD78C10000D0DA000098C100005A
:101A1000A0C1000080B586B000AFF860B9607A6000
:101A2000BB68002B06D1264840F2C921254A264B27
:101A300001F026FE7B68002B06D1214840F2CA2126
:101A4000204A224B01F01CFE7B685B68002B06D10C
:101A50001B4840F2CB211B4A1D4B01F011FE7B6855
:101A60001B68002B06D116484FF43371154A194BE9
:101A700001F006FEBB6893F82C30DBB2012B03D1DA
:101A80004FF47A737B6116E07B681A68BB681A6052
:101A90007B685A68BB685A607B685A68BB689A6002
:101AA000BB68012283F82C20F8684FF4004100F055
:101AB0004DFE00237B617B6918461837BD4680BD0B
:101AC00078C10000F0DA000098C10000ACC100004D
:101AD000B4C10000C4C1000090B58BB000AFF86085
:101AE000B9607A603B60BB68002B06D16A4840F25F
:101AF00003316A4A6A4B01F0C3FD7B68002B06D1B3
:101B000065484FF44171654A664B01F0B9FD7B6849
:101B10001B68002B06D1604840F205315F4A624BDA
:101B200001F0AEFD7B685B68002B06D15A4840F29D
:101B300006315A4A5D4B01F0A3FD00237B61BB686F
:101B400093F82D30DBB2032B03D140F2E9333B6233
:101B50009CE07B685B68FB610023BB61BB689B69A1
:101B6000002B69D0F8684FF4005100F027FEB868E8
:101B700000F0F6FB78617B69002B34D07A69FB6951
:101B80009A4238BF13467B61FA697B69D31AFB61BD
:101B900000237B6223E07B681A68BB69591CB9612A
:101BA0001344BA689169BA68528C92B20A441278A6
:101BB0001A70BB685B8C9BB25A1CBB68DB699A428B
:101BC00003D1BB6800225A8406E0BB685B8C9BB2E1
:101BD00001339AB2BB685A847B6A01337B627A6AAA
:101BE0007B699A42D7D3FB69002B0FD07B681A68B8
:101BF000BB691A44BB68DA60BB68FA691A61BB68E2
:101C0000FA695A61BB68032283F82D20F8684FF403
:101C1000005100F09BFDFB69002B2FD1BB685B6A74
:101C2000002B2BD0BB685C6ABB689B6AF868B968FC
:101C300040F2EB32A04721E07B681A68BB691A4486
:101C4000BB68DA60BB68FA691A61BB68FA695A61F5
:101C5000BB68032283F82D20F8684FF4222100F09E
:101C600075FDFB689B78DBB203F00203DBB2002B4F
:101C700004D0F8684FF4803100F068FD3B68002B19
:101C800002D03B68BA691A6000233B623B6A18467F
:101C90002C37BD4690BD00BF78C1000010DB0000AE
:101CA00098C10000ACC10000C4C10000B4C1000074
:101CB00080B582B000AF786039603B68002B06D1F8
:101CC000134840F27A31134A134B01F0D9FC3B68B8
:101CD0009B69002B11D178684FF4222100F06EFD32
:101CE0007B689B78DBB203F00203DBB2002B04D0ED
:101CF00078684FF4803100F061FD3B6800221A6182
:101D00003B68022283F82D200837BD4680BD00BF06
:101D100078C1000030DB000098C1000090B585B0AC
:101D200000AF786039603B68002B06D1994840F2DB
:101D3000A331994A994B01F0A3FC7B681B79DBB274
:101D400003F00203DBB2002B02D124E07B68DB79D5
:101D50007B681B79DBB203F02003002BF6D17B6894
:101D60005B7CDBB243F04003DAB27B685A743B68B9
:101D7000042283F82D203B6800221A613B685B6ACD
:101D8000002B08D03B685C6A3B689B6A78683968BE
:101D900040F2F332A0477B681B79DBB203F001030A
:101DA000DBB2002B02D124E07B68DB797B681B79F6
:101DB000DBB203F02003002BF6D17B685B7CDBB247
:101DC00043F04003DAB27B685A743B68052283F81B
:101DD0002D203B6800221A613B685B6A002B08D00B
:101DE0003B685C6A3B689B6A786839684FF47D722F
:101DF000A0477B681B79DBB203F00803DBB2002B42
:101E000002D11DE07B68DB797B681B79DBB203F0D4
:101E10002003002BF6D17B685B7CDBB243F04003F0
:101E2000DAB27B685A743B685B6A002B08D03B6867
:101E30005C6A3B689B6A7868396840F2F132A04777
:101E40007B681B79DBB203F02003DBB2002B00F0D0
:101E5000BD807B68DB78DBB203F02003DBB2002BB4
:101E600000F0B4807B689B7DFB7337E03B681A69A8
:101E7000FB7B9A4203D23B681B69DBB200E0FB7B31
:101E8000BB733B68DA68BB7B786811461A46FFF77C
:101E900007FD3B68DA68BB7B1A443B68DA603B6845
:101EA0001A69BB7BD21A3B681A61FA7BBB7BD31AD7
:101EB000FB733B681B69002B10D13B68022283F83F
:101EC0002D203B685B6A002B08D03B685C6A3B684E
:101ED0009B6A7868396840F2EB32A047FB7B002BA5
:101EE00003D03B681B69002BC0D13B689B69002B6A
:101EF00049D155E0386800F069FA0346002B0CD050
:101F00003B685B6A002B08D03B685C6A3B689B6A55
:101F1000786839684FF47C72A047386800F056FA48
:101F20000346002B12D03B685B8C9BB25A1C3B686B
:101F3000DB699A4203D13B6800225A8406E03B6881
:101F40005B8C9BB201339AB23B685A843B689A69B6
:101F50003B681B8C9BB213447A68D279D2B21A7058
:101F60003B681B8C9BB25A1C3B68DB699A4203D1CD
:101F70003B6800221A8406E03B681B8C9BB201334D
:101F80009AB23B681A84FB7B5A1EFA73002BB1D1BC
:101F90001CE000BF78C100004CDB000098C10000CD
:101FA0003B681B69002B11D178684FF4222100F0A7
:101FB00005FC7B689B78DBB203F00203DBB2002BED
:101FC00004D078684FF4803100F0F8FB3B6893F858
:101FD0002D30DBB2042B05D03B6893F82D30DBB2FB
:101FE000052B15D13B689B69002B11D178684FF404
:101FF000222100F0E3FB7B689B78DBB203F0020355
:10200000DBB2002B04D078684FF4803100F0D6FBAF
:102010007B681B79DBB2DBB25BB2002B78DA7B68C2
:10202000DB78DBB2DBB25BB2002B71DA7A683A4B59
:102030009A421FD07A68394B9A4219D07A68384B45
:102040009A4213D07A68374B9A420DD07A68364B51
:102050009A4207D07A68354B9A4201D101230AE0AF
:10206000FF2308E0012306E0012304E0012302E04E
:10207000082300E008237A68127DD2B29B1AFB7312
:102080003FE03B685A68FB7B9A4203D23B685B683F
:10209000DBB200E0FB7BBB733B681A68BB7B7868F4
:1020A00011461A46FFF782FB3B681A68BB7B1A444D
:1020B0003B681A603B685A68BB7BD21A3B685A601F
:1020C000FA7BBB7BD31AFB733B685B68002B18D190
:1020D0003B68002283F82C207B68DB78DBB203F0BE
:1020E0007F03DAB27B68DA703B685B6A002B08D04A
:1020F0003B685C6A3B689B6A7868396840F2EA3200
:10210000A047FB7B002B03D03B685B68002BB8D15A
:102110001437BD4690BD00BF00A0064000B0064089
:1021200000C0064000D0064000A00E4000B00E40A7
:1021300080B500AF034B1B68034A12680348114681
:10214000984780BD14A5FF1FFCA4FF1F00A00640F8
:1021500080B500AFFFF7ECFF80BD00BF80B500AFDA
:10216000034B1B68034A526803481146984780BDD9
:1021700014A5FF1FFCA4FF1F00B0064080B500AFF0
:10218000FFF7ECFF80BD00BF80B500AF034B1B68BD
:10219000034A926803481146984780BD14A5FF1F63
:1021A000FCA4FF1F00C0064080B500AFFFF7ECFFA6
:1021B00080BD00BF80B500AF034B1B68034AD268E7
:1021C00003481146984780BD14A5FF1FFCA4FF1FBC
:1021D00000D0064080B500AFFFF7ECFF80BD00BF28
:1021E00080B500AF034B1B68034A126903481146D0
:1021F000984780BD14A5FF1FFCA4FF1F00A00E4040
:1022000080B500AFFFF7ECFF80BD00BF80B500AF29
:10221000034B1B68034A526903481146984780BD27
:1022200014A5FF1FFCA4FF1F00B00E4080B500AF37
:10223000FFF7ECFF80BD00BF80B500AF094B1B6806
:10224000002B06D108484FF4A961084A084B01F059
:1022500017FA084B1B68034A12680748114698474B
:1022600080BD00BFF4A4FF1FFCC10000A4D9000082
:10227000E8C30000F8A4FF1F00100B4080B483B037
:1022800000AF0346FB71084B97F907205209F97913
:1022900001F01F01012000FA01F143F822100C3770
:1022A000BD465DF8047B704700E100E080B485B076
:1022B00000AF78607B681B0C03F1804303F58E232D
:1022C000FB60FB68FA6811687A6892B2012000FA34
:1022D00002F20A431A601437BD465DF8047B70476A
:1022E00080B582B000AF0346FB7197F9073013F158
:1022F000800F04D097F907301846FFF7BFFF083763
:10230000BD4680BD80B584B000AF78600623BB6059
:102310000023FB6009E00E4BFA6853F822207B682B
:102320009A4206D0FB680133FB60FA68BB689A42A8
:10233000F1D3FA68BB689A4205D30648A921064A38
:10234000064B01F09DF9FB6818461037BD4680BD6D
:10235000BCD9000000C40000F4D9000018C400007B
:1023600080B584B000AF78607B68002B05D114483D
:10237000B021144A144B01F083F97B685B8C9AB24C
:102380007B681B8C9BB29A420CD97B681B8C9BB2DE
:102390001A467B68DB691A447B685B8C9BB2D31A54
:1023A000FB6008E07B681B8C9BB21A467B685B8CE9
:1023B0009BB2D31AFB60FB6818461037BD4680BD40
:1023C00000C4000008DA0000D4C3000080B584B067
:1023D00000AF78607B68002B05D10C48C2210C4A05
:1023E0000C4B01F04DF97868FFF7BAFF02467B68A5
:1023F000DB69013B9A4202D10123FB7301E0002318
:10240000FB73FB7B18461037BD4680BD00C400003F
:102410002CDA0000D4C3000080B588B000AFF860AB
:10242000B9607A60BB68002B05D1A348D421A34AC8
:10243000A34B01F025F9BB681B68002B05D19E4812
:10244000D5219E4A9F4B01F01BF9FA689E4B9A4298
:1024500020D0FA689D4B9A421AD0FA689C4B9A4257
:1024600014D0FA689B4B9A420ED0FA689A4B9A4263
:1024700008D0FA68994B9A4201D101230BE04FF042
:10248000FF3308E0012306E0012304E0012302E01A
:10249000082300E00823BA689279934205DA864857
:1024A000D721864A8E4B01F0EBF8FA68864B9A42A8
:1024B00020D0FA68854B9A421AD0FA68844B9A4227
:1024C00014D0FA68834B9A420ED0FA68824B9A4233
:1024D00008D0FA68814B9A4201D101230BE04FF0FA
:1024E000FF3308E0012306E0012304E0012302E0BA
:1024F000082300E00823BA68D279934205DA6E48CF
:10250000D8216E4A774B01F0BBF80023FB830023F0
:102510007B770023BB61BB681B681B017A68B2FB39
:10252000F3F3FB83FB8B002B01D10123FB830023FF
:102530007B617B685A00BB681B68B2FBF3F39AB2FD
:10254000FB8B1946C902CB1A5B019BB213447B82F9
:102550007B685A00FB8B59017B8A0B44B2FBF3F377
:102560007B61BB681A687B699A4204D2BB681B68AE
:102570007A69D31A03E0BB681A687B69D31ABB6116
:10258000BB681A68584BA3FB02135A0913465B0039
:102590001A44BB699A4202D240F2F53387E0F868E8
:1025A000FFF7B0FE0246514B53F822301846FFF7B2
:1025B0007DFEFB68DB78DBB223F00C03DAB2FB684C
:1025C000DA70FB681B78DBB223F01F03DAB2FB8BF7
:1025D0001B0A9BB2DBB21343DAB2FB681A70FB8BA7
:1025E000DAB2FB685A70FB689B7ADBB223F01F03F8
:1025F000DAB27B8ADBB203F01F03DBB21343DAB239
:10260000FB689A72FB689B78DBB223F013037B773D
:10261000BB681B79002B07D0BB681A797B7F1343FB
:10262000DBB243F010037B77FB687A7F9A70FB681C
:102630001B78DBB223F02003DAB2BB685B795B0165
:10264000DBB203F02003DBB21343DAB2FB681A708B
:10265000BB689A79FB68DA74BB68DA79FB685A75EB
:10266000FB681B7CDBB263F07703DAB2FB681A7499
:10267000FB685B7CDBB263F03F03DAB2FB685A7441
:10268000FB68DB787B77BB681B7A002B03D07B7FF2
:1026900043F008037B77BB685B7A002B03D07B7F1A
:1026A00043F004037B77FB687A7FDA7000231846D7
:1026B0002037BD4680BD00BF00C400004CDA0000DA
:1026C00068C2000034C4000000A0064000B006400C
:1026D00000C0064000D0064000A00E4000B00E40F2
:1026E0004CC400008CC400001F85EB51DCD90000F5
:1026F00080B582B000AF78607B68002B06D11048AF
:1027000040F25D110F4A104B00F0BAFF7B684FF4A6
:10271000E1321A607B6800221A717B6800225A71CC
:102720007B6800229A717B680122DA717B68002243
:102730001A727B6800225A720837BD4680BD00BFFE
:1027400000C4000058DA000068C2000080B483B002
:1027500000AF786039603A68174B13403B607B6884
:102760001B78DAB23B68DBB21343DAB27B681A70CB
:102770007B68DB78DAB23B681B0ADBB21343DAB260
:102780007B68DA707B689B79DAB23B681B0CDBB242
:102790001343DAB27B689A717B685B7CDAB23B6880
:1027A0001B0EDBB21343DAB27B685A740C37BD469A
:1027B0005DF8047B704700BFC0F00F0780B483B0A2
:1027C00000AF786039603A681B4B13403B607B6810
:1027D0001B78DAB23B68DBB2DB43DBB21340DAB220
:1027E0007B681A707B68DB78DAB23B681B0ADBB265
:1027F000DB43DBB21340DAB27B68DA707B689B792B
:10280000DAB23B681B0CDBB2DB43DBB21340DAB25B
:102810007B689A717B685B7CDAB23B681B0EDBB22B
:10282000DB43DBB21340DAB27B685A740C37BD4627
:102830005DF8047B704700BFC0F00F0780B485B01F
:1028400000AF78607B681B79DBB21A467B685B79E6
:10285000DBB21B021343FB607B681B7BDBB21B04F8
:10286000FA681343FB607B689B7CDBB21B06FA684B
:102870001343FB60FB6818461437BD465DF8047BC4
:10288000704700BF80B500AF094B1B68002B06D115
:10289000084840F21A41084A084B00F0F1FE084B84
:1028A0001B68034A126807481146984780BD00BF5D
:1028B000E4A4FF1FDCC400006CD90000FCC40000CD
:1028C000ECA4FF1F00F0024080B500AF094B5B682D
:1028D000002B06D108484FF48461084A084B00F0E9
:1028E000CFFE084B1B68034A5268074811469847B9
:1028F00080BD00BFE4A4FF1FDCC4000088D9000035
:1029000010C50000F0A4FF1F00F0024080B485B0A5
:1029100000AF78607B68DB78DBB2FB607B689B791B
:10292000DBB203F04003002B03D0FB6843F4804389
:10293000FB607B689B79DBB203F01003002B03D0B4
:10294000FB6843F48053FB60FB6818461437BD46B0
:102950005DF8047B704700BF80B586B000AFF860BB
:10296000B9607A603B60BB68002B06D1144840F226
:102970002741144A144B00F083FEF86800F028F950
:102980007861B8680021282208F0FEF9BB687A68EF
:102990001A62BB683A685A620C4B7A69B96843F8A4
:1029A00022100B4B0B4A1A600B4A7B6913441B78AD
:1029B0005BB2184600F0CEF81837BD4680BD00BFA8
:1029C00024C5000030D9000044C50000D0A4FF1F7A
:1029D000DCA4FF1FDD290000E4D8000090B587B01B
:1029E00000AF786039603B68002B06D1284840F280
:1029F0008C41284A284B00F043FE3B683B61002392
:102A00007B617B680222DA7007F10F03786839690D
:102A10001A4600F029F97861FB7B002B02D17B6913
:102A2000002B32D03B691B6803F00403002B09D054
:102A30007A6940F24E439A4204D07A6940F2514397
:102A40009A420FD17B689B78DBB203F02003002B06
:102A500008D0786800F0D0FB0346002B02D04FF47A
:102A60008A637B613B6900221A777868402100F015
:102A7000E5FA3B691B6A002B07D03B691C6A3B697E
:102A80005B6A786839697A69A0471C37BD4690BD92
:102A900024C5000050D900004CC5000080B500AF2F
:102AA000034B1B680348194600F004FA80BD00BFC1
:102AB000D0A4FF1F0060064080B500AF034B5B68E9
:102AC0000348194600F0F6F980BD00BFD0A4FF1FEF
:102AD0000070064080B500AF034B9B680348194661
:102AE00000F0E8F980BD00BFD0A4FF1F00600E40D9
:102AF00080B483B000AF0346FB71084B97F9072001
:102B00005209F97901F01F01012000FA01F143F89F
:102B100022100C37BD465DF8047B704700E100E0F1
:102B200080B485B000AF78607B681B0C03F18043F4
:102B300003F58E23FB60FB68FA6811687A6892B22D
:102B4000012000FA02F20A431A601437BD465DF80C
:102B5000047B704780B582B000AF0346FB7197F9E4
:102B6000073013F1800F04D097F907301846FFF7AC
:102B7000BFFF0837BD4680BD80B483B000AF78602A
:102B800039603B6803F48053002B09D07B689B7944
:102B9000DAB23B681B0ADBB21343DAB27B689A7184
:102BA0003B6803F48043002B09D07B689B79DAB241
:102BB0003B681B0ADBB21343DAB27B689A713B684D
:102BC000DAB27B68DA700C37BD465DF8047B70477B
:102BD00080B584B000AF78600023FB6009E00D4B46
:102BE000FA6853F822207B689A4205D0FB680133CB
:102BF000FB60FB68022BF2D9FB68022B05D9064863
:102C0000B521064A064B00F03BFDFB68184610371D
:102C1000BD4680BDD8D8000074C60000F4D80000BE
:102C20008CC6000080B485B000AF786039600023A6
:102C3000FB603B6803F01003002B06D07B6810227A
:102C4000DA7040F24F43FB6007E03B6803F001039A
:102C5000002B02D040F24E43FB60FB68184614374D
:102C6000BD465DF8047B704780B588B000AFF86062
:102C7000B9607A600023FB61FB68DB78DBB2BB6183
:102C80007B6800221A700023BB75BB681B7F032B77
:102C900003D1BB685B69002B07D0BB681B7F052B8A
:102CA00005D1BB685B69012B01D1012300E0002342
:102CB000FB75FB7D03F00103FB75BB7DDBB20133CC
:102CC000DBB2BB75F868B969FFF7ACFFF861FA6968
:102CD00040F24E439A4204D1FB7D002B01D00023E9
:102CE000FB61BB681B7F012B1BD1BB6903F0010398
:102CF000002B03D040F25143FB6112E0BB681B7B09
:102D0000002B03D0BB6802221A770AE0BB685B790C
:102D1000002B03D1BB6803221A7702E0BB680422B0
:102D20001A77FB69002B01D0FB69BFE0BB681B7FF2
:102D3000023B032B00F2B98001A252F823F000BF3E
:102D4000512D0000CB2D0000FB2D0000332E000084
:102D5000BB681B7B002B10D0BB681B7B013BDAB22E
:102D6000BB681A73BB689A68BB681B7BDB0022FADE
:102D700003F3DAB2FB681A7194E0BB685B79002B4D
:102D800017D1BB6803221A77BB685B69002B00F080
:102D90008980BB681B691A78FB681A71BB681B695C
:102DA0005A1CBB681A61BB685B695A1EBB685A61D2
:102DB00078E0BB681B79F8681946012200F0CEF96B
:102DC000F861BB6804221A776FE0BB685B69002B6F
:102DD0000FD0BB681B691A78FB681A71BB681B6946
:102DE0005A1CBB681A61BB685B695A1EBB685A6192
:102DF0005BE07B6801221A7057E0FB689B78DBB2CE
:102E000023F01803DAB2FB689A70BB685B69012B88
:102E100007D1FB689B78DBB243F00803DAB2FB68AA
:102E20009A70FB681B79DBB2BB75BB6805221A7709
:102E30003BE0BB685B69591EBA685161002B33D017
:102E4000BB685B69002B15D17B6801221A70BB68D7
:102E50001B6803F00403002B04D1F86800F0CCF9E0
:102E6000F86107E0FB689B78DBB243F01003DAB24D
:102E7000FB689A70BB685B69012B07D1FB689B7884
:102E8000DBB243F00803DAB2FB689A70BB681B69D7
:102E9000FA681279D2B21A70BB681B695A1CBB68F7
:102EA0001A6102E000BF00E000BFFB69184620374E
:102EB000BD4680BD80B582B000AF786039607B6868
:102EC000DB78DBB203F01003002B06D17B689B7824
:102ED000DBB203F02003002B05D0084B1B68786899
:102EE0003968984704E0064B1B687868396898474A
:102EF000BFF34F8F0837BD4680BD00BFDCA4FF1F66
:102F0000E0A4FF1F80B586B000AFF860B9607A60BA
:102F1000BB68002B02D07B68002B06D12F484FF4F2
:102F2000ED712F4A2F4B00F0ABFBF868FFF750FE16
:102F300002462D4B53F822301846FFF7F1FDFB688F
:102F40009B78DBB203F07F03DAB2FB689A70F86813
:102F500045F21201FFF710FEBB685B68F86819467E
:102F60007A6800F08FF8FB685B79FB75FB7D23F0D6
:102F70002003FB75BB685B785B01DBB203F02003C9
:102F8000DAB2FB7D1343FB75FB68FA7D5A71FB686F
:102F90009B79BB75BB7D03F07F03BB75BB689B78DA
:102FA000DB01DAB2BB7D1343BB75BB7D23F00F039E
:102FB000BB75BB681B7A03F00F03DAB2BB7D13430A
:102FC000BB75FB68BA7D9A71BB681B78DB01DAB20E
:102FD000FB689A701837BD4680BD00BF74C60000FC
:102FE00004D90000B4C60000E8D8000080B582B063
:102FF00000AF78607B68002B06D10C4840F221219D
:103000000B4A0C4B00F03CFB7B680B4A5A607B6818
:1030100000225A707B6800229A707B6800221A7224
:103020007B6801221A700837BD4680BD74C6000057
:1030300014D90000D0C60000A086010080B483B07F
:1030400000AF786039603B6803F04003002B07D085
:103050007B689B78DBB223F04003DAB27B689A701E
:103060003B6803F02003002B07D07B689B79DBB221
:1030700023F07003DAB27B689A710C37BD465DF8B5
:10308000047B704780B48DB000AFF860B9607A609F
:103090004FF0FF33FB620023BB6200237B620023FF
:1030A00087F823303EE097F82330012202FA03F339
:1030B000FB61002387F822302BE097F82220264B73
:1030C00033F81230FA6902FB03F37A68B2FBF3F3C8
:1030D000BB61BA68BB699A4203D9BA68BB69D31AA3
:1030E00002E0BA69BB68D31A7B617A69FB6A9A42CB
:1030F0000AD297F82330BB6297F822307B627B6953
:10310000FB627B69002B08D097F82230013387F8E7
:10311000223097F822303F2BCFD997F82330013354
:1031200087F8233097F82330022B02D8FB6A002B54
:10313000B9D1BB6ADBB29B01DAB27B6ADBB203F0C6
:103140003F03DBB21343DAB2FB685A703437BD4633
:103150005DF8047B704700BF58D8000080B586B08A
:1031600000AF786013460A46FA70BB7000237B619B
:103170007868FFF7CBFBF8600623FB74FB6803F06D
:103180002003002B0AD07B689B78DBB203F020037E
:10319000002B03D140F24C437B6127E07B685B78D6
:1031A000FB72FB7A03F03F03DAB27B685A707B68EC
:1031B0009B78DBB243F01403DAB27B689A707B68C9
:1031C000FA7A5A7000E000BFFB7C5A1EFA74002B9A
:1031D000F9D1FB785B00DAB2BB78012B01D1012376
:1031E00000E000231343DAB27B681A717B6918464A
:1031F0001837BD4680BD00BF80B485B000AF786091
:103200000023FB604FF6FF737B817B689B78DBB20A
:1032100023F03803DAB27B689A707B68DB78DBB224
:1032200003F02003002B05D07B89013B7B817B8948
:10323000002BF2D17B89002B02D14FF48A63FB6013
:10324000FB6818461437BD465DF8047B704700BF25
:1032500080B500AF094B1B68002B06D1084840F22F
:103260001F51084A084B00F00BFA084B1B68034A31
:10327000126807481146984780BD00BFC8A4FF1FC9
:10328000E0C6000040D8000094C80000CCA4FF1F96
:103290000040024080B500AF034B1B68034A126830
:1032A00003481146984780BDBCA4FF1FB8A4FF1F68
:1032B00000000C4080B500AF034B1B68034A126846
:1032C00003481146984780BDC0A4FF1FB8A4FF1F44
:1032D00000000C4080B500AF034B1B68034A126826
:1032E00003481146984780BDC4A4FF1FB8A4FF1F20
:1032F00000000C4080B500AF024B1B68184600F080
:1033000099F880BD78A4FF1F80B500AF024B5B68C1
:10331000184600F08FF880BD78A4FF1F80B500AF7D
:10332000024B9B68184600F085F880BD78A4FF1F0B
:1033300080B500AF024BDB68184600F07BF880BD1B
:1033400078A4FF1F80B500AF024B1B69184600F040
:1033500071F880BD78A4FF1F80B500AF024B5B6998
:10336000184600F067F880BD78A4FF1F80B500AF55
:10337000024B9B69184600F05DF880BD78A4FF1FE2
:1033800080B500AF024BDB69184600F053F880BDF2
:1033900078A4FF1F80B500AF024B1B6A184600F0EF
:1033A00049F880BD78A4FF1F80B500AF024B5B6A6F
:1033B000184600F03FF880BD78A4FF1F80B500AF2D
:1033C000024B9B6A184600F035F880BD78A4FF1FB9
:1033D00080B500AF024BDB6A184600F02BF880BDC9
:1033E00078A4FF1F80B500AF024B1B6B184600F09E
:1033F00021F880BD78A4FF1F80B500AF024B5B6B46
:10340000184600F017F880BD78A4FF1F80B500AF04
:10341000024B9B6B184600F00DF880BD78A4FF1F8F
:1034200080B500AF024BDB6B184600F003F880BD9F
:1034300078A4FF1F90B589B000AF78607B68002B3F
:1034400006D1504840F23A314F4A504B00F018F93B
:103450007B689B687A68127CDA777B68DB68002B74
:103460000DD17B681B68002B09D07B681C687B68CA
:103470005B687868194601220023A0477EE07B68DC
:103480009A687B681B7C5B01134403F580531833F7
:103490001B687B617B689A687B681B7C5B011344BB
:1034A00003F5805318339B889BB203F08003002BF5
:1034B0000CBF00230123FB747B68DB687A69D31A95
:1034C0007B617B695B09FB60FB7C002B02D0FB68A6
:1034D000FB760EE0FB68002B04D0FB68DBB2013BFF
:1034E000DBB205E07B681B7DDBB2DBB2013BDBB20C
:1034F000FB76FA7E7B685B7CDBB25BB29A4212D1D0
:103500007B68DB7CDAB27B681B7DDBB252B25BB2DC
:103510009A4205D17B68DB7CDBB25BB2FB6113E0D6
:103520000023FB6110E0FA7E7B685B7CDBB25BB260
:10353000D31AFB61FB69002B06DA7B681B7DDBB2CB
:103540005BB2FA691344FB61FA7E7B685A747B684C
:10355000DB7CDBB2DAB2FB69DBB2D31ADBB2DAB204
:103560007B68DA747B681B68002B07D07B681C685B
:103570007B685968FB69FA7C7868A0472437BD46A8
:1035800090BD00BFDCC8000030D80000B0C900000A
:1035900080B582B000AF78603960786800F084F858
:1035A0000346002B05D0074B1B687868396898479D
:1035B00004E0054B1B687868396898470837BD46B2
:1035C00080BD00BF70A4FF1F74A4FF1F80B500AFB3
:1035D000084B1B68002B06D1074840F25761074A89
:1035E000074B00F04DF8034B1B6806481946FFF7E0
:1035F000CFFF80BD64A4FF1FFCCA0000E8D7000015
:103600001CCB000000C0024080B500AF084B5B68D7
:10361000002B06D1074840F25F61074A074B00F0D4
:103620002FF8034B5B6806481946FFF7B1FF80BDD2
:1036300064A4FF1FFCCA000000D800002CCB0000CF
:1036400000D0024080B500AF084B9B68002B06D12C
:10365000074840F26761074A074B00F011F8034B37
:103660009B6806481946FFF793FF80BD64A4FF1FBF
:10367000FCCA000018D800003CCB000000C00A4083
:1036800080B586B002AFF860B9607A603B607B6855
:10369000009304483968FA68BB6807F089F800BEEF
:1036A000FDE700BF4CCC000080B483B000AF786071
:1036B0007B681B68DB0FDBB218460C37BD465DF834
:1036C000047B704780B582B000AF0B463A6002467B
:1036D000FA71BB713B68002B06D1124840F25C6165
:1036E000114A124BFFF7CCFFFB79184600F00EF998
:1036F000BB791846396800F05DFA0D4B0C4A127818
:10370000D2B202F03F02D2B21A70094B9B79DBB2FF
:1037100003F00C039B08032BF7D10023184608374E
:10372000BD4680BD8CCD0000D4D70000A4CD0000E4
:103730000040064080B582B000AF7860094B7A68DF
:10374000526803F5825304331A607B681B7818466D
:1037500000F0D8FC7B685B78184600F0BDFC0837A9
:10376000BD4680BD0070044080B582B000AF164BEE
:103770009B79DBB203F00C039B083B603B68032B97
:103780001AD801A252F823F0A1370000A93700008F
:10379000B13700009937000000F07CF878600DE048
:1037A00000F014F8786009E000F0A6FD786005E00C
:1037B00000F0F8FC786001E000237B607B6818462D
:1037C0000837BD4680BD00BF0040064080B582B0CE
:1037D00000AF194B5B78DBB203F00203002B06D17C
:1037E000154B9B79DBB203F02003002B01D00023A3
:1037F0001DE000F0A3FD78607B68002B01D17B68A1
:1038000015E00D4BDB78DBB203F060035B09FB7066
:10381000094BDB78DBB2DB09BB70F978BA78074B70
:1038200049000A4433F812307A6802FB03F3184661
:103830000837BD4680BD00BF0040064088D7000065
:1038400080B500AF064B1B78DBB203F00203002B00
:1038500001D1002302E000F04FFD0346184680BD71
:103860000040064080B582B000AF00F067FD786090
:103870007B68002B08D0FFF777FF0346DA087B68E8
:103880009A4201D37B6800E0002318460837BD4602
:1038900080BD00BF80B582B000AF184B9B79DBB212
:1038A00003F04003002B01D1002322E000F05CFD77
:1038B00078607B68002B06D1114840F27D21114AC7
:1038C000114BFFF7DDFE0D4B1B79DBB203F01F033D
:1038D00001337A68B2FBF3F37B60084B5B79DBB2B0
:1038E00003F01F0303F118027B6802FB03F37B6004
:1038F0007B6818460837BD4680BD00BF00400640C3
:103900002CCF000098D7000044CF000080B485B0D1
:1039100000AF0346FB71204B1B7BDBB203F00302BD
:10392000FB799A4202D00123FB7301E00023FB7371
:10393000194B194A127BD2B222F00302D1B2FA79A2
:1039400002F00302D2B20A43D2B21A73FB79002BFF
:103950000DD1114B5B78DBB203F00403002B06D0D2
:103960000D4B9B79DBB203F00203002BF8D0FB7BFD
:10397000002B09D040F2DC53BB6000E000BFBB6805
:103980005A1EBA60002BF9D1002318461437BD46E1
:103990005DF8047B704700BF0040064080B485B0EE
:1039A00000AF13460246FA710A46BA717B713A4B70
:1039B0009B79DBB203F00C039B08FB60364B9B79D1
:1039C000DBB203F00103FB72334B1B7ADBB203F073
:1039D0000E035B08BB727A79BB7A9A422BD0FB7AD2
:1039E000012B18D1FB68012B06D02B4B1B78DBB2C7
:1039F00003F00203002B0ED0274B274A5278D2B295
:103A000022F00102D2B25A70234B9B79DBB203F051
:103A10000103002BF8D1204B1F4A127AD2B222F0B8
:103A20002F02D1B27A795200D2B202F00E02D2B293
:103A30000A43D2B21A72184B174A5278D2B222F005
:103A40000102D1B2BA7902F00102D2B20A43D2B273
:103A50005A70114B104A1278D2B222F00302D1B23E
:103A6000FA790A43D2B21A70FB68012B04D0FB79B1
:103A700003F00203002B07D0074B9B79DBB203F066
:103A80000102BB799A42F7D1002318461437BD468C
:103A90005DF8047B704700BF0040064080B584B0ED
:103AA00000AF78607B68002B06D11C4840F247319C
:103AB0001B4A1C4BFFF7E4FD0023FB737B685B781C
:103AC00003F01F03DAB2FB7B1343FB73164BFA7B45
:103AD0001A71154B144A5279D2B222F01F02D1B298
:103AE0007A68927802F01F02D2B20A43D2B25A71B7
:103AF0000D4B0D4A1279D1B27A6812780A43D2B2CC
:103B000042F04002D2B21A71074B9B79DBB203F04C
:103B10004003002BF8D01037BD4680BD2CCF0000ED
:103B2000ACD7000050CF00000040064080B584B004
:103B300000AF78607B681B68184600F01DFC0346E8
:103B4000FB737B681B791948194600F011FB7B68F1
:103B500006331648194600F0F1FA154B144A52780C
:103B6000D2B222F03C02D1B2FA7B1201D2B202F000
:103B70003002D2B20A43D1B27A6852790A43D2B241
:103B80005A707B685B79002B0DD0084B1B78DBB239
:103B9000DBB25BB2002B06DA054B9B79DBB203F09C
:103BA0000203002BF8D01037BD4680BD0050064000
:103BB0000040064080B582B000AF03463960FB711B
:103BC0003B68002B06D1234840F2BD51224A234BCB
:103BD000FFF756FD224B224A5278D2B222F002025F
:103BE000D2B25A701E4B1E4A1278D2B202F03B0279
:103BF000D2B262F07F02D2B21A70194B9B79DBB25B
:103C000003F01C03082BF8D1154B154A5279D2B298
:103C100022F04002D2B25A71114B9B79DBB203F011
:103C20002003002BF8D13868FFF738FF0C4B0C4A03
:103C30005279D2B242F04002D2B25A71084B9B790B
:103C4000DBB203F02003002BF8D00023184608371E
:103C5000BD4680BD2CCF0000C0D7000050CF000073
:103C60000040064080B584B000AF7860396002F053
:103C700029F807F10803184600F066F8F860BB68F9
:103C8000002B31D13B68002B0AD17A68FB689A423D
:103C900006D802F025F87868F96801F0ABFA25E05B
:103CA0003B68002B08D0134B1B681B68002B14BF0C
:103CB00000230123DBB23B600F4B1A687968FB6875
:103CC000CB1A104619463A6801F05EFC02F008F87B
:103CD0000346002B0AD1094B4FF080521A60BFF304
:103CE0004F8FBFF36F8F01E001F0FAFF1037BD4631
:103CF00080BD00BF4CA4FF1F50A4FF1F04ED00E0D7
:103D000080B485B000AF78600E4B1B681B68002B39
:103D100014BF00230123DBB21A467B681A607B685C
:103D20001B68002B05D1074B1B68DB681B68FB6019
:103D300001E00023FB60FB6818461437BD465DF8C0
:103D4000047B704748A4FF1F80B584B000AF786043
:103D500002F062F8F8600B4B1B68FA689A4205D2D1
:103D600000F002F97B6801221A6002E07B68002201
:103D70001A60044BFA681A60FB6818461037BD4693
:103D800080BD00BF58A4FF1F80B586B000AFF860AB
:103D9000B9607A603B6000237B61FB68BA685A6057
:103DA000FB68FA681A61BA687B689A4212D87A6826
:103DB0003B68D21AFB689B699A4202D301237B615C
:103DC0001BE0104B1A68FB6804331046194602F0DA
:103DD00089FB12E07A683B689A4206D2BA683B686F
:103DE0009A4202D301237B6107E0074B1A68FB6804
:103DF00004331046194602F075FB7B6918461837E4
:103E0000BD4680BD4CA4FF1F48A4FF1F80B58EB0E7
:103E100002AF97E07B68002B18DA3B1D0433FB628E
:103E2000FB6A002B09D14FF0500383F31188BFF3D5
:103E30006F8FBFF34F8FFB61FEE7FB6A1B68FA6A67
:103E40005168FA6A92680846114698477B68002BC9
:103E500078DBFB68BB62BB6A5B69002B04D0BB6A82
:103E60000433184602F076FB3B461846FFF76CFF1A
:103E700078627B68092B65D801A252F823F000BF55
:103E8000A93E0000A93E0000A93E0000453F0000F9
:103E9000073F00003F3F0000A93E0000A93E000090
:103EA000453F0000073F0000BA68BB6A9B691A449F
:103EB000BB68B86A11467A6AFFF766FF0346002BB3
:103EC00040D0BB6A5B6AB86A9847BB6ADB69012B62
:103ED00038D1BA68BB6A9B69134400220092B86A61
:103EE00000211A46002301F033F938623B6A002BA7
:103EF00028D14FF0500383F31188BFF36F8FBFF3C6
:103F00004F8FBB61FEE7BA68BB6A9A61BB6A9B6967
:103F1000002B09D14FF0500383F31188BFF36F8F4B
:103F2000BFF34F8F7B61FEE7BB6A9A697B6A1344DC
:103F3000B86A19467A6A7B6AFFF726FF02E0B86A18
:103F400003F022FD074B1A683B1D1046194600225C
:103F5000002302F0AFFD0346002B7FF45BAF303748
:103F6000BD4680BD50A4FF1F80B588B002AF44E0BD
:103F70002B4B1B68DB681B687B61294B1B68DB686C
:103F8000DB683B613B690433184602F0E3FA3B69A6
:103F90005B6A386998473B69DB69012B2DD13B6926
:103FA0009A697B691344FB60FA687B699A420ED96F
:103FB0003B69FA685A603B693A691A61184B1A689A
:103FC0003B6904331046194602F08CFA15E00023D1
:103FD0000093386900217A69002301F0B9F8B860CC
:103FE000BB68002B09D14FF0500383F31188BFF356
:103FF0006F8FBFF34F8F3B60FEE7094B1B681B6859
:10400000002BB5D1064B1B687B60064B1A68044B2E
:104010001A60044B7A681A601837BD4680BD00BF2D
:1040200048A4FF1F4CA4FF1F80B500AF01F004FFA0
:10403000124B1B68002B1DD1114802F003FA1148E6
:1040400002F000FA104B0E4A1A60104B0D4A1A602B
:104050000A201021002202F00FFB0246074B1A60D3
:10406000064B1B68002B05D0044B1B6818460849FB
:1040700001F03AFA01F00EFF80BD00BF50A4FF1F0F
:1040800020A4FF1F34A4FF1F48A4FF1F4CA4FF1F40
:1040900058CF000080B58AB000AFF860B9607A6090
:1040A0003B606FF001037B61FB68BB61BB68FB6138
:1040B0007B683B62074B1A6807F1140310461946E8
:1040C0003A68002302F062FC78627B6A184628375F
:1040D000BD4680BD50A4FF1F80B483B000AF7860A0
:1040E000074B074A126822F440217A68920402F4CE
:1040F00040220A431A600C37BD465DF8047B7047C6
:104100000070044080B483B000AF78600A490A4B65
:1041100003F5805304331B6823F440327B681B048F
:1041200003F440331A4301F5805304331A600C370B
:10413000BD465DF8047B70470070044080B485B0D4
:1041400000AF786039607B681B78FB73FB7B03F002
:104150005F03FB733B681A78FB7B1343FB737B683D
:10416000FA7B1A701437BD465DF8047B704700BFB8
:1041700080B485B000AF78600B46FB707B681B781D
:10418000FB73FB7B23F00F03FB73FA7BFB7813437A
:10419000FB737B68FA7B1A701437BD465DF8047BAD
:1041A000704700BF80B582B000AF194B1B7BDBB2FC
:1041B00003F00303012B12D0012B02D3022B1CD0DE
:1041C0001EE0144B1B68002B05D11348D421134A61
:1041D000134BFFF755FA0F4B1B687B6012E0114B36
:1041E0001B68002B05D10C48D9210C4A0E4BFFF758
:1041F00047FA0C4B1B687B6004E00C4B7B6001E0D2
:1042000000237B607B6818460837BD4680BD00BF31
:10421000004006405CA4FF1FD0CF000040D7000044
:10422000E8CF000060A4FF1FF4CF0000006CDC02A8
:1042300080B582B000AFFFF7B5FF78607B68002BD8
:1042400001D17B684DE0294B1B78DBB203F03803CA
:10425000DB08FB70FB787A6822FA03F37B60234B60
:104260005B78DBB203F030031B09BB701F4B1B7B79
:10427000DBB203F003037B70BB78002B02D07B78AA
:10428000002B02D07B78022B2AD1FB78072B25D874
:1042900001A151F823F000BFB9420000B94200006B
:1042A000B9420000B9420000B9420000B942000022
:1042B000C1420000CF4200007B685B097B600FE0D9
:1042C0007A680B4BA3FB02131B097B6008E07A683A
:1042D000084BA3FB0213DB087B6001E000237B603B
:1042E0007B6818460837BD4680BD00BF00400640C9
:1042F000CDCCCCCCABAAAAAA80B400AF0C4B9B7996
:10430000DBB203F00103002B02D10A4B1B6809E06A
:10431000094B1A68064B1B7ADBB203F00E035B08ED
:1043200022FA03F31846BD465DF8047B704700BFD0
:10433000004006405800FF1F5C00FF1F80B500AF23
:10434000074B9B79DBB203F010031B09002B03D151
:10435000FFF76EFF034601E0024B1B68184680BD65
:10436000004006405800FF1F80B500AFFFF71AFF5E
:104370000346184680BD00BF80B485B000AF7860AA
:104380007A6849F697039A4202D80023FB7308E043
:104390007A68074B9A4202D80123FB7301E002239B
:1043A000FB73FB7B18461437BD465DF8047B7047F2
:1043B00000127A0080B500AF0B4B1B78DBB2DBB28A
:1043C0005BB2002B0DDA094B1B68002B06D10848A5
:1043D00040F26511074A084BFFF752F9034B1B687F
:1043E00000E00023184680BD005006405CA4FF1F7B
:1043F000D0CF000058D70000E8CF000080B582B0D1
:1044000000AF184B1B6803F440239B0C022B0FD00A
:10441000032B1CD0002B1ED1FFF7CCFF0346B3F5B6
:10442000004F02D14FF4004300E000237B6014E012
:104430000D4B1B68002B06D10C4840F279110C4A39
:104440000C4BFFF71DF9084B1B687B6005E04FF430
:104450007A737B6001E000237B607B681846083735
:10446000BD4680BD0070044060A4FF1FD0CF000097
:1044700070D70000F4CF000080B582B000AF104BC1
:1044800003F5805304331B6803F440331B0C012BEA
:1044900008D0012B02D3032B08D00AE0FFF796F9CE
:1044A000786008E0FFF7F6F9786004E0054B7B6080
:1044B00001E000237B607B6818460837BD4680BD5D
:1044C00000700440006CDC0280B500AFFFF74CF9CF
:1044D0000246054B03F5825304331B681B0F01335F
:1044E000B2FBF3F3184680BD0070044080B584B081
:1044F00000AF0346FB71FB79132B00F28C8001A205
:1045000052F823F055450000554500007145000064
:1045100091450000B145000017460000D14500005C
:10452000D9450000E145000017460000174600008D
:10453000E9450000F1450000F94500000146000092
:104540001746000017460000174600000946000005
:104550000F460000FFF708F90246324B03F582537D
:1045600004331B681B0F0133B2FBF3F3FB6054E011
:10457000FFF7FAF802462B4B03F5825304331B680E
:1045800003F070631B0E0133B2FBF3F3FB6044E0F6
:10459000FFF7EAF80246234B03F5825304331B6806
:1045A00003F470031B0D0133B2FBF3F3FB6034E043
:1045B000FFF7DAF802461B4B03F5825304331B68FE
:1045C00003F470231B0C0133B2FBF3F3FB6024E014
:1045D000FFF752FFF86020E0FFF710FFF8601CE0E3
:1045E000FFF7E8FEF86018E0FFF73CF9F86014E028
:1045F000FFF726F9F86010E0FFF7E8F8F8600CE044
:10460000FFF748F9F86008E0074BFB6005E04FF45E
:104610007A73FB6001E00023FB60FB6818461037EB
:10462000BD4680BD00700440006CDC0280B586B0E1
:1046300000AF00237B614A4B1B68002B7ED1494BA6
:104640001B6801333B61474B3A691A603B69002B99
:104650001FD1454B1B681B68002B09D04FF050033E
:1046600083F31188BFF36F8FBFF34F8F3B60FEE77B
:104670003D4B1B68FB603D4B1A683B4B1A603B4B44
:10468000FA681A603A4B1B685A1C394B1A6000F0E2
:1046900051FB384B1B683A699A4255D300E000BF82
:1046A000314B1B681B68002B01D1012300E0002364
:1046B000002B04D02F4B4FF0FF321A6044E02A4BFE
:1046C0001B68DB68DB68BB60BB685B687B603A6962
:1046D0007B689A4203D2274B7A681A6034E0BB6841
:1046E0000433184601F036FFBB689B6A002B04D0E8
:1046F000BB681833184601F02DFFBB68DB6A012246
:104700009A401D4B1B681A431B4B1A60BB68DA6A40
:1047100013469B0013449B00184A1A44BB68043399
:104720001046194601F0BAFEBB68DA6A144B1B68E2
:10473000DB6A9A42B3D301237B61B1E7114B1B685B
:104740005A1C104B1A6000E000BF0F4B1B68002B77
:1047500001D001237B617B6918461837BD4680BDB7
:104760001CA4FF1FF8A3FF1FACA3FF1FB0A3FF1FD4
:104770000CA4FF1F14A4FF1FFCA3FF1F20A3FF1FF7
:104780001CA3FF1F04A4FF1F08A4FF1F80B487B051
:1047900000AF264B1B68002B03D0254B01221A606B
:1047A0003EE0234B00221A60224B1B68FB60FB6833
:1047B000B3FA83F3FB72FB7AC3F11F037B611E49DB
:1047C0007A6913469B0013449B000B441B68002B23
:1047D00009D14FF0500383F31188BFF36F8FBFF3FC
:1047E0004F8F7B60FEE77A6913469B0013449B0062
:1047F000114A13443B613B695B685A683B695A60E4
:104800003B695A683B6908339A4204D13B695B684B
:104810005A683B695A603B695B68DA68074B1A6003
:104820001C37BD465DF8047B704700BF1CA4FF1F0A
:1048300008A4FF1FFCA3FF1F20A3FF1F1CA3FF1F33
:1048400080B584B000AF786039607B68002B09D1F7
:104850004FF0500383F31188BFF36F8FBFF34F8F77
:10486000FB60FEE7064B1B6818337868194601F0B9
:1048700039FE3868012100F0D5FB1037BD4680BDF8
:104880001CA3FF1F80B586B000AFF860B9607A60E6
:10489000FB68002B09D14FF0500383F31188BFF35D
:1048A0006F8FBFF34F8F7B61FEE7114B1B68002BAF
:1048B00009D14FF0500383F31188BFF36F8FBFF31B
:1048C0004F8F3B61FEE70B4B1B68BA6842F000421A
:1048D0009A61084B1B681833F868194601F0DEFD31
:1048E0007868012100F09EFB1837BD4680BD00BFEF
:1048F0001CA4FF1F1CA3FF1F80B586B000AFF8608B
:10490000B9607A60FB68002B09D14FF0500383F344
:104910001188BFF36F8FBFF34F8F7B61FEE70A4BA8
:104920001B681833F868194601F0B8FD7B68002B46
:1049300002D04FF0FF33BB60B868796800F072FBBB
:104940001837BD4680BD00BF1CA3FF1F80B586B0D1
:1049500000AF78607B68DB68DB683B613B69002BFC
:1049600009D14FF0500383F31188BFF36F8FBFF36A
:104970004F8FFB60FEE73B691833184601F0EAFDF4
:104980001D4B1B68002B1CD13B690433184601F0FA
:10499000E1FD3B69DB6A01229A40184B1B681A4310
:1049A000164B1A603B69DA6A13469B0013449B005E
:1049B000134A1A443B6904331046194601F06EFD50
:1049C00005E03B6918330F48194601F067FD3B6964
:1049D000DA6A0D4B1B68DB6A9A4205D901237B61B9
:1049E0000A4B01221A6001E000237B617B691846B3
:1049F0001837BD4680BD00BF1CA4FF1FFCA3FF1FCE
:104A000020A3FF1FB4A3FF1F1CA3FF1F08A4FF1FA9
:104A100080B586B000AF786039602B4B1B68002BE7
:104A200009D14FF0500383F31188BFF36F8FBFF3A9
:104A30004F8FFB60FEE73B6843F000427B681A60E3
:104A40007B68DB683B613B69002B09D14FF0500369
:104A500083F31188BFF36F8FBFF34F8FBB60FEE707
:104A6000786801F077FD3B690433184601F072FD68
:104A70003B69DB6A01229A40144B1B681A43134BB3
:104A80001A603B69DA6A13469B0013449B00104A84
:104A90001A443B6904331046194601F0FFFC3B6998
:104AA000DA6A0C4B1B68DB6A9A4205D901237B61E9
:104AB000094B01221A6001E000237B617B691846E3
:104AC0001837BD4680BD00BF1CA4FF1FFCA3FF1FFD
:104AD00020A3FF1F1CA3FF1F08A4FF1F80B485B0E5
:104AE00000AF78607B68002B09D14FF0500383F34F
:104AF0001188BFF36F8FBFF34F8FFB60FEE7064B4C
:104B00001A687B681A60054B1A687B685A6014370C
:104B1000BD465DF8047B70470CA4FF1FF8A3FF1F80
:104B200080B586B000AF786039607B68002B09D112
:104B30004FF0500383F31188BFF36F8FBFF34F8F94
:104B4000FB60FEE73B68002B09D14FF0500383F375
:104B50001188BFF36F8FBFF34F8FBB60FEE701F08B
:104B60006BF91C4B1B683B613B681B68B3F1FF3F53
:104B700002D100237B6126E07B681A68164B1B6814
:104B80009A4207D07B685A683B699A4202D801234F
:104B90007B6118E07B685B683A69D21A3B681B68E6
:104BA0009A420ED23B681A687B6859683B69CB1AF7
:104BB0001A443B681A607868FFF790FF00237B6116
:104BC00001E001237B6101F065F97B691846183724
:104BD000BD4680BDF8A3FF1F0CA4FF1F80B400AF2B
:104BE000034B01221A60BD465DF8047B704700BF8D
:104BF00008A4FF1F80B582B000AF786000F050F8C5
:104C0000064B1B68012BF9D9054B4FF080521A60F7
:104C1000BFF34F8FBFF36F8FF0E700BF20A3FF1FDD
:104C200004ED00E080B582B000AF00237B600CE0B3
:104C30007A6813469B0013449B00114A134418469C
:104C400001F000FC7B6801337B607B68042BEFD9AB
:104C50000C4801F0F7FB0C4801F0F4FB0B4801F0A5
:104C6000F1FB0B4801F0EEFB0A4801F0EBFB0A4BAD
:104C7000044A1A60094B044A1A600837BD4680BDD1
:104C800020A3FF1F84A3FF1F98A3FF1FB4A3FF1F30
:104C9000C8A3FF1FE0A3FF1FACA3FF1FB0A3FF1F0C
:104CA00080B582B000AF28E001F00CF8164B1B680D
:104CB000002B14BF00230123DBB27B6001F010F84E
:104CC0007B68002B19D101F0B7F80F4BDB68DB686C
:104CD0003B603B680433184601F03CFC0B4B1B68FF
:104CE0005A1E0A4B1A600A4B1B685A1E084B1A6060
:104CF00001F0D0F8386800F00DF8054B1B68002B68
:104D0000D2D10837BD4680BDC8A3FF1FF4A3FF1F43
:104D1000DCA3FF1F80B582B000AF78607B681B6B9F
:104D2000184602F031FE786802F02EFE0837BD46C4
:104D300080BD00BF80B483B000AF0E4B1B681B6802
:104D4000002B01D1012300E00023002B04D00A4BEB
:104D50004FF0FF321A6008E0064B1B68DB68DB6827
:104D60007B607B685A68044B1A600C37BD465DF85F
:104D7000047B7047ACA3FF1F14A4FF1F80B483B053
:104D800000AF054B1B687B607B6818460C37BD463F
:104D90005DF8047B704700BF1CA3FF1F80B483B085
:104DA00000AF0B4B1B68002B02D101237B6008E096
:104DB000084B1B68002B02D102237B6001E000231B
:104DC0007B607B6818460C37BD465DF8047B7047F6
:104DD00000A4FF1F1CA4FF1F80B584B000AF786043
:104DE0007B68FB607B68002B62D0FB68DA6A324B21
:104DF0001B68DB6A9A425BD2FB689B69002B06DB6F
:104E00002D4B1B68DB6AC3F10502FB689A61FB68E6
:104E10005969FB68DA6A13469B0013449B00274AD2
:104E20001344994201D1012300E00023002B3AD022
:104E3000FB680433184601F08DFB0346002B15D1A7
:104E4000FB68DA6A1D4913469B0013449B000B4420
:104E50001B68002B0AD1FB68DB6A012202FA03F30C
:104E6000DA43174B1B681A40154B1A60124B1B682C
:104E7000DA6AFB68DA62FB68DB6A01229A40104B4F
:104E80001B681A430E4B1A60FB68DA6A13469B00D4
:104E900013449B00094A1A44FB6804331046194620
:104EA00001F0FCFA04E0044B1B68DA6AFB68DA6282
:104EB0001037BD4680BD00BF1CA3FF1F20A3FF1FEE
:104EC000FCA3FF1F80B586B000AF78607B683B61B4
:104ED00000237B617B68002B6CD0394B1B683A69DF
:104EE0009A4209D04FF0500383F31188BFF36F8FBC
:104EF000BFF34F8FFB60FEE73B69DB6C002B09D1F2
:104F00004FF0500383F31188BFF36F8FBFF34F8FC0
:104F1000BB60FEE73B69DB6C5A1E3B69DA643B69A8
:104F2000DA6A3B699B6C9A4244D03B69DB6C002B8C
:104F300040D13B690433184601F00CFB0346002BBB
:104F400015D13B69DA6A1F4913469B0013449B0045
:104F50000B441B68002B0AD13B69DB6A012202FA71
:104F600003F3DA43184B1B681A40174B1A603B696E
:104F70009A6C3B69DA623B69DB6AC3F105023B6903
:104F80009A613B69DB6A01229A400F4B1B681A4306
:104F90000D4B1A603B69DA6A13469B0013449B0071
:104FA000084A1A443B6904331046194601F076FA60
:104FB00001237B617B6918461837BD4680BD00BF61
:104FC0001CA3FF1F20A3FF1FFCA3FF1F80B483B0FF
:104FD00000AF094B1B689B697B60074B1B68064A47
:104FE0001268D26AC2F105029A617B6818460C37D2
:104FF000BD465DF8047B70471CA3FF1F80B400AF63
:10500000074B1B68002B04D0054B1B68DA6C013280
:10501000DA64034B1B681846BD465DF8047B704795
:105020001CA3FF1F80B584B000AF78603960284BA7
:105030001B68FB60274B1B680433184601F08AFA93
:105040000346002B0BD1234B1B68DB6A012202FABB
:1050500003F3DA43204B1B681A401F4B1A607B682E
:10506000B3F1FF3F0AD13B68002B07D0194B1B68F7
:1050700004331A48194601F011FA26E0FA687B68F1
:105080001344BB60134B1B68BA685A60BA68FB686C
:105090009A4209D2124B1A680E4B1B680433104611
:1050A000194601F01FFA10E00E4B1A68094B1B68F5
:1050B00004331046194601F015FA0B4B1B68BA6809
:1050C0009A4202D2084BBA681A601037BD4680BDBA
:1050D000F8A3FF1F1CA3FF1FFCA3FF1FE0A3FF1FDC
:1050E000B0A3FF1FACA3FF1F14A4FF1F80B584B0A3
:1050F00002AF00237B60FEF797FF114B1B68002B6C
:105100000BD0022300930F4B01930F480F494FF42C
:105110009672002300F06EFA78607B68002B09D14C
:105120004FF0500383F31188BFF36F8FBFF34F8F9E
:105130003B60FEE77B6818460837BD4680BD00BF70
:1051400050A4FF1F54A4FF1F7552000004D000009C
:1051500080B58AB000AFF860B9607A603B60002328
:105160007B62FB68002B09D14FF0500383F3118859
:10517000BFF36F8FBFF34F8F3B62FEE71C4B1B6883
:10518000002B30D0BB683B617B687B61FB68BB61F7
:10519000BB68052B1CDCFFF701FE0346022B0BD17D
:1051A000134B1A6807F11003104619463A6B002397
:1051B00001F0EEFA786216E00D4B1A6807F1100361
:1051C000104619460022002301F0E2FA78620AE054
:1051D000074B1A6807F11003104619463A68002376
:1051E00001F0D4FB78627B6A18462837BD4680BD43
:1051F00050A4FF1F80B588B002AF786039601C4BA7
:105200001B68DB68DB687B617B690433184601F04F
:10521000A1F97B69DB69012B22D17B699A697B68E3
:105220001344786919463A687B68FEF7ADFD03467A
:10523000002B15D000230093786900217A680023A1
:10524000FFF786FF38613B69002B09D14FF050030F
:1052500083F31188BFF36F8FBFF34F8FFB60FEE7BF
:105260007B695B6A786998471837BD4680BD00BF87
:1052700048A4FF1F80B584B000AF786007F1080331
:105280001846FEF73DFDF860BB68F8681946FEF762
:10529000E9FCFEF7BBFDF1E780B584B000AF7860B4
:1052A0007B68FB60FB68002B09D14FF0500383F350
:1052B0001188BFF36F8FBFF34F8FBB60FEE7F868B5
:1052C00000F03AF9F86802F05FFB1037BD4680BD88
:1052D00080B586B000AFF860B9607A6000237B616A
:1052E000FB689B6B3B61FB681B6C002B0DD1FB6863
:1052F0001B68002B4FD1FB685B681846FFF7E2FD87
:105300007861FB6800225A6045E07B68002B1AD167
:10531000FB689A68FB681B6C1046B9681A4605F072
:10532000E1FCFB689A68FB681B6C1A44FB689A6096
:10533000FB689A68FB685B689A422CD3FB681A6822
:10534000FB689A6027E0FB68DA68FB681B6C104614
:10535000B9681A4605F0C6FCFB68DA68FB681B6C86
:105360005B421A44FB68DA60FB68DA68FB681B681A
:105370009A4207D2FB685A68FB681B6C5B421A446E
:10538000FB68DA607B68022B05D13B69002B02D0F9
:105390003B69013B3B613B695A1CFB689A637B6933
:1053A00018461837BD4680BD80B582B000AF786022
:1053B00039607B681B6C002B19D07B68DA687B68CE
:1053C0001B6C1A447B68DA607B68DA687B685B6810
:1053D0009A4203D37B681A687B68DA607B68DA6874
:1053E0007B681B6C386811461A4605F07BFC083751
:1053F000BD4680BD80B584B000AF786000F01CFD74
:105400007B6893F84530FB7310E07B685B6A002B88
:1054100010D07B6824331846FFF798FA0346002B18
:1054200001D0FFF7DBFBFB7B013BFB7397F90F30F0
:10543000002BEADC7B68FF2283F8452000F02AFD80
:1054400000F0FAFC7B6893F84430BB7310E07B6893
:105450001B69002B10D07B6810331846FFF776FAD3
:105460000346002B01D0FFF7B9FBBB7B013BBB73AD
:1054700097F90E30002BEADC7B68FF2283F844208A
:1054800000F008FD1037BD4680BD00BF80B584B078
:1054900000AF786000F0D0FC7B689B6B002B02D1E2
:1054A0000123FB6001E00023FB6000F0F3FCFB68DC
:1054B00018461037BD4680BD80B584B000AF786017
:1054C00000F0BAFC7B689A6B7B68DB6B9A4202D176
:1054D0000123FB6001E00023FB6000F0DBFCFB68C4
:1054E00018461037BD4680BD80B485B000AF7860E7
:1054F00039600023FB6014E00E4BFA6853F8323039
:10550000002B0BD10B4BFA68396843F83210094A6B
:10551000FB68DB0013447A685A6005E0FB680133DE
:10552000FB60FB68072BE7D91437BD465DF8047BA9
:10553000704700BFDCA2FF1F80B485B000AF786069
:105540000023FB6016E00F4AFB68DB0013445A6837
:105550007B689A420BD10B4BFA68002143F832105A
:10556000084AFB68DB00134400225A6005E0FB6830
:105570000133FB60FB68072BE5D91437BD465DF8A6
:10558000047B7047DCA2FF1F80B586B000AFF860D7
:10559000B9607A60FB687B6100F04EFC7B6993F830
:1055A0004430DBB25BB2B3F1FF3F03D17B69002231
:1055B00083F844207B6993F84530DBB25BB2B3F1EA
:1055C000FF3F03D17B69002283F8452000F062FC95
:1055D0007B699B6B002B06D17B6924331846B96825
:1055E0007A68FFF789F97869FFF704FF1837BD4635
:1055F00080BD00BF80B58CB004AFF860B9603B607F
:105600001346FB80FB889B00184602F0FBF878618C
:105610007B69002B0ED06C2002F0F4F8F861FB6976
:10562000002B03D0FB697A691A6305E0786902F000
:10563000ABF901E00023FB61FB69002B14D0FB8870
:10564000BA6A0092FA6A0192FA69029200220392FF
:10565000F868B9681A463B6800F00EF8F86900F07F
:105660009DF80123BB6102E04FF0FF33BB61BB69D2
:1056700018462037BD4680BD80B588B000AFF860C1
:10568000B9607A603B603B6B1A6B7B689B0010468D
:10569000A5211A4605F078FB3B6B1A6B7B6803F17A
:1056A0008043013B9B001344BB61BB6923F00703AC
:1056B000BB61BB6903F00703002B09D04FF0500317
:1056C00083F31188BFF36F8FBFF34F8F7B61FEE7CA
:1056D0000023FB6111E0BA68FB6913441A78396B47
:1056E000FB690B4430331A71BA68FB6913441B78A9
:1056F000002B05D0FB690133FB61FB69092BEAD95B
:105700003B6B002283F83D20BB6A042B01D90423A4
:10571000BB623B6BBA6ADA623B6BBA6A9A643B6BF8
:105720000022DA643B6B0433184600F0ABFE3B6B9F
:105730001833184600F0A6FE3B6B3A6B1A61BB6A41
:10574000C3F105023B6B9A613B6B3A6B5A620023D3
:10575000FB6108E03B6BFA691432002143F8221028
:10576000FB690133FB61FB69042BF3D93B6B00221E
:105770005A663B6B002283F86820B869F9683A687A
:1057800002F034FA02463B6B1A60FB6A002B02D02F
:10579000FB6A3A6B1A602037BD4680BD80B582B087
:1057A00000AF786000F048FB2C4B1B685A1C2B4B59
:1057B0001A602B4B1B68002B09D1294B7A681A60A1
:1057C000264B1B68012B10D1FFF72CFA0DE0254B5F
:1057D0001B68002B09D1224B1B68DA6A7B68DB6AE5
:1057E0009A4202D81E4B7A681A601F4B1B685A1CDB
:1057F0001D4B1A601C4B1A687B681A647B68DB6A55
:1058000001229A40194B1B681A43184B1A607B6897
:10581000DA6A13469B0013449B00154A1A447B68BE
:1058200004331046194600F039FE00F033FB0D4BEF
:105830001B68002B0ED00A4B1B68DA6A7B68DB6A98
:105840009A4207D20B4B4FF080521A60BFF34F8F32
:10585000BFF36F8F0837BD4680BD00BFF4A3FF1FA5
:105860001CA3FF1F00A4FF1F10A4FF1FFCA3FF1F0A
:1058700020A3FF1F04ED00E080B584B000AF786086
:1058800000F0DAFA7B68002B02D1384B1B6800E08D
:105890007B68FB60FB680433184600F05BFE034640
:1058A000002B15D1FB68DA6A314913469B0013447B
:1058B0009B000B441B68002B0AD1FB68DB6A0122AA
:1058C00002FA03F3DA432B4B1B681A40294B1A6088
:1058D000FB689B6A002B04D0FB681833184600F065
:1058E00039FE254B1B685A1C234B1A601F4B1B6843
:1058F000FA689A420BD1FB6804332048194600F03D
:10590000CDFD1F4B1B685A1C1D4B1A6009E01D4B37
:105910001B685A1E1B4B1A60F868FFF7FBF9FFF76C
:1059200009FA00F0B7FA184B1B68002B1AD00F4B7E
:105930001B68FA689A4215D1144B1B68002B09D0DA
:105940004FF0500383F31188BFF36F8FBFF34F8F76
:10595000BB60FEE70E4B4FF080521A60BFF34F8FD3
:10596000BFF36F8F1037BD4680BD00BF1CA3FF1F64
:1059700020A3FF1FFCA3FF1F10A4FF1FC8A3FF1F2E
:10598000DCA3FF1FF4A3FF1F00A4FF1F1CA4FF1F25
:1059900004ED00E080B584B000AF78600023FB60C8
:1059A0007B68002B16D0124B1B68002B09D04FF0E0
:1059B000500383F31188BFF36F8FBFF34F8FBB602A
:1059C000FEE700F07FF978680021FFF72BFB00F07D
:1059D00087F9F860FB68002B07D1064B4FF0805227
:1059E0001A60BFF34F8FBFF36F8F1037BD4680BD76
:1059F0001CA4FF1F04ED00E080B584B000AF786008
:105A000000F01AFA7B68002B02D1364B1B6800E0CD
:105A10007B68FB60FB680433184600F09BFD03467F
:105A2000002B15D1FB68DA6A2F4913469B001344FB
:105A30009B000B441B68002B0AD1FB68DB6A012228
:105A400002FA03F3DA43294B1B681A40274B1A600A
:105A5000FB689B6A002B04D0FB681833184600F0E3
:105A600079FDFB6804332248194600F017FD00F069
:105A700011FA204B1B68002B05D000F0DDF9FFF771
:105A800059F900F007FA174B1B68FA689A4226D1B9
:105A9000184B1B68002B16D0174B1B68002B09D026
:105AA0004FF0500383F31188BFF36F8FBFF34F8F15
:105AB000BB60FEE7114B4FF080521A60BFF34F8F6F
:105AC000BFF36F8F0BE00A4B1A680D4B1B689A42AD
:105AD00003D1044B00221A6001E0FEF757FE103795
:105AE000BD4680BD1CA3FF1F20A3FF1FFCA3FF1FFB
:105AF000E0A3FF1F00A4FF1F1CA4FF1F04ED00E094
:105B0000F4A3FF1F80B487B000AF786000237B61EF
:105B10007B683B617B68002B09D14FF0500383F316
:105B20001188BFF36F8FBFF34F8FFB60FEE73B69B8
:105B30005A690F4B9A4201D1012300E00023002B48
:105B40000FD03B699A6A0B4B9A420AD03B699B6A19
:105B5000002B01D1012300E00023002B01D0012301
:105B60007B617B6918461C37BD465DF8047B704736
:105B7000E0A3FF1FB4A3FF1F80B584B000AF78601F
:105B80007B68FB607B68002B09D14FF0500383F3E7
:105B90001188BFF36F8FBFF34F8FBB60FEE7FB68C9
:105BA000002B39D01E4B1B68FA689A4234D000F0A3
:105BB00043F9F868FFF7A6FF0346002B2AD0FB68DD
:105BC0000433184600F0C6FCFB68DB6A01229A40E9
:105BD000144B1B681A43134B1A60FB68DA6A1346AE
:105BE0009B0013449B00104A1A44FB680433104680
:105BF000194600F053FCFB68DA6A094B1B68DB6A44
:105C00009A4207D3094B4FF080521A60BFF34F8F6F
:105C1000BFF36F8F00F03EF91037BD4680BD00BF67
:105C20001CA3FF1FFCA3FF1F20A3FF1F04ED00E028
:105C300080B586B002AF002300931C4B01931C4833
:105C40001C4996220023FFF7D5FCF860FB68012B66
:105C500002D1FFF74BFAF860FB68012B15D14FF02A
:105C6000500383F31188BFF36F8FBFF34F8FBB6077
:105C7000114B4FF0FF321A60104B01221A60104B8B
:105C800000221A6002F02CF80DE0FB68B3F1FF3F30
:105C900009D14FF0500383F31188BFF36F8FBFF327
:105CA0004F8F7B60FEE71037BD4680BD18A4FF1FF5
:105CB000F54B00000CD0000014A4FF1F00A4FF1F30
:105CC000F8A3FF1F80B400AF044B1B685A1C034BA2
:105CD0001A60BD465DF8047B704700BF1CA4FF1F1F
:105CE00080B584B000AF0023FB600023BB60414B54
