:1000000000000320D90400002105000025050000A0
:100010001D0500001D0500001D050000000000007A
:10002000000000000000000000000000515F000020
:100030001D05000000000000D14A0000414B0000F7
:1000400035050000390500003D05000041050000B0
:1000500045050000490500004D0500005105000060
:1000600055050000590500005D0500006105000010
:1000700065050000690500006D05000071050000C0
:10008000750500001D0500001D0500001D05000090
:100090001D0500001D0500001D0500001D050000D8
:1000A000790500007D050000810500008505000040
:1000B000890500008D0500009105000095050000F0
:1000C000990500009D050000A1050000A5050000A0
:1000D000A9050000AD050000B10500001D050000E8
:1000E0001D0500001D0500001D0500001D05000088
:1000F0001D0500001D0500001D0500001D05000078
:100100001D0500001D0500001D0500001D05000067
:100110001D0500001D0500001D0500001D05000057
:100120001D0500001D0500001D0500001D05000047
:100130001D0500001D0500001D0500001D05000037
:100140001D050000B5050000B9050000BD05000053
:10015000C1050000C50500001D0500001D050000CB
:100160001D0500001D050000C9050000CD050000AB
:10017000D1050000D5050000D9050000DD0500000F
:10018000E1050000E5050000E9050000112100007F
:1001900031210000512100001D0500001D05000057
:1001A0001D0500001D0500001D0500001D050000C7
:1001B0001D0500001D0500001D0500001D050000B7
:1001C0001D0500001D0500001D0500001D050000A7
:1001D0001D0500001D0500001D0500001D05000097
:1003F0001D0500001D0500001D050000FFFFFFFF9B
:10040000FFFFFFFFFFFFFFFFFFFFFFFFFEFFFFFFFD
:1004100010B5054C237833B9044B13B10448AFF33E
:1004200000800123237010BD9000FF1F000000001A
:100430006C79000008B5064B1BB106480649AFF3BE
:1004400000800648036813B1054B03B1984708BD07
:10045000000000006C7900009400FF1F8C00FF1F5B
:1004600000000000154B002B08BF134B9D46A3F561
:10047000803A00218B460F461348144A121A06F0A0
:1004800087F90F4B002B00D098470E4B002B00D064
:1004900098470020002104000D000D48002802D0DC
:1004A0000C48AFF3008006F04DF92000290005F05C
:1004B000E5FA06F033F900BF000008000000032051
:1004C00000000000000000009000FF1F002CFF1F34
:1004D000000000000000000072B6094809490160F0
:1004E0000948804709490A4A0A4B9A42BEBF51F857
:1004F000040B42F8040BF8E762B607488047000097
:1005000008ED00E000000000D158000094790000E0
:100510000000FF1F9000FF1F65040000FFF7FEBFF3
:1005200035480047354800473548004735480047BB
:1005300035480047354800473548004735480047AB
:10054000354800473548004735480047354800479B
:10055000354800473548004735480047354800478B
:10056000354800473548004735480047354800477B
:10057000354800473548004735480047354800476B
:10058000354800473548004735480047354800475B
:10059000354800473548004735480047354800474B
:1005A000354800473548004735480047354800473B
:1005B000354800473548004735480047354800472B
:1005C000354800473548004735480047354800471B
:1005D0003448004733480047324800473148004715
:1005E000304800473048004730480047304800470F
:1005F000304800473048004721050000250500002D
:10060000515F0000D14A0000414B00007121000001
:100610008521000099210000AD210000C1210000CA
:10062000D5210000E9210000FD2100001122000079
:1006300025220000392200004D2200006122000026
:1006400075220000892200009D2200001D05000087
:1006500029200000452000004924000085240000D6
:10066000A11F0000E51F00001D050000F11700009C
:100670001D0500001D1800001D05000049180000A0
:100680001D050000751800001D050000C1240000B4
:10069000A11800001D050000CD1800001D05000078
:1006A00061200000CD200000D91800001D050000C9
:1006B0001D0500001D0500001D05000080B483B06D
:1006C00000AF78600B46FB70FB78002B08D07B688E
:1006D000DB78DBB243F00803DAB27B68DA7007E05C
:1006E0007B68DB78DBB223F00803DAB27B68DA7070
:1006F0000C37BD465DF8047B704700BF80B483B003
:1007000000AF78600B46FB70FB78002B08D07B684D
:10071000DB78DBB243F00403DAB27B68DA7007E01F
:100720007B68DB78DBB223F00403DAB27B68DA7033
:100730000C37BD465DF8047B704700BF80B588B0BC
:1007400000AFF860B9607A603B603B68BB61002332
:100750007B610023FB617A6840F2EB339A420AD155
:10076000BB69DA6907F11403104601211A4604F047
:100770004DFCF86131E07A6840F2EA339A420AD1DE
:10078000BB691A6A07F11403104601211A4604F0E6
:100790003DFCF86121E07B68B3F57C7F0AD1BB6941
:1007A000DA6907F11403104602211A4604F02EFC00
:1007B000F86112E07A6840F2F1339A420DD1F8689C
:1007C000082100F0DFFABB69DA6907F1140310466B
:1007D00004211A4604F01AFCF861FB69002B0AD0C8
:1007E0007B69002B07D0054B4FF080521A60BFF396
:1007F0004F8FBFF36F8F2037BD4680BD04ED00E003
:1008000080B588B000AFF860B9607A60FB68002BF3
:1008100001D10423A8E0BB68002B01D10423A3E08D
:100820007B68002B01D104239EE07B681B68002BB2
:1008300001D1042398E07B685B68002B01D104237D
:1008400092E07B689B68002B01D104238CE07B68DD
:100850001A68FB681A60FB68BA685A62012004F0E3
:1008600077FD0246FB689A61FB689B69002B01D10A
:10087000012379E0012004F06BFD0246FB685A6118
:10088000FB685B69002B06D1FB689B69184603F087
:100890004DFC012368E004F0B9F90246FB681A62D6
:1008A000FB681B6A002B0BD1FB685B69184603F0E1
:1008B0003DFCFB689B69184603F038FC012353E0BC
:1008C00004F0A4F90246FB68DA61FB68DB69002BDF
:1008D00010D1FB68DB69184604F03AFBFB685B69E2
:1008E000184603F023FCFB689B69184603F01EFCC6
:1008F000012339E007F11403184601F087FA7B68F9
:100900009B687B617B681B7B3B767B685B7B7B7634
:10091000FB6819687B685B6807F11402084611469A
:100920001A4601F0E5F8FB681A68FB685B6A104636
:1009300019460F4AFB6800F02DFBFB681868FB683E
:10094000596A7B681A697B685B6900F06FFBFB681A
:100950001B6818460121FFF7B1FEFB681B681846AB
:100960000121FFF7CBFE002318462037BD4680BD8E
:100970003D07000080B582B000AF78607B681B68DF
:10098000184601F021FA7B681B6A184604F0E0FA69
:100990007B68DB69184604F0DBFA7B689B691846C4
:1009A00000210022002304F0EBFC7B685B69184601
:1009B00000210022002304F0E3FC7B689B691846B9
:1009C00003F0B4FB7B685B69184603F0AFFB7B6800
:1009D00000221A607B6800225A62002318460837FA
:1009E000BD4680BD80B588B002AFF860B9607A605E
:1009F00000237B61FB681B68002B01D1012348E0C9
:100A00007B68002B01D1002343E0BB68002B01D1A0
:100A100004233EE0FB689B69184600210022002366
:100A200004F040FE0346002B01D1012331E0FB68B6
:100A3000BA685A60FB687A689A60FB681968FB6854
:100A40005A6AFB680433084611461A4600F032FB26
:100A5000FB681B6A4FF0FF32009218460121012209
:100A6000002304F0EBF838613B6903F00103002B2D
:100A700001D101237B61FB689B691846002100229C
:100A8000002304F07DFC0346002B01D101237B6190
:100A90007B6918461837BD4680BD00BF80B58AB057
:100AA00002AFF860B9607A603B6000233B610123CC
:100AB000FB610023BB61FB681B68002B01D1012394
:100AC00089E07B68002B07D13B68002B02D03A6994
:100AD0003B681A6000237EE0BB68002B01D1042331
:100AE00079E0FB685B69184600214FF0FF32002374
:100AF00004F0D8FD0346002B01D101236BE0FB6815
:100B0000BA68DA60FB687A681A61FB681868FB6883
:100B1000596AFB6803F10C0207F1100300F02CFB8B
:100B2000FB68DB694FF0FF32009218460721012273
:100B3000002304F083F878617B6903F00403002B41
:100B400013D0FB681A68FB685B6A1046194600F010
:100B5000FFFBFB68DB691846012104F039F940F21C
:100B6000F133FB610023BB6121E07B6903F00203E9
:100B7000002B13D0FB681A68FB685B6A10461946A5
:100B800000F0E6FBFB68DB691846012104F020F960
:100B90004FF47C73FB610023BB6108E07B6903F0C9
:100BA0000103002B03D00023FB617B68BB613B6822
:100BB000002B02D03B68BA691A60FB685B69184673
:100BC00000210022002304F0DBFB0346002B01D1AF
:100BD0000123FB61FB6918462037BD4680BD00BF7D
:100BE00080B582B000AF02F0ADFB786004484FF4EE
:100BF000E13101227B6805F09FFA0837BD4680BDD0
:100C000000A0064080B400AF054B03F582530433C7
:100C10004FF092721A60BD465DF8047B704700BFCA
:100C20000070044080B483B000AF7860034B7A68F2
:100C30001A600C37BD465DF8047B7047002BFF1F20
:100C400080B584B000AF134A07F10C031188927885
:100C500019809A70104A3B1D92E8030083E8030054
:100C6000FFF7D0FF00F01EF807F10C030020002171
:100C70001A4601F065FC02200021002201F0CCFDA3
:100C80003B1D184601F094FC044B054A1A601037CE
:100C9000BD4680BD54690000586900000000FF1F78
:100CA000000E270780B582B000AF084A3B4692E8A5
:100CB000030083E803003B46184601F075FE044834
:100CC000FFF7B0FF0837BD4680BD00BF6069000078
:100CD00080F0FA0280B485B000AF78607B681B0CAE
:100CE00003F1804303F58E23FB60FB68FA6811680B
:100CF0007A6892B2012000FA02F20A431A601437AD
:100D0000BD465DF8047B704780B485B000AFF860E5
:100D1000B9601346FB71FB68BA6853F8223023F4BC
:100D2000E062FB791B0203F4E06342EA0301FB6823
:100D3000BA6843F822101437BD465DF8047B70474B
:100D400080B500AF0C48FFF7C5FF0C481021032207
:100D5000FFF7DAFF094811210322FFF7D5FF084901
:100D6000074B03F5805310331B6823F0030201F592
:100D7000805310331A6080BD0A00381000A0044070
:100D80000070044080B584B000AF786039607B6843
:100D90005B79FB72FB7A03F03F03FB723B681B0A33
:100DA000DAB2FB7A1343DAB27B685A713B681B0EE6
:100DB000DAB27B689A743B6803F01703002B03D008
:100DC0007B681B797B68DB793B6803F00803002BA9
:100DD0000BD07B681B797B68DB797B685B7CDBB243
:100DE00043F04003DAB27B685A74786801F0B4F8D3
:100DF00002463B681340002B03D040F2EE33FB6009
:100E000001E00023FB60FB6818461037BD4680BD3B
:100E100080B485B000AFF860B9607A600CE0FB6820
:100E20001B79DBB2DBB25BB2002BF8DABB685A1C71
:100E3000BA601A78FB68DA717B685A1E7A60002BF8
:100E4000EDD11437BD465DF8047B704780B586B0A0
:100E500000AFF860B9607A60BB68002B06D10D481E
:100E600040F22E210C4A0D4B01F048FB00237B6120
:100E700008E0BA687B6913441A78FB68DA717B6909
:100E800001337B617A697B689A42F2D31837BD4699
:100E900080BD00BF686900007078000080690000B4
:100EA00080B586B000AFF860B9607A60BB68002B8F
:100EB00036D120484FF40F711F4A204B01F01EFB22
:100EC000F86801F049F878617B6903F00803002BAA
:100ED00002D040F2F13329E07B6903F00403002BD8
:100EE00002D040F2F23321E07B6903F00203002BD1
:100EF00002D040F2F33319E07B6903F00103002BC9
:100F000002D04FF47D7311E0FB689B7DDBB2002BB8
:100F1000D6D0BB685A1CBA60FA68D279D2B21A70BD
:100F20007B685A1E7A60002BEED1002318461837D2
:100F3000BD4680BD686900008878000080690000B7
:100F400080B586B000AFF860B9607A60BB68002BEE
:100F500006D10D4840F266210C4A0D4B01F0CEFA45
:100F600000237B6109E0BA687B691344FA68D2798F
:100F7000D2B21A707B6901337B617A697B689A42CD
:100F8000F1D31837BD4680BD686900009C78000029
:100F90008069000080B586B000AFF860B9607A6003
:100FA0003B60BB68002B06D1194840F27721194AF3
:100FB000194B01F0A3FAB8680021302205F0E8FBD4
:100FC000BB68022283F82D20BB68002283F82C2006
:100FD000BB687A685A62BB683A689A62FB68012209
:100FE0005A75F86800F0FAFC78610C4B7A69B968B8
:100FF00043F822100A4B0B4A1A600B4A7B691344D0
:101000001B785BB2184600F0D7FC1837BD4680BD90
:1010100068690000B478000088690000A02BFF1FF9
:10102000B82BFF1FBD130000D477000080B584B03B
:1010300000AFF860B9607A603B60BB68002B06D1F6
:10104000184840F29F21184A184B01F057FA7B6864
:10105000002B06D113484FF42871134A144B01F0AA
:101060004DFABB687A689A61BB683A68DA61BB6816
:1010700000221A84BB6800225A84F8684FF42221A7
:1010800000F0F2FEFB689B78DBB203F00203DBB2F8
:10109000002B04D0F8684FF4803100F0E5FE1037E3
:1010A000BD4680BD68690000D078000088690000F6
:1010B0009069000080B586B000AFF860B9607A60D2
:1010C000BB68002B06D1264840F2C921254A264B91
:1010D00001F014FA7B68002B06D1214840F2CA21A6
:1010E000204A224B01F00AFA7B685B68002B06D18C
:1010F0001B4840F2CB211B4A1D4B01F0FFF97B68D6
:101100001B68002B06D116484FF43371154A194B52
:1011100001F0F4F9BB6893F82C30DBB2012B03D15A
:101120004FF47A737B6116E07B681A68BB681A60BB
:101130007B685A68BB685A607B685A68BB689A606B
:10114000BB68012283F82C20F8684FF4004100F0BE
:101150008BFE00237B617B6918461837BD4680BD36
:1011600068690000F0780000886900009C69000050
:10117000A4690000B469000090B58BB000AFF860BE
:10118000B9607A603B60BB68002B06D16A4840F2C8
:1011900003316A4A6A4B01F0B1F97B68002B06D132
:1011A00065484FF44171654A664B01F0A7F97B68C9
:1011B0001B68002B06D1604840F205315F4A624B44
:1011C00001F09CF97B685B68002B06D15A4840F21D
:1011D00006315A4A5D4B01F091F900237B61BB68EF
:1011E00093F82D30DBB2032B03D140F2E9333B629D
:1011F0009CE07B685B68FB610023BB61BB689B690B
:10120000002B69D0F8684FF4005100F065FEB86813
:1012100000F012FC78617B69002B34D07A69FB699D
:101220009A4238BF13467B61FA697B69D31AFB6126
:1012300000237B6223E07B681A68BB69591CB96193
:101240001344BA689169BA68528C92B20A4412780F
:101250001A70BB685B8C9BB25A1CBB68DB699A42F4
:1012600003D1BB6800225A8406E0BB685B8C9BB24A
:1012700001339AB2BB685A847B6A01337B627A6A13
:101280007B699A42D7D3FB69002B0FD07B681A6821
:10129000BB691A44BB68DA60BB68FA691A61BB684B
:1012A000FA695A61BB68032283F82D20F8684FF46D
:1012B000005100F0D9FDFB69002B2FD1BB685B6AA0
:1012C000002B2BD0BB685C6ABB689B6AF868B96866
:1012D00040F2EB32A04721E07B681A68BB691A44F0
:1012E000BB68DA60BB68FA691A61BB68FA695A615F
:1012F000BB68032283F82D20F8684FF4222100F008
:10130000B3FDFB689B78DBB203F00203DBB2002B7A
:1013100004D0F8684FF4803100F0A6FD3B68002B44
:1013200002D03B68BA691A6000233B623B6A1846E8
:101330002C37BD4690BD00BF6869000010790000E1
:10134000886900009C690000B4690000A46900007D
:1013500080B582B000AF786039603B68002B06D161
:10136000134840F27A31134A134B01F0C7F83B6837
:101370009B69002B11D178684FF4222100F0ACFD5D
:101380007B689B78DBB203F00203DBB2002B04D056
:1013900078684FF4803100F09FFD3B6800221A61AD
:1013A0003B68022283F82D200837BD4680BD00BF70
:1013B00068690000307900008869000090B585B048
:1013C00000AF786039603B68002B06D1994840F245
:1013D000A331994A994B01F091F87B681B79DBB2F4
:1013E00003F00203DBB2002B02D124E07B68DB793F
:1013F0007B681B79DBB203F02003002BF6D17B68FE
:101400005B7CDBB243F04003DAB27B685A743B6822
:10141000042283F82D203B6800221A613B685B6A36
:10142000002B08D03B685C6A3B689B6A7868396827
:1014300040F2F332A0477B681B79DBB203F0010373
:10144000DBB2002B02D124E07B68DB797B681B795F
:10145000DBB203F02003002BF6D17B685B7CDBB2B0
:1014600043F04003DAB27B685A743B68052283F884
:101470002D203B6800221A613B685B6A002B08D074
:101480003B685C6A3B689B6A786839684FF47D7298
:10149000A0477B681B79DBB203F00803DBB2002BAB
:1014A00002D11DE07B68DB797B681B79DBB203F03E
:1014B0002003002BF6D17B685B7CDBB243F040035A
:1014C000DAB27B685A743B685B6A002B08D03B68D1
:1014D0005C6A3B689B6A7868396840F2F132A047E1
:1014E0007B681B79DBB203F02003DBB2002B00F03A
:1014F000BD807B68DB78DBB203F02003DBB2002B1E
:1015000000F0B4807B689B7DFB7337E03B681A6911
:10151000FB7B9A4203D23B681B69DBB200E0FB7B9A
:10152000BB733B68DA68BB7B786811461A46FFF7E5
:1015300007FD3B68DA68BB7B1A443B68DA603B68AE
:101540001A69BB7BD21A3B681A61FA7BBB7BD31A40
:10155000FB733B681B69002B10D13B68022283F8A8
:101560002D203B685B6A002B08D03B685C6A3B68B7
:101570009B6A7868396840F2EB32A047FB7B002B0E
:1015800003D03B681B69002BC0D13B689B69002BD3
:1015900049D155E0386800F085FA0346002B0CD09D
:1015A0003B685B6A002B08D03B685C6A3B689B6ABF
:1015B000786839684FF47C72A047386800F072FA96
:1015C0000346002B12D03B685B8C9BB25A1C3B68D5
:1015D000DB699A4203D13B6800225A8406E03B68EB
:1015E0005B8C9BB201339AB23B685A843B689A6920
:1015F0003B681B8C9BB213447A68D279D2B21A70C2
:101600003B681B8C9BB25A1C3B68DB699A4203D136
:101610003B6800221A8406E03B681B8C9BB20133B6
:101620009AB23B681A84FB7B5A1EFA73002BB1D125
:101630001CE000BF686900004C7900008869000068
:101640003B681B69002B11D178684FF4222100F010
:1016500043FC7B689B78DBB203F00203DBB2002B18
:1016600004D078684FF4803100F036FC3B6893F882
:101670002D30DBB2042B05D03B6893F82D30DBB264
:10168000052B15D13B689B69002B11D178684FF46D
:10169000222100F021FC7B689B78DBB203F002037F
:1016A000DBB2002B04D078684FF4803100F014FCDA
:1016B0007B681B79DBB2DBB25BB2002B78DA7B682C
:1016C000DB78DBB2DBB25BB2002B71DA7A683A4BC3
:1016D0009A421FD07A68394B9A4219D07A68384BAF
:1016E0009A4213D07A68374B9A420DD07A68364BBB
:1016F0009A4207D07A68354B9A4201D101230AE019
:10170000FF2308E0012306E0012304E0012302E0B7
:10171000082300E008237A68127DD2B29B1AFB737B
:101720003FE03B685A68FB7B9A4203D23B685B68A8
:10173000DBB200E0FB7BBB733B681A68BB7B78685D
:1017400011461A46FFF782FB3B681A68BB7B1A44B6
:101750003B681A603B685A68BB7BD21A3B685A6088
:10176000FA7BBB7BD31AFB733B685B68002B18D1F9
:101770003B68002283F82C207B68DB78DBB203F027
:101780007F03DAB27B68DA703B685B6A002B08D0B3
:101790003B685C6A3B689B6A7868396840F2EA3269
:1017A000A047FB7B002B03D03B685B68002BB8D1C4
:1017B0001437BD4690BD00BF00A0064000B00640F3
:1017C00000C0064000D0064000A00E4000B00E4011
:1017D00080B500AF034B1B68034A126803481146EB
:1017E000984780BDB82BFF1FA02BFF1F00A006400D
:1017F00080B500AFFFF7ECFF80BD00BF80B500AF44
:10180000034B1B68034A526803481146984780BD42
:10181000B82BFF1FA02BFF1F00B0064080B500AF04
:10182000FFF7ECFF80BD00BF80B500AF034B1B6826
:10183000034A926803481146984780BDB82BFF1FA2
:10184000A02BFF1F00C0064080B500AFFFF7ECFFE4
:1018500080BD00BF80B500AF034B1B68034AD26850
:1018600003481146984780BDB82BFF1FA02BFF1FD0
:1018700000D0064080B500AFFFF7ECFF80BD00BF91
:1018800080B500AF034B1B68034A12690348114639
:10189000984780BDB82BFF1FA02BFF1F00A00E4054
:1018A00080B500AFFFF7ECFF80BD00BF80B500AF93
:1018B000034B1B68034A526903481146984780BD91
:1018C000B82BFF1FA02BFF1F00B00E4080B500AF4C
:1018D000FFF7ECFF80BD00BF80B500AF094B1B6870
:1018E000002B06D108484FF4A961084A084B00F0C4
:1018F00005FE084B1B68034A1268074811469847C3
:1019000080BD00BF982BFF1FEC690000A47700008A
:10191000D86B00009C2BFF1F00100B4080B483B0DD
:1019200000AF0346FB71084B97F907205209F9797C
:1019300001F01F01012000FA01F143F822100C37D9
:10194000BD465DF8047B704700E100E080B485B0DF
:1019500000AF78607B681B0C03F1804303F58E2396
:10196000FB60FB68FA6811687A6892B2012000FA9D
:1019700002F20A431A601437BD465DF8047B7047D3
:1019800080B485B000AF78607B681B0C03F18043A6
:1019900003F58E23FB60FB68FA6811687A6892B2DF
:1019A000012000FA02F2D2430A401A601437BD4601
:1019B0005DF8047B704700BF80B582B000AF03467E
:1019C000FB7197F9073013F1800F04D097F90730B6
:1019D0001846FFF7A3FF0837BD4680BD80B584B029
:1019E00000AF78600623BB600023FB6009E00E4B6C
:1019F000FA6853F822207B689A4206D0FB680133CC
:101A0000FB60FA68BB689A42F1D3FA68BB689A42F5
:101A100005D30648A921064A064B00F06FFDFB6876
:101A200018461037BD4680BDBC770000F06B000043
:101A3000F4770000086C000080B584B000AF7860D7
:101A40007B68002B05D11448B021144A144B00F0D8
:101A500055FD7B685B8C9AB27B681B8C9BB29A426B
:101A60000CD97B681B8C9BB21A467B68DB691A44D5
:101A70007B685B8C9BB2D31AFB6008E07B681B8C95
:101A80009BB21A467B685B8C9BB2D31AFB60FB68E7
:101A900018461037BD4680BDF06B00000878000086
:101AA000C46B000080B584B000AF78607B68002B09
:101AB00005D10C48C2210C4A0C4B00F01FFD786880
:101AC000FFF7BAFF02467B68DB69013B9A4202D10D
:101AD0000123FB7301E00023FB73FB7B18461037E7
:101AE000BD4680BDF06B00002C780000C46B000088
:101AF00080B588B000AFF860B9607A60BB68002B31
:101B000005D1A348D421A34AA34B00F0F7FCBB683E
:101B10001B68002B05D19E48D5219E4A9F4B00F0A3
:101B2000EDFCFA689E4B9A4220D0FA689D4B9A428F
:101B30001AD0FA689C4B9A4214D0FA689B4B9A428E
:101B40000ED0FA689A4B9A4208D0FA68994B9A429A
:101B500001D101230BE04FF0FF3308E0012306E041
:101B6000012304E0012302E0082300E00823BA680F
:101B70009279934205DA8648D721864A8E4B00F047
:101B8000BDFCFA68864B9A4220D0FA68854B9A428F
:101B90001AD0FA68844B9A4214D0FA68834B9A425E
:101BA0000ED0FA68824B9A4208D0FA68814B9A426A
:101BB00001D101230BE04FF0FF3308E0012306E0E1
:101BC000012304E0012302E0082300E00823BA68AF
:101BD000D279934205DA6E48D8216E4A774B00F0ED
:101BE0008DFC0023FB8300237B770023BB61BB6854
:101BF0001B681B017A68B2FBF3F3FB83FB8B002BA2
:101C000001D10123FB8300237B617B685A00BB6801
:101C10001B68B2FBF3F39AB2FB8B1946C902CB1ACD
:101C20005B019BB213447B827B685A00FB8B59019A
:101C30007B8A0B44B2FBF3F37B61BB681A687B6958
:101C40009A4204D2BB681B687A69D31A03E0BB6866
:101C50001A687B69D31ABB61BB681A68584BA3FB2F
:101C600002135A0913465B001A44BB699A4202D216
:101C700040F2F53387E0F868FFF7B0FE0246514BBB
:101C800053F822301846FFF761FEFB68DB78DBB2C1
:101C900023F00C03DAB2FB68DA70FB681B78DBB266
:101CA00023F01F03DAB2FB8B1B0A9BB2DBB2134398
:101CB000DAB2FB681A70FB8BDAB2FB685A70FB6809
:101CC0009B7ADBB223F01F03DAB27B8ADBB203F02C
:101CD0001F03DBB21343DAB2FB689A72FB689B788E
:101CE000DBB223F013037B77BB681B79002B07D093
:101CF000BB681A797B7F1343DBB243F010037B7719
:101D0000FB687A7F9A70FB681B78DBB223F02003B4
:101D1000DAB2BB685B795B01DBB203F02003DBB2B4
:101D20001343DAB2FB681A70BB689A79FB68DA74FD
:101D3000BB68DA79FB685A75FB681B7CDBB263F021
:101D40007703DAB2FB681A74FB685B7CDBB263F082
:101D50003F03DAB2FB685A74FB68DB787B77BB68B9
:101D60001B7A002B03D07B7F43F008037B77BB6893
:101D70005B7A002B03D07B7F43F004037B77FB6807
:101D80007A7FDA70002318462037BD4680BD00BF39
:101D9000F06B00004C780000586A0000246C0000D2
:101DA00000A0064000B0064000C0064000D006403B
:101DB00000A00E4000B00E403C6C00007C6C0000A7
:101DC0001F85EB51DC77000080B582B000AF7860F2
:101DD0007B681B7DDBB2002BFAD17B681B79DBB201
:101DE00003F04003002BF8D07B680022DA7078689B
:101DF000FFF7F4FD0246044B53F822301846FFF774
:101E0000BFFD0837BD4680BDDC77000080B582B0DD
:101E100000AF78607B68002B06D1104840F25D115E
:101E20000F4A104B00F06AFB7B684FF4E1321A60F6
:101E30007B6800221A717B6800225A717B6800223D
:101E40009A717B680122DA717B6800221A727B68C2
:101E500000225A720837BD4680BD00BFF06B0000FB
:101E600058780000586A000080B483B000AF7860F2
:101E700039603A68174B13403B607B681B78DAB2D5
:101E80003B68DBB21343DAB27B681A707B68DB789D
:101E9000DAB23B681B0ADBB21343DAB27B68DA7052
:101EA0007B689B79DAB23B681B0CDBB21343DAB276
:101EB0007B689A717B685B7CDAB23B681B0EDBB295
:101EC0001343DAB27B685A740C37BD465DF8047B65
:101ED000704700BFC0F00F0780B483B000AF7860D8
:101EE00039603A681B4B13403B607B681B78DAB261
:101EF0003B68DBB2DB43DBB21340DAB27B681A70BB
:101F00007B68DB78DAB23B681B0ADBB2DB43DBB20F
:101F10001340DAB27B68DA707B689B79DAB23B688F
:101F20001B0CDBB2DB43DBB21340DAB27B689A7185
:101F30007B685B7CDAB23B681B0EDBB2DB43DBB257
:101F40001340DAB27B685A740C37BD465DF8047BE7
:101F5000704700BFC0F00F0780B485B000AF786055
:101F60007B681B79DBB21A467B685B79DBB21B02AC
:101F70001343FB607B681B7BDBB21B04FA681343D3
:101F8000FB607B689B7CDBB21B06FA681343FB603B
:101F9000FB6818461437BD465DF8047B704700BFE8
:101FA00080B500AF094B1B68002B06D1084840F2F2
:101FB0001A41084A084B00F0A1FA084B1B68034A73
:101FC000126807481146984780BD00BF882BFF1F45
:101FD000CC6C00006C770000EC6C0000902BFF1FB5
:101FE00000F0024080B500AF094B5B68002B06D1C2
:101FF00008484FF48461084A084B00F07FFA084B08
:102000001B68034A526807481146984780BD00BFC5
:10201000882BFF1FCC6C000088770000006D00004B
:10202000942BFF1F00F0024080B500AF034B1B68EC
:102030000348194600F022F880BD00BF742BFF1F33
:102040000060064080B500AF034B5B68034819464B
:1020500000F014F880BD00BF742BFF1F0070064015
:1020600080B500AF034B9B680348194600F006F8A3
:1020700080BD00BF742BFF1F00600E4080B582B092
:1020800000AF786039607B68DB78DBB203F0100367
:10209000002B06D17B689B78DBB203F02003002B7A
:1020A00005D0084B1B6878683968984704E0064BF0
:1020B0001B68786839689847BFF34F8F0837BD466B
:1020C00080BD00BF802BFF1F842BFF1F80B500AF9A
:1020D000094B1B68002B06D1084840F21F51084AE3
:1020E000084B00F00BFA084B1B68034A12680748BC
:1020F0001146984780BD00BF6C2BFF1F146D000078
:1021000054770000C86E0000702BFF1F0040024093
:1021100080B500AF034B1B68034A126803481146A1
:10212000984780BD602BFF1F5C2BFF1F00000C40F9
:1021300080B500AF034B1B68034A12680348114681
:10214000984780BD642BFF1F5C2BFF1F00000C40D5
:1021500080B500AF034B1B68034A12680348114661
:10216000984780BD682BFF1F5C2BFF1F00000C40B1
:1021700080B500AF024B1B68184600F099F880BD8F
:102180001C2BFF1F80B500AF024B5B68184600F0A8
:102190008FF880BD1C2BFF1F80B500AF024B9B68E2
:1021A000184600F085F880BD1C2BFF1F80B500AFDE
:1021B000024BDB68184600F07BF880BD1C2BFF1F2C
:1021C00080B500AF024B1B69184600F071F880BD66
:1021D0001C2BFF1F80B500AF024B5B69184600F057
:1021E00067F880BD1C2BFF1F80B500AF024B9B69B9
:1021F000184600F05DF880BD1C2BFF1F80B500AFB6
:10220000024BDB69184600F053F880BD1C2BFF1F02
:1022100080B500AF024B1B6A184600F049F880BD3C
:102220001C2BFF1F80B500AF024B5B6A184600F005
:102230003FF880BD1C2BFF1F80B500AF024B9B6A8F
:10224000184600F035F880BD1C2BFF1F80B500AF8D
:10225000024BDB6A184600F02BF880BD1C2BFF1FD9
:1022600080B500AF024B1B6B184600F021F880BD13
:102270001C2BFF1F80B500AF024B5B6B184600F0B4
:1022800017F880BD1C2BFF1F80B500AF024B9B6B66
:10229000184600F00DF880BD1C2BFF1F80B500AF65
:1022A000024BDB6B184600F003F880BD1C2BFF1FB0
:1022B00090B589B000AF78607B68002B06D150489C
:1022C00040F23A314F4A504B00F018F97B689B6856
:1022D0007A68127CDA777B68DB68002B0DD17B682B
:1022E0001B68002B09D07B681C687B685B6878687A
:1022F000194601220023A0477EE07B689A687B682C
:102300001B7C5B01134403F5805318331B687B610E
:102310007B689A687B681B7C5B01134403F58053E0
:1023200018339B889BB203F08003002B0CBF002363
:102330000123FB747B68DB687A69D31A7B617B6954
:102340005B09FB60FB7C002B02D0FB68FB760EE098
:10235000FB68002B04D0FB68DBB2013BDBB205E07D
:102360007B681B7DDBB2DBB2013BDBB2FB76FA7E26
:102370007B685B7CDBB25BB29A4212D17B68DB7C10
:10238000DAB27B681B7DDBB252B25BB29A4205D1F6
:102390007B68DB7CDBB25BB2FB6113E00023FB619B
:1023A00010E0FA7E7B685B7CDBB25BB2D31AFB6128
:1023B000FB69002B06DA7B681B7DDBB25BB2FA6936
:1023C0001344FB61FA7E7B685A747B68DB7CDBB26A
:1023D000DAB2FB69DBB2D31ADBB2DAB27B68DA7449
:1023E0007B681B68002B07D07B681C687B6859687A
:1023F000FB69FA7C7868A0472437BD4690BD00BFD2
:10240000106F000044770000E46F000080B582B0D8
:1024100000AF78603960786800F084F80346002BDC
:1024200005D0074B1B6878683968984704E0054B6E
:102430001B687868396898470837BD4680BD00BF7B
:10244000142BFF1F182BFF1F80B500AF084B1B6814
:10245000002B06D1074840F25761074A074B00F0AE
:102460004DF8034B1B6806481946FFF7CFFF80BDA8
:10247000082BFF1F30710000FC7600005071000037
:1024800000C0024080B500AF084B5B68002B06D14E
:10249000074840F25F61074A074B00F02FF8034BF3
:1024A0005B6806481946FFF7B1FF80BD082BFF1F88
:1024B00030710000147700006071000000D002400D
:1024C00080B500AF084B9B68002B06D1074840F24F
:1024D0006761074A074B00F011F8034B9B680648F9
:1024E0001946FFF793FF80BD082BFF1F30710000D6
:1024F0002C7700007071000000C00A4080B586B0E3
:1025000002AFF860B9607A603B607B680093044872
:102510003968FA68BB6803F055FE00BEFDE700BFEE
:102520008072000080B483B000AF78607B681B6865
:10253000DB0FDBB218460C37BD465DF8047B7047F5
:1025400080B582B000AF0B463A600246FA71BB71AB
:102550003B68002B06D1124840F25C61114A124BD5
:10256000FFF7CCFFFB79184600F00EF9BB7918464F
:10257000396800F05DFA0D4B0C4A1278D2B202F0C5
:102580003F02D2B21A70094B9B79DBB203F00C0305
:102590009B08032BF7D1002318460837BD4680BDA2
:1025A000C0730000E8760000D873000000400640C9
:1025B00080B582B000AF7860094B7A68526803F545
:1025C000825304331A607B681B78184600F0D8FCED
:1025D0007B685B78184600F0BDFC0837BD4680BDBF
:1025E0000070044080B582B000AF164B9B79DBB21F
:1025F00003F00C039B083B603B68032B1AD801A235
:1026000052F823F01D260000252600002D2600008C
:102610001526000000F07CF878600DE000F014F85A
:10262000786009E000F0A6FD786005E000F0F8FCB5
:10263000786001E000237B607B6818460837BD4660
:1026400080BD00BF0040064080B582B000AF194B8E
:102650005B78DBB203F00203002B06D1154B9B79AC
:10266000DBB203F02003002B01D000231DE000F0BB
:10267000A3FD78607B68002B01D17B6815E00D4BD2
:10268000DB78DBB203F060035B09FB70094BDB789E
:10269000DBB2DB09BB70F978BA78074B49000A4412
:1026A00033F812307A6802FB03F318460837BD4648
:1026B00080BD00BF004006409C76000080B500AFA2
:1026C000064B1B78DBB203F00203002B01D1002381
:1026D00002E000F04FFD0346184680BD0040064072
:1026E00080B582B000AF00F067FD78607B68002B9A
:1026F00008D0FFF777FF0346DA087B689A4201D3D8
:102700007B6800E0002318460837BD4680BD00BF47
:1027100080B582B000AF184B9B79DBB203F0400369
:10272000002B01D1002322E000F05CFD78607B6883
:10273000002B06D1114840F27D21114A114BFFF7C1
:10274000DDFE0D4B1B79DBB203F01F0301337A680A
:10275000B2FBF3F37B60084B5B79DBB203F01F0342
:1027600003F118027B6802FB03F37B607B68184669
:102770000837BD4680BD00BF0040064060750000C0
:10278000AC7600007875000080B485B000AF0346D9
:10279000FB71204B1B7BDBB203F00302FB799A42F7
:1027A00002D00123FB7301E00023FB73194B194A8C
:1027B000127BD2B222F00302D1B2FA7902F0030204
:1027C000D2B20A43D2B21A73FB79002B0DD1114B4E
:1027D0005B78DBB203F00403002B06D00D4B9B7932
:1027E000DBB203F00203002BF8D0FB7B002B09D0F7
:1027F00040F2DC53BB6000E000BFBB685A1EBA6009
:10280000002BF9D1002318461437BD465DF8047B30
:10281000704700BF0040064080B485B000AF13464B
:102820000246FA710A46BA717B713A4B9B79DBB268
:1028300003F00C039B08FB60364B9B79DBB203F083
:102840000103FB72334B1B7ADBB203F00E035B0810
:10285000BB727A79BB7A9A422BD0FB7A012B18D1C2
:10286000FB68012B06D02B4B1B78DBB203F0020375
:10287000002B0ED0274B274A5278D2B222F0010209
:10288000D2B25A70234B9B79DBB203F00103002BC9
:10289000F8D1204B1F4A127AD2B222F02F02D1B2C5
:1028A0007A795200D2B202F00E02D2B20A43D2B208
:1028B0001A72184B174A5278D2B222F00102D1B2E2
:1028C000BA7902F00102D2B20A43D2B25A70114B65
:1028D000104A1278D2B222F00302D1B2FA790A4336
:1028E000D2B21A70FB68012B04D0FB7903F002030B
:1028F000002B07D0074B9B79DBB203F00102BB79B9
:102900009A42F7D1002318461437BD465DF8047B80
:10291000704700BF0040064080B584B000AF7860CB
:102920007B68002B06D11C4840F247311B4A1C4BE8
:10293000FFF7E4FD0023FB737B685B7803F01F0364
:10294000DAB2FB7B1343FB73164BFA7B1A71154B00
:10295000144A5279D2B222F01F02D1B27A68927828
:1029600002F01F02D2B20A43D2B25A710D4B0D4A85
:102970001279D1B27A6812780A43D2B242F0400298
:10298000D2B21A71074B9B79DBB203F04003002BE4
:10299000F8D01037BD4680BD60750000C0760000DD
:1029A000847500000040064080B584B000AF7860B8
:1029B0007B681B68184600F01DFC0346FB737B68B0
:1029C0001B791948194600F011FB7B68063316483D
:1029D000194600F0F1FA154B144A5278D2B222F09F
:1029E0003C02D1B2FA7B1201D2B202F03002D2B272
:1029F0000A43D1B27A6852790A43D2B25A707B68DC
:102A00005B79002B0DD0084B1B78DBB2DBB25BB2DD
:102A1000002B06DA054B9B79DBB203F00203002B97
:102A2000F8D01037BD4680BD00500640004006403B
:102A300080B582B000AF03463960FB713B68002B64
:102A400006D1234840F2BD51224A234BFFF756FDE1
:102A5000224B224A5278D2B222F00202D2B25A70EB
:102A60001E4B1E4A1278D2B202F03B02D2B262F082
:102A70007F02D2B21A70194B9B79DBB203F01C03B0
:102A8000082BF8D1154B154A5279D2B222F04002E8
:102A9000D2B25A71114B9B79DBB203F02003002BA9
:102AA000F8D13868FFF738FF0C4B0C4A5279D2B294
:102AB00042F04002D2B25A71084B9B79DBB203F06C
:102AC0002003002BF8D0002318460837BD4680BDF0
:102AD00060750000D4760000847500000040064058
:102AE00080B584B000AF7860396001F0DFFE07F197
:102AF0000803184600F066F8F860BB68002B31D177
:102B00003B68002B0AD17A68FB689A4206D801F02C
:102B1000DBFE7868F96801F099FA25E03B68002B44
:102B200008D0134B1B681B68002B14BF0023012324
:102B3000DBB23B600F4B1A687968FB68CB1A104612
:102B400019463A6801F06AFC01F0BEFE0346002B0C
:102B50000AD1094B4FF080521A60BFF34F8FBFF379
:102B60006F8F01E001F0B0FE1037BD4680BD00BFA1
:102B7000F02AFF1FF42AFF1F04ED00E080B485B0A7
:102B800000AF78600E4B1B681B68002B14BF00233E
:102B90000123DBB21A467B681A607B681B68002B36
:102BA00005D1074B1B68DB681B68FB6001E0002355
:102BB000FB60FB6818461437BD465DF8047B704720
:102BC000EC2AFF1F80B584B000AF786001F018FFD9
:102BD000F8600B4B1B68FA689A4205D200F002F9C4
:102BE0007B6801221A6002E07B6800221A60044BB5
:102BF000FA681A60FB6818461037BD4680BD00BFF2
:102C0000FC2AFF1F80B586B000AFF860B9607A601B
:102C10003B6000237B61FB68BA685A60FB68FA6816
:102C20001A61BA687B689A4212D87A683B68D21AED
:102C3000FB689B699A4202D301237B611BE0104B26
:102C40001A68FB6804331046194602F043FA12E092
:102C50007A683B689A4206D2BA683B689A4202D3C5
:102C600001237B6107E0074B1A68FB6804331046B9
:102C7000194602F02FFA7B6918461837BD4680BD09
:102C8000F02AFF1FEC2AFF1F80B58EB002AF97E03D
:102C90007B68002B18DA3B1D0433FB62FB6A002BB8
:102CA00009D14FF0500383F31188BFF36F8FBFF347
:102CB0004F8FFB61FEE7FB6A1B68FA6A5168FA6A8C
:102CC00092680846114698477B68002B78DBFB68C2
:102CD000BB62BB6A5B69002B04D0BB6A0433184635
:102CE00002F030FA3B461846FFF76CFF78627B68CB
:102CF000092B65D801A252F823F000BF252D000052
:102D0000252D0000252D0000C12D0000832D000081
:102D1000BB2D0000252D0000252D0000C12D000039
:102D2000832D0000BA68BB6A9B691A44BB68B86A05
:102D300011467A6AFFF766FF0346002B40D0BB6A54
:102D40005B6AB86A9847BB6ADB69012B38D1BA68FD
:102D5000BB6A9B69134400220092B86A00211A469C
:102D6000002301F021F938623B6A002B28D14FF093
:102D7000500383F31188BFF36F8FBFF34F8FBB6195
:102D8000FEE7BA68BB6A9A61BB6A9B69002B09D1EE
:102D90004FF0500383F31188BFF36F8FBFF34F8F52
:102DA0007B61FEE7BB6A9A697B6A1344B86A19467D
:102DB0007A6A7B6AFFF726FF02E0B86A02F042FFF8
:102DC000074B1A683B1D104619460022002302F0EB
:102DD00069FC0346002B7FF45BAF3037BD4680BDF6
:102DE000F42AFF1F80B588B002AF44E02B4B1B686C
:102DF000DB681B687B61294B1B68DB68DB683B6118
:102E00003B690433184602F09DF93B695B6A3869F7
:102E100098473B69DB69012B2DD13B699A697B6936
:102E20001344FB60FA687B699A420ED93B69FA68E1
:102E30005A603B693A691A61184B1A683B69043356
:102E40001046194602F046F915E000230093386950
:102E500000217A69002301F0A7F8B860BB68002B55
:102E600009D14FF0500383F31188BFF36F8FBFF385
:102E70004F8F3B60FEE7094B1B681B68002BB5D1E9
:102E8000064B1B687B60064B1A68044B1A60044BA8
:102E90007A681A601837BD4680BD00BFEC2AFF1F54
:102EA000F02AFF1F80B500AF01F0BAFD124B1B687E
:102EB000002B1DD1114802F0BDF8114802F0BAF8FC
:102EC000104B0E4A1A60104B0D4A1A600A2010214E
:102ED000002202F0C9F90246074B1A60064B1B6834
:102EE000002B05D0044B1B681846084901F046FA30
:102EF00001F0C4FD80BD00BFF42AFF1FC42AFF1FDC
:102F0000D82AFF1FEC2AFF1FF02AFF1F8C75000034
:102F100080B58AB000AFF860B9607A603B606FF04E
:102F200001037B61FB68BB61BB68FB617B683B6243
:102F3000074B1A6807F11403104619463A68002334
:102F400002F01CFB78627B6A18462837BD4680BDBC
:102F5000F42AFF1F80B483B000AF7860074B074AA4
:102F6000126822F440217A68920402F440220A4353
:102F70001A600C37BD465DF8047B70470070044052
:102F800080B483B000AF78600A490A4B03F58053E0
:102F900004331B6823F440327B681B0403F4403382
:102FA0001A4301F5805304331A600C37BD465DF8AF
:102FB000047B70470070044080B485B000AF786037
:102FC00039607B681B78FB73FB7B03F05F03FB734B
:102FD0003B681A78FB7B1343FB737B68FA7B1A70A0
:102FE0001437BD465DF8047B704700BF80B485B0E0
:102FF00000AF78600B46FB707B681B78FB73FB7B34
:1030000023F00F03FB73FA7BFB781343FB737B689E
:10301000FA7B1A701437BD465DF8047B704700BF19
:1030200080B582B000AF194B1B7BDBB203F003030A
:10303000012B12D0012B02D3022B1CD01EE0144B0B
:103040001B68002B05D11348D421134A134BFFF7FB
:1030500055FA0F4B1B687B6012E0114B1B68002B6D
:1030600005D10C48D9210C4A0E4BFFF747FA0C4BFF
:103070001B687B6004E00C4B7B6001E000237B60FD
:103080007B6818460837BD4680BD00BF004006403B
:10309000002BFF1F04760000547600001C76000011
:1030A000042BFF1F28760000006CDC0280B582B084
:1030B00000AFFFF7B5FF78607B68002B01D17B681C
:1030C0004DE0294B1B78DBB203F03803DB08FB70C3
:1030D000FB787A6822FA03F37B60234B5B78DBB2E0
:1030E00003F030031B09BB701F4B1B7BDBB203F0EB
:1030F00003037B70BB78002B02D07B78002B02D0BF
:103100007B78022B2AD1FB78072B25D801A151F817
:1031100023F000BF353100003531000035310000AB
:103120003531000035310000353100003D310000FF
:103130004B3100007B685B097B600FE07A680B4BCA
:10314000A3FB02131B097B6008E07A68084BA3FB12
:103150000213DB087B6001E000237B607B6818467C
:103160000837BD4680BD00BF00400640CDCCCCCC6A
:10317000ABAAAAAA80B400AF0C4B9B79DBB203F0D8
:103180000103002B02D10A4B1B6809E0094B1A68A6
:10319000064B1B7ADBB203F00E035B0822FA03F343
:1031A0001846BD465DF8047B704700BF00400640EE
:1031B0002400FF1F2800FF1F80B500AF074B9B793D
:1031C000DBB203F010031B09002B03D1FFF76EFFE6
:1031D000034601E0024B1B68184680BD00400640D4
:1031E0002400FF1F80B500AFFFF71AFF0346184603
:1031F00080BD00BF80B485B000AF78607A6849F6C2
:1032000097039A4202D80023FB7308E07A68074BC1
:103210009A4202D80123FB7301E00223FB73FB7B7C
:1032200018461437BD465DF8047B704700127A00DB
:1032300080B500AF0B4B1B78DBB2DBB25BB2002B6F
:103240000DDA094B1B68002B06D1084840F26511C6
:10325000074A084BFFF752F9034B1B6800E00023B5
:10326000184680BD00500640002BFF1F047600006A
:103270006C7600001C76000080B582B000AF184B61
:103280001B6803F440239B0C022B0FD0032B1CD094
:10329000002B1ED1FFF7CCFF0346B3F5004F02D140
:1032A0004FF4004300E000237B6014E00D4B1B68EB
:1032B000002B06D10C4840F279110C4A0C4BFFF759
:1032C0001DF9084B1B687B6005E04FF47A737B6047
:1032D00001E000237B607B6818460837BD4680BD4F
:1032E00000700440042BFF1F047600008476000069
:1032F0002876000080B582B000AF104B03F58053F4
:1033000004331B6803F440331B0C012B08D0012B42
:1033100002D3032B08D00AE0FFF796F9786008E0A3
:10332000FFF7F6F9786004E0054B7B6001E00023CD
:103330007B607B6818460837BD4680BD007004403E
:10334000006CDC0280B500AFFFF74CF90246054B7C
:1033500003F5825304331B681B0F0133B2FBF3F3F5
:10336000184680BD0070044080B584B000AF0346AD
:10337000FB71FB79132B00F28C8001A252F823F031
:10338000D1330000D1330000ED3300000D340000D4
:103390002D340000933400004D34000055340000FB
:1033A0005D34000093340000933400006534000065
:1033B0006D340000753400007D340000933400004B
:1033C0009334000093340000853400008B340000F7
:1033D000FFF708F90246324B03F5825304331B68AA
:1033E0001B0F0133B2FBF3F3FB6054E0FFF7FAF875
:1033F00002462B4B03F5825304331B6803F07063C2
:103400001B0E0133B2FBF3F3FB6044E0FFF7EAF875
:103410000246234B03F5825304331B6803F4700305
:103420001B0D0133B2FBF3F3FB6034E0FFF7DAF876
:1034300002461B4B03F5825304331B6803F47023CD
:103440001B0C0133B2FBF3F3FB6024E0FFF752FFE8
:10345000F86020E0FFF710FFF8601CE0FFF7E8FEDF
:10346000F86018E0FFF73CF9F86014E0FFF726F980
:10347000F86010E0FFF7E8F8F8600CE0FFF748F9B3
:10348000F86008E0074BFB6005E04FF47A73FB60DF
:1034900001E00023FB60FB6818461037BD4680BD85
:1034A00000700440006CDC0280B586B000AF0023E1
:1034B0007B614A4B1B68002B7ED1494B1B68013353
:1034C0003B61474B3A691A603B69002B1FD1454B62
:1034D0001B681B68002B09D04FF0500383F3118841
:1034E000BFF36F8FBFF34F8F3B60FEE73D4B1B6811
:1034F000FB603D4B1A683B4B1A603B4BFA681A6005
:103500003A4B1B685A1C394B1A6000F051FB384B80
:103510001B683A699A4255D300E000BF314B1B68E3
:103520001B68002B01D1012300E00023002B04D0F5
:103530002F4B4FF0FF321A6044E02A4B1B68DB68C8
:10354000DB68BB60BB685B687B603A697B689A42FA
:1035500003D2274B7A681A6034E0BB6804331846FC
:1035600001F0F0FDBB689B6A002B04D0BB681833E8
:10357000184601F0E7FDBB68DB6A01229A401D4B4B
:103580001B681A431B4B1A60BB68DA6A13469B0020
:1035900013449B00184A1A44BB680433104619466A
:1035A00001F074FDBB68DA6A144B1B68DB6A9A424F
:1035B000B3D301237B61B1E7114B1B685A1C104B3D
:1035C0001A6000E000BF0F4B1B68002B01D00123E5
:1035D0007B617B6918461837BD4680BDC02AFF1F36
:1035E0009C2AFF1F502AFF1F542AFF1FB02AFF1FCB
:1035F000B82AFF1FA02AFF1FC429FF1FC029FF1FD1
:10360000A82AFF1FAC2AFF1F80B487B000AF264B4B
:103610001B68002B03D0254B01221A603EE0234B90
:1036200000221A60224B1B68FB60FB68B3FA83F32D
:10363000FB72FB7AC3F11F037B611E497A69134653
:103640009B0013449B000B441B68002B09D14FF0D7
:10365000500383F31188BFF36F8FBFF34F8F7B60ED
:10366000FEE77A6913469B0013449B00114A1344FA
:103670003B613B695B685A683B695A603B695A68C1
:103680003B6908339A4204D13B695B685A683B69DD
:103690005A603B695B68DA68074B1A601C37BD46A5
:1036A0005DF8047B704700BFC02AFF1FAC2AFF1FD4
:1036B000A02AFF1FC429FF1FC029FF1F80B584B0A7
:1036C00000AF786039607B68002B09D14FF0500360
:1036D00083F31188BFF36F8FBFF34F8FFB60FEE75B
:1036E000064B1B6818337868194601F0F3FC3868FC
:1036F000012100F0C5FB1037BD4680BDC029FF1F6A
:1037000080B586B000AFF860B9607A60FB68002BC6
:1037100009D14FF0500383F31188BFF36F8FBFF3CC
:103720004F8F7B61FEE7114B1B68002B09D14FF0D7
:10373000500383F31188BFF36F8FBFF34F8F3B614B
:10374000FEE70B4B1B68BA6842F000429A61084BD7
:103750001B681833F868194601F098FC7868012155
:1037600000F08EFB1837BD4680BD00BFC02AFF1F8A
:10377000C029FF1F80B586B000AFF860B9607A60DD
:10378000FB68002B09D14FF0500383F31188BFF37E
:103790006F8FBFF34F8F7B61FEE70A4B1B681833B7
:1037A000F868194601F072FC7B68002B02D04FF0DC
:1037B000FF33BB60B868796800F062FB1837BD461C
:1037C00080BD00BFC029FF1F80B586B000AF786004
:1037D0007B68DB68DB683B613B69002B09D14FF0FC
:1037E000500383F31188BFF36F8FBFF34F8FFB60DC
:1037F000FEE73B691833184601F0A4FC1D4B1B681B
:10380000002B1CD13B690433184601F09BFC3B693B
:10381000DB6A01229A40184B1B681A43164B1A6048
:103820003B69DA6A13469B0013449B00134A1A440F
:103830003B6904331046194601F028FC05E03B695A
:1038400018330F48194601F021FC3B69DA6A0D4B29
:103850001B68DB6A9A4205D901237B610A4B01226E
:103860001A6001E000237B617B6918461837BD466A
:1038700080BD00BFC02AFF1FA02AFF1FC429FF1F51
:10388000582AFF1FC029FF1FAC2AFF1F80B586B032
:1038900000AF786039602B4B1B68002B09D14FF0CB
:1038A000500383F31188BFF36F8FBFF34F8FFB601B
:1038B000FEE73B6843F000427B681A607B68DB6888
:1038C0003B613B69002B09D14FF0500383F3118812
:1038D000BFF36F8FBFF34F8FBB60FEE7786801F0D7
:1038E00031FC3B690433184601F02CFC3B69DB6A70
:1038F00001229A40144B1B681A43134B1A603B6910
:10390000DA6A13469B0013449B00104A1A443B6931
:1039100004331046194601F0B9FB3B69DA6A0C4BD7
:103920001B68DB6A9A4205D901237B61094B01229E
:103930001A6001E000237B617B6918461837BD4699
:1039400080BD00BFC02AFF1FA02AFF1FC429FF1F80
:10395000C029FF1FAC2AFF1F80B485B000AF78607C
:103960007B68002B09D14FF0500383F31188BFF31C
:103970006F8FBFF34F8FFB60FEE7064B1A687B68C3
:103980001A60054B1A687B685A601437BD465DF8AB
:10399000047B7047B02AFF1F9C2AFF1F80B586B0AA
:1039A00000AF786039607B68002B09D14FF050037D
:1039B00083F31188BFF36F8FBFF34F8FFB60FEE778
:1039C0003B68002B09D14FF0500383F31188BFF3FC
:1039D0006F8FBFF34F8FBB60FEE701F021F81C4BE8
:1039E0001B683B613B681B68B3F1FF3F02D10023BA
:1039F0007B6126E07B681A68164B1B689A4207D0E9
:103A00007B685A683B699A4202D801237B6118E0BF
:103A10007B685B683A69D21A3B681B689A420ED28F
:103A20003B681A687B6859683B69CB1A1A443B6843
:103A30001A607868FFF790FF00237B6101E00123A3
:103A40007B6101F01BF87B6918461837BD4680BDC5
:103A50009C2AFF1FB02AFF1F80B400AF034B012236
:103A60001A60BD465DF8047B704700BFAC2AFF1F9B
:103A700080B582B000AF786000F050F8064B1B684C
:103A8000012BF9D9054B4FF080521A60BFF34F8FCD
:103A9000BFF36F8FF0E700BFC429FF1F04ED00E004
:103AA00080B582B000AF00237B600CE07A681346DB
:103AB0009B0013449B00114A1344184601F0BAFAC4
:103AC0007B6801337B607B68042BEFD90C4801F0E5
:103AD000B1FA0C4801F0AEFA0B4801F0ABFA0B4812
:103AE00001F0A8FA0A4801F0A5FA0A4B044A1A6044
:103AF000094B044A1A600837BD4680BDC429FF1F20
:103B0000282AFF1F3C2AFF1F582AFF1F6C2AFF1F6D
:103B1000842AFF1F502AFF1F542AFF1F80B582B03E
:103B200000AF28E000F0C2FE164B1B68002B14BF4C
:103B300000230123DBB27B6000F0C6FE7B68002B14
:103B400019D100F06DFF0F4BDB68DB683B603B6811
:103B50000433184601F0F6FA0B4B1B685A1E0A4B49
:103B60001A600A4B1B685A1E084B1A6000F086FF49
:103B7000386800F00DF8054B1B68002BD2D10837D0
:103B8000BD4680BD6C2AFF1F982AFF1F802AFF1F99
:103B900080B582B000AF78607B681B6B184602F07E
:103BA00051F8786802F04EF80837BD4680BD00BF76
:103BB00080B483B000AF0E4B1B681B68002B01D193
:103BC000012300E00023002B04D00A4B4FF0FF320A
:103BD0001A6008E0064B1B68DB68DB687B607B686B
:103BE0005A68044B1A600C37BD465DF8047B704779
:103BF000502AFF1FB82AFF1F80B483B000AF0B4BC1
:103C00001B68002B02D101237B6008E0084B1B6876
:103C1000002B02D102237B6001E000237B607B68E4
:103C200018460C37BD465DF8047B7047A42AFF1F79
:103C3000C02AFF1F80B584B000AF78607B68FB604E
:103C40007B68002B62D0FB68DA6A324B1B68DB6A48
:103C50009A425BD2FB689B69002B06DB2D4B1B68ED
:103C6000DB6AC3F10502FB689A61FB685969FB686E
:103C7000DA6A13469B0013449B00274A1344994277
:103C800001D1012300E00023002B3AD0FB6804336C
:103C9000184601F057FA0346002B15D1FB68DA6A83
:103CA0001D4913469B0013449B000B441B68002BCB
:103CB0000AD1FB68DB6A012202FA03F3DA43174BED
:103CC0001B681A40154B1A60124B1B68DA6AFB68B6
:103CD000DA62FB68DB6A01229A40104B1B681A43C8
:103CE0000E4B1A60FB68DA6A13469B0013449B0074
:103CF000094A1A44FB6804331046194601F0C6F914
:103D000004E0044B1B68DA6AFB68DA621037BD46D0
:103D100080BD00BFC029FF1FC429FF1FA02AFF1FAD
:103D200080B586B000AF78607B683B6100237B6123
:103D30007B68002B6CD0394B1B683A699A4209D0DA
:103D40004FF0500383F31188BFF36F8FBFF34F8F92
:103D5000FB60FEE73B69DB6C002B09D14FF05003A1
:103D600083F31188BFF36F8FBFF34F8FBB60FEE704
:103D70003B69DB6C5A1E3B69DA643B69DA6A3B6972
:103D80009B6C9A4244D03B69DB6C002B40D13B6971
:103D90000433184601F0D6F90346002B15D13B69D0
:103DA000DA6A1F4913469B0013449B000B441B68AF
:103DB000002B0AD13B69DB6A012202FA03F3DA43E2
:103DC000184B1B681A40174B1A603B699A6C3B6989
:103DD000DA623B69DB6AC3F105023B699A613B69C0
:103DE000DB6A01229A400F4B1B681A430D4B1A6085
:103DF0003B69DA6A13469B0013449B00084A1A4445
:103E00003B6904331046194601F040F901237B61F8
:103E10007B6918461837BD4680BD00BFC029FF1F0B
:103E2000C429FF1FA02AFF1F80B483B000AF094B35
:103E30001B689B697B60074B1B68064A1268D26A45
:103E4000C2F105029A617B6818460C37BD465DF8E1
:103E5000047B7047C029FF1F80B400AF074B1B686D
:103E6000002B04D0054B1B68DA6C0132DA64034B7B
:103E70001B681846BD465DF8047B7047C029FF1FCC
:103E800080B584B000AF78603960284B1B68FB6058
:103E9000274B1B680433184601F054F90346002BE6
:103EA0000BD1234B1B68DB6A012202FA03F3DA43CE
:103EB000204B1B681A401F4B1A607B68B3F1FF3F11
:103EC0000AD13B68002B07D0194B1B6804331A48F2
:103ED000194601F0DBF826E0FA687B681344BB6002
:103EE000134B1B68BA685A60BA68FB689A4209D2D9
:103EF000124B1A680E4B1B6804331046194601F02A
:103F0000E9F810E00E4B1A68094B1B6804331046A1
:103F1000194601F0DFF80B4B1B68BA689A4202D2CF
:103F2000084BBA681A601037BD4680BD9C2AFF1F37
:103F3000C029FF1FA02AFF1F842AFF1F542AFF1F2A
:103F4000502AFF1FB82AFF1F80B584B002AF00239C
:103F50007B60FEF7A7FF104B1B68002B0AD00223E3
:103F600000930E4B01930E480E49B422002300F03B
:103F70008BFA78607B68002B09D14FF0500383F3F4
:103F80001188BFF36F8FBFF34F8F3B60FEE77B68F5
:103F900018460837BD4680BDF42AFF1FF82AFF1FC8
:103FA000CD4000003876000080B58AB000AFF860E0
:103FB000B9607A603B6000237B62FB68002B09D10B
:103FC0004FF0500383F31188BFF36F8FBFF34F8F10
:103FD0003B62FEE71C4B1B68002B30D0BB683B618B
:103FE0007B687B61FB68BB61BB68052B1CDCFFF752
:103FF00003FE0346022B0BD1134B1A6807F1100383
:10400000104619463A6B002301F0BAF9786216E0BF
:104010000D4B1A6807F110031046194600220023C1
:1040200001F0AEF978620AE0074B1A6807F1100355
:10403000104619463A68002301F0A0FA78627B6ABC
:1040400018462837BD4680BDF42AFF1F80B588B0CA
:1040500002AF786039601C4B1B68DB68DB687B61F2
:104060007B690433184601F06DF87B69DB69012B2D
:1040700022D17B699A697B681344786919463A684A
:104080007B68FEF7BFFD0346002B15D0002300938D
:10409000786900217A680023FFF786FF38613B6961
:1040A000002B09D14FF0500383F31188BFF36F8FBA
:1040B000BFF34F8FFB60FEE77B695B6A78699847C7
:1040C0001837BD4680BD00BFEC2AFF1F80B584B005
:1040D00000AF786007F108031846FEF74FFDF8605F
:1040E000BB68F8681946FEF7FBFCFEF7CDFDF1E76B
:1040F00080B584B000AF78607B68002B09D14FF0A9
:10410000500383F31188BFF36F8FBFF34F8FBB60F2
:10411000FEE700F085FC7B689B6BFB6000F0AEFC6B
:10412000FB6818461037BD4680BD00BF80B584B01F
:1041300000AF78607B68FB60FB68002B09D14FF013
:10414000500383F31188BFF36F8FBFF34F8FBB60B2
:10415000FEE7F86800F03AF9F86801F073FD1037EF
:10416000BD4680BD80B586B000AFF860B9607A60AA
:1041700000237B61FB689B6B3B61FB681B6C002B26
:104180000DD1FB681B68002B4FD1FB685B6818469C
:10419000FFF7C6FD7861FB6800225A6045E07B6846
:1041A000002B1AD1FB689A68FB681B6C1046B96833
:1041B0001A4602F0A1FAFB689A68FB681B6C1A4465
:1041C000FB689A60FB689A68FB685B689A422CD32C
:1041D000FB681A68FB689A6027E0FB68DA68FB688E
:1041E0001B6C1046B9681A4602F086FAFB68DA685A
:1041F000FB681B6C5B421A44FB68DA60FB68DA6898
:10420000FB681B689A4207D2FB685A68FB681B6C04
:104210005B421A44FB68DA607B68022B05D13B697C
:10422000002B02D03B69013B3B613B695A1CFB6898
:104230009A637B6918461837BD4680BD80B582B049
:1042400000AF786039607B681B6C002B19D07B68ED
:10425000DA687B681B6C1A447B68DA607B68DA6812
:104260007B685B689A4203D37B681A687B68DA6074
:104270007B68DA687B681B6C386811461A4602F066
:104280003BFA0837BD4680BD80B584B000AF78608A
:1042900000F0C6FB7B6893F84530FB7310E07B6849
:1042A0005B6A002B10D07B6824331846FFF78CFA2A
:1042B0000346002B01D0FFF7CFFBFB7B013BFB73D9
:1042C00097F90F30002BEADC7B68FF2283F845204A
:1042D00000F0D4FB00F0A4FB7B6893F84430BB7380
:1042E00010E07B681B69002B10D07B6810331846E8
:1042F000FFF76AFA0346002B01D0FFF7ADFBBB7B4B
:10430000013BBB7397F90E30002BEADC7B68FF2280
:1043100083F8442000F0B2FB1037BD4680BD00BFDB
:1043200080B584B000AF786000F07AFB7B689B6B4F
:10433000002B02D10123FB6001E00023FB6000F0B1
:104340009DFBFB6818461037BD4680BD80B584B024
:1043500000AF786000F064FB7B689A6B7B68DB6B76
:104360009A4202D10123FB6001E00023FB6000F0D0
:1043700085FBFB6818461037BD4680BD80B485B00C
:1043800000AF786039600023FB6014E00E4BFA68E0
:1043900053F83230002B0BD10B4BFA68396843F8D5
:1043A0003210094AFB68DB0013447A685A6005E062
:1043B000FB680133FB60FB68072BE7D91437BD4668
:1043C0005DF8047B704700BF8029FF1F80B485B073
:1043D00000AF78600023FB6016E00F4AFB68DB004B
:1043E00013445A687B689A420BD10B4BFA68002140
:1043F00043F83210084AFB68DB00134400225A607D
:1044000005E0FB680133FB60FB68072BE5D9143737
:10441000BD465DF8047B70478029FF1F80B586B0DC
:1044200000AFF860B9607A60FB687B6100F0F8FA71
:104430007B6993F84430DBB25BB2B3F1FF3F03D149
:104440007B69002283F844207B6993F84530DBB216
:104450005BB2B3F1FF3F03D17B69002283F84520B3
:1044600000F00CFB7B699B6B002B06D17B6924332E
:104470001846B9687A68FFF77DF97869FFF704FF95
:104480001837BD4680BD00BF80B58CB004AFF86062
:10449000B9603B601346FB80FB889B00184601F027
:1044A0000FFB78617B69002B0ED06C2001F008FBBC
:1044B000F861FB69002B03D0FB697A691A6305E098
:1044C000786901F0BFFB01E00023FB61FB69002B71
:1044D00014D0FB88BA6A0092FA6A0192FA690292D1
:1044E00000220392F868B9681A463B6800F00EF89B
:1044F000F86900F09DF80123BB6102E04FF0FF3343
:10450000BB61BB6918462037BD4680BD80B588B009
:1045100000AFF860B9607A603B603B6B1A6B7B68F8
:104520009B001046A5211A4602F032F93B6B1A6B2C
:104530007B6803F18043013B9B001344BB61BB6973
:1045400023F00703BB61BB6903F00703002B09D00D
:104550004FF0500383F31188BFF36F8FBFF34F8F7A
:104560007B61FEE70023FB6111E0BA68FB6913443D
:104570001A78396BFB690B4430331A71BA68FB69DE
:1045800013441B78002B05D0FB690133FB61FB69E9
:10459000092BEAD93B6B002283F83D20BB6A042B30
:1045A00001D90423BB623B6BBA6ADA623B6BBA6A1D
:1045B0009A643B6B0022DA643B6B0433184600F0CC
:1045C00059FD3B6B1833184600F054FD3B6B3A6BBA
:1045D0001A61BB6AC3F105023B6B9A613B6B3A6B94
:1045E0005A620023FB6108E03B6BFA691432002138
:1045F00043F82210FB690133FB61FB69042BF3D9FB
:104600003B6B00225A663B6B002283F86820B86936
:10461000F9683A6801F048FC02463B6B1A60FB6A95
:10462000002B02D0FB6A3A6B1A602037BD4680BD72
:1046300080B582B000AF786000F0F2F92C4B1B68B7
:104640005A1C2B4B1A602B4B1B68002B09D1294B92
:104650007A681A60264B1B68012B10D1FFF720FAED
:104660000DE0254B1B68002B09D1224B1B68DA6A31
:104670007B68DB6A9A4202D81E4B7A681A601F4B2D
:104680001B685A1C1D4B1A601C4B1A687B681A6405
:104690007B68DB6A01229A40194B1B681A43184B4E
:1046A0001A607B68DA6A13469B0013449B00154A24
:1046B0001A447B6804331046194600F0E7FC00F00A
:1046C000DDF90D4B1B68002B0ED00A4B1B68DA6A14
:1046D0007B68DB6A9A4207D20B4B4FF080521A601C
:1046E000BFF34F8FBFF36F8F0837BD4680BD00BF4C
:1046F000982AFF1FC029FF1FA42AFF1FB42AFF1FEB
:10470000A02AFF1FC429FF1F04ED00E080B584B07C
:1047100000AF786000F084F97B68002B02D1364B43
:104720001B6800E07B68FB60FB680433184600F000
:1047300009FD0346002B15D1FB68DA6A2F491346A1
:104740009B0013449B000B441B68002B0AD1FB68A1
:10475000DB6A012202FA03F3DA43294B1B681A4091
:10476000274B1A60FB689B6A002B04D0FB68183348
:10477000184600F0E7FCFB6804332248194600F0B5
:1047800085FC00F07BF9204B1B68002B05D000F066
:1047900047F9FFF70DFA00F071F9174B1B68FA683B
:1047A0009A4226D1184B1B68002B16D0174B1B685A
:1047B000002B09D04FF0500383F31188BFF36F8FA4
:1047C000BFF34F8FBB60FEE7114B4FF080521A6072
:1047D000BFF34F8FBFF36F8F0BE00A4B1A680D4B7F
:1047E0001B689A4203D1044B00221A6001E0FEF7D5
:1047F0000BFF1037BD4680BDC029FF1FC429FF1F16
:10480000A02AFF1F842AFF1FA42AFF1FC02AFF1F00
:1048100004ED00E0982AFF1F80B586B002AF0023A8
:1048200000931C4B01931C481C495A220023FFF79C
:104830002BFEF860FB68012B02D1FFF785FBF860C7
:10484000FB68012B15D14FF0500383F31188BFF3A0
:104850006F8FBFF34F8FBB60114B4FF0FF321A6069
:10486000104B01221A60104B00221A6001F098FBD5
:104870000DE0FB68B3F1FF3F09D14FF0500383F324
:104880001188BFF36F8FBFF34F8F7B60FEE7103748
:10489000BD4680BDBC2AFF1F713A00004076000073
:1048A000B82AFF1FA42AFF1F9C2AFF1F80B400AF55
:1048B000044B1B685A1C034B1A60BD465DF8047B11
:1048C000704700BFC02AFF1F80B584B000AF00232F
:1048D000FB600023BB60414B1B68002B09D14FF0EC
:1048E000500383F31188BFF36F8FBFF34F8F3B608B
:1048F000FEE700F095F8394B1B685A1E374B1A60DB
:10490000364B1B68002B61D1354B1B68002B2FD118
:104910005CE0344BDB68DB68FB60FB6818331846EF
:1049200000F010FCFB680433184600F00BFCFB6839
:10493000DB6A01229A402C4B1B681A432A4B1A60EF
:10494000FB68DA6A13469B0013449B00274A1A440B
:10495000FB6804331046194600F098FBFB68DA6ADE
:10496000234B1B68DB6A9A4202D3224B01221A6056
:104970001C4B1B68002BCCD1FB68002B01D0FFF730
:1049800017F91D4B1B687B607B68002B10D0FEF76E
:104990008BFD0346002B02D0164B01221A607B6868
:1049A000013B7B607B68002BF1D1134B00221A6026
:1049B000104B1B68002B09D00123BB600F4B4FF03D
:1049C00080521A60BFF34F8FBFF36F8F00F056F81D
:1049D000BB6818461037BD4680BD00BFC02AFF1F08
:1049E000982AFF1F582AFF1FA02AFF1FC429FF1F54
:1049F000C029FF1FAC2AFF1FA82AFF1F04ED00E0FB
:104A000080B483B000AF054B1B687B607B681846A1
:104A10000C37BD465DF8047B704700BF9C2AFF1F22
:104A200080B483B000AF4FF0500383F31188BFF31D
:104A30006F8FBFF34F8F7B600E4B1B685A1C0D4B63
:104A40001A600C4B1B68012B0ED10B4B1B68DBB2A1
:104A5000002B09D04FF0500383F31188BFF36F8F01
:104A6000BFF34F8F3B60FEE70C37BD465DF8047B1C
:104A7000704700BF2000FF1F04ED00E080B483B04A
:104A800000AF104B1B68002B09D14FF0500383F38C
:104A90001188BFF36F8FBFF34F8F7B60FEE7094B29
:104AA0001B685A1E074B1A60064B1B68002B04D16B
:104AB00000233B603B6883F311880C37BD465DF8EB
:104AC000047B70472000FF1F000000000000000072
:104AD000EFF30980BFF36F8F154B1A681EF0100FAC
:104AE00008BF20ED108A20E9F04F10604DF8043D1A
:104AF0004FF0500080F31188BFF34F8FBFF36F8FDB
:104B0000FEF782FD4FF0000080F3118808BC1968A1
:104B10000868B0E8F04F1EF0100F08BFB0EC108A24
:104B200080F30988BFF36F8F704700BFAFF3008039
:104B3000C029FF1FAFF30080AFF30080AFF3008008
:104B400080B582B000AF4FF0500383F31188BFF3FC
:104B50006F8FBFF34F8F7B60FEF7A6FC0346002BE1
:104B600003D0064B4FF080521A6000233B603B6835
:104B700083F311880837BD4680BD00BF04ED00E017
:104B8000DFF80C00016841F470010160704700001B
:104B900088ED00E080B485B000AFEFF30583FB60E3
:104BA000FB680F2B13D9154AFB6813441B78FB7263
:104BB000134B1B78FA7A9A4209D24FF0500383F3D1
:104BC0001188BFF36F8FBFF34F8F7B60FEE70D4BF4
:104BD0001B6803F4E0620C4B1B689A4209D94FF042
:104BE000500383F31188BFF36F8FBFF34F8F3B6088
:104BF000FEE71437BD465DF8047B7047F0E300E044
:104C00007829FF1F0CED00E07C29FF1F80B582B0E2
:104C100000AF1C2000F054FF78607B68002B07D0A9
:104C20007B6800221A607B680433184600F002FAA1
:104C30007B6818460837BD4680BD00BF80B590B080
:104C400000AFF860B9607A603B60FB687B6300236B
:104C5000BB6300233B63FB68002B09D14FF050037B
:104C600083F31188BFF36F8FBFF34F8F3B62FEE773
:104C7000BB6803F07F43002B09D04FF0500383F350
:104C80001188BFF36F8FBFF34F8FFB61FEE7BB68E7
:104C9000002B09D14FF0500383F31188BFF36F8FBE
:104CA000BFF34F8FBB61FEE7FEF7A6FF0346002B65
:104CB00002D1BB6C002B01D1012300E00023002BAB
:104CC00009D14FF0500383F31188BFF36F8FBFF307
:104CD0004F8F7B61FEE7FFF7E9FD7B6B1B68FB6293
:104CE000F86AB9683A6800F06FF9B862BB6A002BDD
:104CF0000ED0FB6AFB630023BB647B68002B27D0CC
:104D00007B6B1A68BB68DB431A407B6B1A601FE041
:104D1000BB6C002B02D1FB6AFB6319E07B68002BA4
:104D200003D0BB6B43F08073BB633B68002B03D0A5
:104D3000BB6B43F08063BB637B6B1A1DB968BB6BB5
:104D40000B4310461946BA6CFEF7DAFC0023FB63EE
:104D5000FFF7BAFD7862BB6C002B31D07B6A002B69
:104D600007D11A4B4FF080521A60BFF34F8FBFF339
:104D70006F8FFFF759F8F863FB6B03F00073002B9C
:104D80001AD1FFF74DFE7B6B1B68FB63F86BB968AC
:104D90003A6800F019F90346002B09D07B68002B14
:104DA00006D07B6B1A68BB68DB431A407B6B1A60CA
:104DB000FFF764FE00233B63FB6B23F07F43FB6341
:104DC000FB6B18464037BD4680BD00BF04ED00E0D8
:104DD00080B586B000AF786039607B687B617B68A6
:104DE000002B09D14FF0500383F31188BFF36F8F6D
:104DF000BFF34F8FFB60FEE73B6803F07F43002B60
:104E000009D04FF0500383F31188BFF36F8FBFF3C6
:104E10004F8FBB60FEE7FFF703FE7B691B683B61BA
:104E20007B691A683B68DB431A407B691A60FFF7AD
:104E300025FE3B6918461837BD4680BD80B58EB04B
:104E400000AF7860396000233B637B68BB6200235E
:104E5000FB627B68002B09D14FF0500383F311886C
:104E6000BFF36F8FBFF34F8F3B61FEE73B6803F0EB
:104E70007F43002B09D04FF0500383F31188BFF319
:104E80006F8FBFF34F8FFB60FEE7BB6A04337B621B
:104E90007B6A08333B62FFF709FD7B6ADB687B6353
:104EA000BB6A1A683B681A43BB6A1A603CE07B6BBA
:104EB0005B68FB617B6B1B68BB610023FB62BB69AA
:104EC00003F07F437B61BB6923F07F43BB617B6958
:104ED00003F08063002B08D1BB6A1A68BB691340DA
:104EE000002B0BD00123FB6208E0BB6A1A68BB6988
:104EF0001A40BB699A4201D10123FB62FB6A002B75
:104F000010D07B6903F08073002B03D03A6BBB6930
:104F100013433B63BB6A1B6843F00073786B19460D
:104F2000FEF7B4FCFB697B637A6B3B6A9A42BED1A5
:104F3000BB6A1A683B6BDB431A40BB6A1A60FFF717
:104F4000C3FCBB6A1B6818463837BD4680BD00BF2E
:104F500080B586B000AF78607B687B617B69043385
:104F60003B61FFF7A3FC16E03B69DA683B69083355
:104F70009A4209D14FF0500383F31188BFF36F8F2A
:104F8000BFF34F8FFB60FEE73B69DB6818464FF0CD
:104F90000071FEF77BFC3B691B68002BE4D178694C
:104FA00000F050FEFFF790FC1837BD4680BD00BFF3
:104FB00080B582B000AF7860396078683968FFF7F3
:104FC0003DFF0837BD4680BD80B487B000AFF860B4
:104FD000B9607A6000237B617B68002B07D1FA6897
:104FE000BB681340002B0AD001237B6107E0FA68FD
:104FF000BB681A40BB689A4201D101237B617B697F
:1050000018461C37BD465DF8047B704780B586B0F6
:1050100000AFF860B9607A600548F968BA687B68E3
:10502000FDF776FF78617B6918461837BD4680BD6D
:10503000B14F000080B483B000AF78607B6803F1AB
:1050400008027B685A607B684FF0FF329A607B6889
:1050500003F108027B68DA607B6803F108027B6871
:105060001A617B6800221A600C37BD465DF8047B2C
:10507000704700BF80B483B000AF78607B680022C7
:105080001A610C37BD465DF8047B704780B485B06B
:1050900000AF786039607B685B68FB603B68FA68EA
:1050A0005A60FB689A683B689A60FB689B683A683C
:1050B0005A60FB683A689A603B687A681A617B6854
:1050C0001B685A1C7B681A601437BD465DF8047B68
:1050D000704700BF80B485B000AF786039603B682E
:1050E0001B68BB60BB68B3F1FF3F03D17B681B69E2
:1050F000FB600CE07B680833FB6002E0FB685B68E8
:10510000FB60FB685B681A68BB689A42F6D9FB686B
:105110005A683B685A603B685B683A689A603B68CB
:10512000FA689A60FB683A685A603B687A681A6164
:105130007B681B685A1C7B681A601437BD465DF893
:10514000047B704780B485B000AF78607B681B69D2
:10515000FB607B685B687A6892689A607B689B6892
:105160007A6852685A60FB685A687B689A4203D131
:105170007B689A68FB685A607B6800221A61FB684A
:105180001B685A1EFB681A60FB681B6818461437B8
:10519000BD465DF8047B704780B584B000AF786091
:1051A00039607B68FB60FB68002B09D14FF050032E
:1051B00083F31188BFF36F8FBFF34F8FBB60FEE7A0
:1051C000FFF72EFCFB681A68FB68DB6BF968096C5B
:1051D00001FB03F31A44FB685A60FB6800229A63E0
:1051E000FB681A68FB689A60FB681A68FB68DB6BEF
:1051F000013BF968096C01FB03F31A44FB68DA60B0
:10520000FB68FF2283F84420FB68FF2283F84520D7
:105210003B68002B14D1FB681B69002B1AD0FB687C
:1052200010331846FEF7D0FA0346002B12D00D4B70
:105230004FF080521A60BFF34F8FBFF36F8F09E0BA
:10524000FB6810331846FFF7F5FEFB682433184659
:10525000FFF7F0FEFFF712FC012318461037BD469A
:1052600080BD00BF04ED00E080B58AB002AFF860F9
:10527000B9601346FB71FB68002B09D14FF0500356
:1052800083F31188BFF36F8FBFF34F8F3B61FEE74E
:10529000BB68002B02D10023FB6104E0FB68BA6805
:1052A00002FB03F3FB61FB695033184600F008FC76
:1052B000B861BB69002B0AD0BB6950337B61FB79B5
:1052C000BA690092F868B9687A6900F005F8BB69B4
:1052D00018462037BD4680BD80B584B000AFF86069
:1052E000B9607A60FB70BB68002B03D1BB69BA69F7
:1052F0001A6002E0BB697A681A60BB69FA68DA630F
:10530000BB69BA681A64B8690121FFF745FFBB6938
:10531000FA7883F84C201037BD4680BD80B582B046
:1053200000AF78607B68002B0ED07B6800225A604B
:105330007B6800221A607B680022DA6078680021AE
:105340000022002300F01CF80837BD4680BD00BFD6
:1053500080B586B000AF0346FB7101237B6100235B
:105360003B61FB79786939691A46FFF77DFFF86080
:10537000F868FFF7D3FFFB6818461837BD4680BDB5
:1053800080B58EB000AFF860B9607A603B600023F2
:105390007B63FB683B633B6B002B09D14FF05003F1
:1053A00083F31188BFF36F8FBFF34F8FBB62FEE7AC
:1053B000BB68002B03D13B6B1B6C002B01D101237D
:1053C00000E00023002B09D14FF0500383F3118834
:1053D000BFF36F8FBFF34F8F7B62FEE73B68022BFB
:1053E00003D13B6BDB6B012B01D1012300E00023D8
:1053F000002B09D14FF0500383F31188BFF36F8F57
:10540000BFF34F8F3B62FEE7FEF7F6FB0346002B30
:1054100002D17B68002B01D1012300E00023002B87
:1054200009D14FF0500383F31188BFF36F8FBFF39F
:105430004F8FFB61FEE7FFF7F3FA3B6B9A6B3B6B19
:10544000DB6B9A4202D33B68022B29D1386BB968D7
:105450003A68FEF787FEF8623B6B5B6A002B10D060
:105460003B6B24331846FEF7AFF90346002B13D0ED
:10547000414B4FF080521A60BFF34F8FBFF36F8FD5
:105480000AE0FB6A002B07D03B4B4FF080521A60BA
:10549000BFF34F8FBFF36F8FFFF7F0FA012366E082
:1054A0007B68002B03D1FFF7E9FA00235FE07B6BF9
:1054B000002B06D107F114031846FEF74DFA01231D
:1054C0007B63FFF7DBFAFFF7F1F9FFF7A9FA3B6B14
:1054D00093F84430DBB25BB2B3F1FF3F03D13B6BD7
:1054E000002283F844203B6B93F84530DBB25BB27B
:1054F000B3F1FF3F03D13B6B002283F84520FFF758
:10550000BDFA07F114023B1D10461946FEF746FA94
:105510000346002B25D1386BFEF718FF0346002BFE
:1055200019D03B6B03F110027B6810461946FEF759
:10553000C5F8386BFEF7A8FEFFF7C6F90346002B47
:105540007FF479AF0C4B4FF080521A60BFF34F8F4E
:10555000BFF36F8F6FE7386BFEF796FEFFF7B4F976
:1055600069E7386BFEF790FEFFF7AEF900231846A7
:105570003837BD4680BD00BF04ED00E080B58EB079
:1055800000AFF860B9607A603B60FB683B633B6BDF
:10559000002B09D14FF0500383F31188BFF36F8FB5
:1055A000BFF34F8F7B62FEE7BB68002B03D13B6BE1
:1055B0001B6C002B01D1012300E00023002B09D13B
:1055C0004FF0500383F31188BFF36F8FBFF34F8FFA
:1055D0003B62FEE73B68022B03D13B6BDB6B012B8D
:1055E00001D1012300E00023002B09D14FF050032B
:1055F00083F31188BFF36F8FBFF34F8FFB61FEE71B
:10560000FFF7C8FAEFF311824FF0500383F31188CC
:10561000BFF36F8FBFF34F8FBA617B61BB69FB62D2
:105620003B6B9A6B3B6BDB6B9A4202D33B68022B62
:105630002CD13B6B93F8453087F82B30386BB96829
:105640003A68FEF78FFD97F92B30B3F1FF3F12D187
:105650003B6B5B6A002B16D03B6B24331846FEF77E
:10566000B3F80346002B0ED07B68002B0BD07B6871
:1056700001221A6007E097F82B300133DBB2DAB26F
:105680003B6B83F8452001237B6301E000237B63B0
:10569000FB6A3B613B6983F311887B6B18463837A3
:1056A000BD4680BD80B58EB000AFF860B9607A604D
:1056B0003B6000237B63FB683B633B6B002B09D1A2
:1056C0004FF0500383F31188BFF36F8FBFF34F8FF9
:1056D0007B62FEE7BB68002B03D13B6B1B6C002B8E
:1056E00001D1012300E00023002B09D14FF050032A
:1056F00083F31188BFF36F8FBFF34F8F3B62FEE7D9
:10570000FEF77AFA0346002B02D17B68002B01D109
:10571000012300E00023002B09D14FF0500383F355
:105720001188BFF36F8FBFF34F8FFB61FEE7FFF769
:1057300077F93B6B9B6BFB62FB6A002B46D03B6BA4
:10574000DB68BB62386BB968FEF778FD3B68002BFD
:1057500021D1FB6A5A1E3B6B9A633B6B1B68002B83
:1057600004D1FEF779FB02463B6B5A603B6B1B6929
:10577000002B27D03B6B10331846FEF725F8034665
:10578000002B1FD0514B4FF080521A60BFF34F8F48
:10579000BFF36F8F16E03B6BBA6ADA603B6B5B6AF4
:1057A000002B0FD03B6B24331846FEF70DF8034651
:1057B000002B07D0454B4FF080521A60BFF34F8F3C
:1057C000BFF36F8FFFF75AF901237AE07B68002B54
:1057D00003D1FFF753F9002373E07B6B002B06D155
:1057E00007F114031846FEF7B7F801237B63FFF7B0
:1057F00045F9FFF75BF8FFF713F93B6B93F844307B
:10580000DBB25BB2B3F1FF3F03D13B6B002283F805
:1058100044203B6B93F84530DBB25BB2B3F1FF3F02
:1058200003D13B6B002283F84520FFF727F907F1EE
:1058300014023B1D10461946FEF7B0F80346002B34
:1058400032D1386BFEF76CFD0346002B26D03B6B44
:105850001B68002B08D1FFF7E3F83B6B5B68184629
:10586000FEF7E8F9FFF70AF93B6B03F124027B68C6
:1058700010461946FDF722FF386BFEF705FDFFF7CE
:1058800023F80346002B7FF452AF104B4FF08052A9
:105890001A60BFF34F8FBFF36F8F48E7386BFEF787
:1058A000F3FCFFF711F842E7386BFEF7EDFCFFF76A
:1058B0000BF8386BFEF734FD0346002B3FF437AF8F
:1058C000002318463837BD4680BD00BF04ED00E018
:1058D00080B400AF0B4B0B4AD2F8882042F4700220
:1058E000C3F88820084B4CF22052DA81064B4DF663
:1058F0002812DA81044B4FF4E9721A80BD465DF834
:10590000047B704700ED00E00020054090B585B0B5
:1059100000AF78600020FDF727FD0246394B5A6042
:105920001E2001210022FFF79FFC0246364B1A6021
:1059300036483749334AFAF763FF0346002B02DA49
:105940000020FEF7E3FE334B1C68324B1B68184601
:1059500000F0DBFE03462D4821461A46FBF742F8CD
:105960000346002B02DA0020FEF7D0FE07F1080301
:10597000264829490122FBF791F8F860264B1B784D
:105980000D2B22D1254B00221A7013E01E4B1B68F1
:105990001846234900220023FFF784FE1F4B1B7883
:1059A0001F4A11781F4AD1541C4B1B780133DAB2BD
:1059B0001A4B1A70194B1B781C46134B1B68184660
:1059C000FEF796FB03469C42E0D30F4B1B6818463C
:1059D000114900220023FFF7D3FCBB68002B05D040
:1059E000BB680A480C491A46FAF7FCFFFB68002B13
:1059F000BCD00648FAF7BEFF0020FEF787FE14373A
:105A0000BD4690BD0800FF1FBC00FF1F0801FF1F1F
:105A10003001FF1F0400FF1F0401FF1FC000FF1F14
:105A2000C100FF1FC400FF1F80B483B000AF034656
:105A30003960FB7197F90730002B0BDA0D49FB79C0
:105A400003F00F03043B3A68D2B21201D2B20B4406
:105A50001A7609E0084997F907303A68D2B212017C
:105A6000D2B20B4483F800230C37BD465DF8047BAB
:105A7000704700BF00ED00E000E100E080B582B0BB
:105A800002AFFBF75DF9FBF7DBF8FBF7A9F81F2086
:105A90000521FFF7C9FF1A200621FFF7C5FF0423E0
:105AA000009300230193044804495A220023FEF77F
:105AB000EBFCFEF7B1FEFEE70D5900004876000052
:105AC00080B58AB000AF78600023FB61FEF7EEFE80
:105AD000574B1B68002B01D100F00CF9554B1A688D
:105AE0007B681340002B40F08C807B68002B1CD01F
:105AF00008237A6813447B607B6803F00703002B5C
:105B000013D07B6823F0070308337B607B6803F0C6
:105B10000703002B09D04FF0500383F31188BFF324
:105B20006F8FBFF34F8F7B61FEE77B68002B68D0E0
:105B3000414B1B687A689A4263D8404B3B623F4BAB
:105B40001B687B6204E07B6A3B627B6A1B687B624A
:105B50007B6A5A687B689A4203D27B6A1B68002B77
:105B6000F1D1334B1B687A6A9A424AD03B6A1A6871
:105B700008231344FB617B6A1A683B6A1A607B6ADC
:105B80005A687B68D21A08235B009A421ED97A6A47
:105B90007B681344BB61BB6903F00703002B09D08A
:105BA0004FF0500383F31188BFF36F8FBFF34F8F14
:105BB0003B61FEE77B6A5A687B68D21ABB695A6010
:105BC0007B6A7A685A60B86900F0F6F81A4B1A686E
:105BD0007B6A5B68D21A184B1A60174B1A68184B0D
:105BE0001B689A4203D2144B1A68154B1A607B6AE1
:105BF0005A68104B1B681A437B6A5A607B6A002202
:105C00001A60FEF761FEFB6903F00703002B09D061
:105C10004FF0500383F31188BFF36F8FBFF34F8FA3
:105C2000FB60FEE7FB6918462837BD4680BD00BF14
:105C30006829FF1F7429FF1F6C29FF1F6029FF1FA0
:105C40007029FF1F80B586B000AF78607B687B61EC
:105C50007B68002B46D008235B427A6913447B6142
:105C60007B693B613B695A68204B1B681340002BE2
:105C700009D14FF0500383F31188BFF36F8FBFF347
:105C80004F8FFB60FEE73B691B68002B09D04FF08C
:105C9000500383F31188BFF36F8FBFF34F8FBB6047
:105CA000FEE73B695A68114B1B681340002B19D063
:105CB0003B691B68002B15D13B695A680B4B1B686D
:105CC000DB431A403B695A60FEF7F0FD3B695A68B6
:105CD000074B1B681A44064B1A60386900F06CF8D1
:105CE000FEF7F2FD1837BD4680BD00BF7429FF1FC7
