:1000000000000320D90400002105000025050000A0
:100010001D0500001D0500001D050000000000007A
:10002000000000000000000000000000712400003B
:100030001D05000000000000911F000001200000CD
:1000400035050000390500003D05000041050000B0
:1000500045050000490500004D0500005105000060
:1000600055050000590500005D0500006105000010
:1000700065050000690500006D05000071050000C0
:10008000750500001D0500001D0500001D05000090
:100090001D0500001D0500001D0500001D050000D8
:1000A000790500007D050000810500008505000040
:1000B000890500008D050000910500002523000042
:1000C000990500009D050000A1050000A5050000A0
:1000D000A9050000AD050000B10500001D050000E8
:1000E0001D0500001D0500001D0500001D05000088
:1000F0001D0500001D0500001D0500001D05000078
:100100001D0500001D0500001D0500001D05000067
:100110001D0500001D0500001D0500001D05000057
:100120001D0500001D0500001D0500001D05000047
:100130001D0500001D0500001D0500001D05000037
:100140001D050000B5050000B9050000BD05000053
:10015000C1050000C50500001D0500001D050000CB
:100160001D0500001D050000C9050000CD050000AB
:10017000D1050000D5050000D9050000DD0500000F
:10018000E1050000E5050000E9050000310E000072
:10019000510E0000710E00001D0500001D0500003D
:1001A0001D0500001D0500001D0500001D050000C7
:1001B0001D0500001D0500001D0500001D050000B7
:1001C0001D0500001D0500001D0500001D050000A7
:1001D0001D0500001D0500001D0500001D05000097
:1003F0001D0500001D0500001D050000FFFFFFFF9B
:10040000FFFFFFFFFFFFFFFFFFFFFFFFFEFFFFFFFD
:1004100010B5054C237833B9044B13B10448AFF33E
:1004200000800123237010BDDC00FF1F00000000CE
:10043000AC38000008B5064B1BB106480649AFF3BF
:1004400000800648036813B1054B03B1984708BD07
:1004500000000000AC380000E000FF1FD800FF1FC4
:1004600000000000154B002B08BF134B9D46A3F561
:10047000803A00218B460F461348144A121A02F0A4
:10048000EBFA0F4B002B00D098470E4B002B00D0FF
:1004900098470020002104000D000D48002802D0DC
:1004A0000C48AFF3008002F0B1FA2000290001F0FF
:1004B0007DFF02F097FA00BF000008000000032053
:1004C0000000000000000000DC00FF1F0004FF1F10
:1004D000000000000000000072B6094809490160F0
:1004E0000948804709490A4A0A4B9A42BEBF51F857
:1004F000040B42F8040BF8E762B607488047000097
:1005000008ED00E000000000DD200000D43800000D
:100510000000FF1FDC00FF1F65040000FFF7FEBFA7
:1005200035480047354800473548004735480047BB
:1005300035480047354800473548004735480047AB
:10054000354800473548004735480047354800479B
:10055000354800473548004735480047354800478B
:10056000354800473548004735480047354800477B
:10057000354800473548004735480047354800476B
:10058000354800473548004735480047354800475B
:10059000354800473548004735480047354800474B
:1005A000354800473548004735480047354800473B
:1005B000354800473548004735480047354800472B
:1005C000354800473548004735480047354800471B
:1005D0003448004733480047324800473148004715
:1005E000304800473048004730480047304800470F
:1005F000304800473048004721050000250500002D
:1006000071240000911F000001200000910E0000E5
:10061000A50E0000B90E0000CD0E0000E10E000096
:10062000F50E0000090F00001D0F0000310F000043
:10063000450F0000590F00006D0F0000810F0000F2
:10064000950F0000A90F0000BD0F00001D05000060
:10065000490D0000650D000069110000A5110000A2
:10066000C10C0000050D00001D0500001907000069
:100670001D050000450700001D0500007107000072
:100680001D0500009D0700001D050000E111000090
:10069000C90700001D050000F50700001D0500004A
:1006A000810D0000ED0D0000010800001D05000097
:1006B0001D0500001D0500001D05000080B485B06B
:1006C00000AFF860B9607A600CE0FB681B79DBB2C0
:1006D000DBB25BB2002BF8DABB685A1CBA601A783E
:1006E000FB68DA717B685A1E7A60002BEDD11437F3
:1006F000BD465DF8047B704780B500AF034B1B68B7
:10070000034A126803481146984780BD6002FF1FE4
:100710004802FF1F00A0064080B500AFFFF7ECFFC6
:1007200080BD00BF80B500AF034B1B68034A526811
:1007300003481146984780BD6002FF1F4802FF1F13
:1007400000B0064080B500AFFFF7ECFF80BD00BFF2
:1007500080B500AF034B1B68034A926803481146FB
:10076000984780BD6002FF1F4802FF1F00C006407F
:1007700080B500AFFFF7ECFF80BD00BF80B500AFD4
:10078000034B1B68034AD26803481146984780BD53
:100790006002FF1F4802FF1F00D0064080B500AF77
:1007A000FFF7ECFF80BD00BF80B500AF034B1B68B7
:1007B000034A126903481146984780BD6002FF1F33
:1007C0004802FF1F00A00E4080B500AFFFF7ECFF0E
:1007D00080BD00BF80B500AF034B1B68034A526960
:1007E00003481146984780BD6002FF1F4802FF1F63
:1007F00000B00E4080B500AFFFF7ECFF80BD00BF3A
:1008000080B500AF094B1B68002B06D108484FF498
:10081000A961084A084B00F001FD084B1B68034A18
:10082000126807481146984780BD00BF4002FF1F6D
:100830006C2A000024380000582C00004402FF1FDE
:1008400000100B4080B485B000AF78607B681B0C53
:1008500003F1804303F58E23FB60FB68FA6811689F
:100860007A6892B2012000FA02F20A431A60143741
:10087000BD465DF8047B704780B584B000AF7860FA
:100880000623BB600023FB6009E00E4BFA6853F8B7
:1008900022207B689A4206D0FB680133FB60FA682D
:1008A000BB689A42F1D3FA68BB689A4205D30648FE
:1008B000A921064A064B00F0B1FCFB681846103728
:1008C000BD4680BD3C380000702C00006C38000034
:1008D000882C000080B588B000AFF860B9607A60FD
:1008E000BB68002B05D1A348D421A34AA34B00F039
:1008F00095FCBB681B68002B05D19E48D5219E4AFC
:100900009F4B00F08BFCFA689E4B9A4220D0FA680D
:100910009D4B9A421AD0FA689C4B9A4214D0FA68BE
:100920009B4B9A420ED0FA689A4B9A4208D0FA68CA
:10093000994B9A4201D101230BE04FF0FF3308E0BD
:10094000012306E0012304E0012302E0082300E084
:100950000823BA689279934205DA8648D721864AF5
:100960008E4B00F05BFCFA68864B9A4220D0FA6806
:10097000854B9A421AD0FA68844B9A4214D0FA688E
:10098000834B9A420ED0FA68824B9A4208D0FA689A
:10099000814B9A4201D101230BE04FF0FF3308E075
:1009A000012306E0012304E0012302E0082300E024
:1009B0000823BA68D279934205DA6E48D8216E4A84
:1009C000774B00F02BFC0023FB8300237B77002375
:1009D000BB61BB681B681B017A68B2FBF3F3FB8346
:1009E000FB8B002B01D10123FB8300237B617B6800
:1009F0005A00BB681B68B2FBF3F39AB2FB8B194633
:100A0000C902CB1A5B019BB213447B827B685A00FC
:100A1000FB8B59017B8A0B44B2FBF3F37B61BB6810
:100A20001A687B699A4204D2BB681B687A69D31A38
:100A300003E0BB681A687B69D31ABB61BB681A689C
:100A4000584BA3FB02135A0913465B001A44BB69B7
:100A50009A4202D240F2F53387E0F868FFF70CFFC4
:100A60000246514B53F822301846FFF7EBFEFB6865
:100A7000DB78DBB223F00C03DAB2FB68DA70FB68D8
:100A80001B78DBB223F01F03DAB2FB8B1B0A9BB28D
:100A9000DBB21343DAB2FB681A70FB8BDAB2FB6885
:100AA0005A70FB689B7ADBB223F01F03DAB27B8AB1
:100AB000DBB203F01F03DBB21343DAB2FB689A72B6
:100AC000FB689B78DBB223F013037B77BB681B7951
:100AD000002B07D0BB681A797B7F1343DBB243F04E
:100AE00010037B77FB687A7F9A70FB681B78DBB218
:100AF00023F02003DAB2BB685B795B01DBB203F061
:100B00002003DBB21343DAB2FB681A70BB689A7930
:100B1000FB68DA74BB68DA79FB685A75FB681B7C82
:100B2000DBB263F07703DAB2FB681A74FB685B7CB4
:100B3000DBB263F03F03DAB2FB685A74FB68DB7820
:100B40007B77BB681B7A002B03D07B7F43F00803C5
:100B50007B77BB685B7A002B03D07B7F43F0040379
:100B60007B77FB687A7FDA70002318462037BD4612
:100B700080BD00BF702C000080380000D82A000023
:100B8000A42C000000A0064000B0064000C00640B3
:100B900000D0064000A00E4000B00E40BC2C00006B
:100BA000FC2C00001F85EB515438000080B582B04A
:100BB00000AF78607B68002B06D1104840F25D11D1
:100BC0000F4A104B00F02AFB7B684FF4E1321A60A9
:100BD0007B6800221A717B6800225A717B680022B0
:100BE0009A717B680122DA717B6800221A727B6835
:100BF00000225A720837BD4680BD00BF702C00002D
:100C00008C380000D82A000080B483B000AF786030
:100C100039603A68174B13403B607B681B78DAB247
:100C20003B68DBB21343DAB27B681A707B68DB780F
:100C3000DAB23B681B0ADBB21343DAB27B68DA70C4
:100C40007B689B79DAB23B681B0CDBB21343DAB2E8
:100C50007B689A717B685B7CDAB23B681B0EDBB207
:100C60001343DAB27B685A740C37BD465DF8047BD7
:100C7000704700BFC0F00F0780B485B000AF786048
:100C80007B681B79DBB21A467B685B79DBB21B029F
:100C90001343FB607B681B7BDBB21B04FA681343C6
:100CA000FB607B689B7CDBB21B06FA681343FB602E
:100CB000FB6818461437BD465DF8047B704700BFDB
:100CC00080B500AF094B1B68002B06D1084840F2E5
:100CD0001A41084A084B00F0A1FA084B1B68034A66
:100CE000126807481146984780BD00BF3002FF1FB9
:100CF0004C2D0000EC3700006C2D00003802FF1F67
:100D000000F0024080B500AF094B5B68002B06D1B4
:100D100008484FF48461084A084B00F07FFA084BFA
:100D20001B68034A526807481146984780BD00BFB8
:100D30003002FF1F4C2D000008380000802D0000FD
:100D40003C02FF1F00F0024080B500AF034B1B6860
:100D50000348194600F022F880BD00BF1C02FF1FA7
:100D60000060064080B500AF034B5B68034819463E
:100D700000F014F880BD00BF1C02FF1F0070064089
:100D800080B500AF034B9B680348194600F006F896
:100D900080BD00BF1C02FF1F00600E4080B582B006
:100DA00000AF786039607B68DB78DBB203F010035A
:100DB000002B06D17B689B78DBB203F02003002B6D
:100DC00005D0084B1B6878683968984704E0064BE3
:100DD0001B68786839689847BFF34F8F0837BD465E
:100DE00080BD00BF2802FF1F2C02FF1F80B500AF8F
:100DF000094B1B68002B06D1084840F21F51084AD6
:100E0000084B00F00BFA084B1B68034A12680748AE
:100E10001146984780BD00BF1402FF1F942D0000AB
:100E2000D4370000482F00001802FF1F0040024086
:100E300080B500AF034B1B68034A12680348114694
:100E4000984780BD0802FF1F0402FF1F00000C40EE
:100E500080B500AF034B1B68034A12680348114674
:100E6000984780BD0C02FF1F0402FF1F00000C40CA
:100E700080B500AF034B1B68034A12680348114654
:100E8000984780BD1002FF1F0402FF1F00000C40A6
:100E900080B500AF024B1B68184600F099F880BD82
:100EA000C401FF1F80B500AF024B5B68184600F01D
:100EB0008FF880BDC401FF1F80B500AF024B9B6857
:100EC000184600F085F880BDC401FF1F80B500AF53
:100ED000024BDB68184600F07BF880BDC401FF1FA1
:100EE00080B500AF024B1B69184600F071F880BD59
:100EF000C401FF1F80B500AF024B5B69184600F0CC
:100F000067F880BDC401FF1F80B500AF024B9B692D
:100F1000184600F05DF880BDC401FF1F80B500AF2A
:100F2000024BDB69184600F053F880BDC401FF1F77
:100F300080B500AF024B1B6A184600F049F880BD2F
:100F4000C401FF1F80B500AF024B5B6A184600F07A
:100F50003FF880BDC401FF1F80B500AF024B9B6A04
:100F6000184600F035F880BDC401FF1F80B500AF02
:100F7000024BDB6A184600F02BF880BDC401FF1F4E
:100F800080B500AF024B1B6B184600F021F880BD06
:100F9000C401FF1F80B500AF024B5B6B184600F029
:100FA00017F880BDC401FF1F80B500AF024B9B6BDB
:100FB000184600F00DF880BDC401FF1F80B500AFDA
:100FC000024BDB6B184600F003F880BDC401FF1F25
:100FD00090B589B000AF78607B68002B06D150488F
:100FE00040F23A314F4A504B00F018F97B689B6849
:100FF0007A68127CDA777B68DB68002B0DD17B681E
:101000001B68002B09D07B681C687B685B6878686C
:10101000194601220023A0477EE07B689A687B681E
:101020001B7C5B01134403F5805318331B687B6101
:101030007B689A687B681B7C5B01134403F58053D3
:1010400018339B889BB203F08003002B0CBF002356
:101050000123FB747B68DB687A69D31A7B617B6947
:101060005B09FB60FB7C002B02D0FB68FB760EE08B
:10107000FB68002B04D0FB68DBB2013BDBB205E070
:101080007B681B7DDBB2DBB2013BDBB2FB76FA7E19
:101090007B685B7CDBB25BB29A4212D17B68DB7C03
:1010A000DAB27B681B7DDBB252B25BB29A4205D1E9
:1010B0007B68DB7CDBB25BB2FB6113E00023FB618E
:1010C00010E0FA7E7B685B7CDBB25BB2D31AFB611B
:1010D000FB69002B06DA7B681B7DDBB25BB2FA6929
:1010E0001344FB61FA7E7B685A747B68DB7CDBB25D
:1010F000DAB2FB69DBB2D31ADBB2DAB27B68DA743C
:101100007B681B68002B07D07B681C687B6859686C
:10111000FB69FA7C7868A0472437BD4690BD00BFC4
:10112000902F0000C43700006430000080B582B00A
:1011300000AF78603960786800F084F80346002BCF
:1011400005D0074B1B6878683968984704E0054B61
:101150001B687868396898470837BD4680BD00BF6E
:10116000BC01FF1FC001FF1F80B500AF084B1B680B
:10117000002B06D1074840F25761074A074B00F0A1
:101180004DF8034B1B6806481946FFF7CFFF80BD9B
:10119000B001FF1FB03100007C370000D0310000EB
:1011A00000C0024080B500AF084B5B68002B06D141
:1011B000074840F25F61074A074B00F02FF8034BE6
:1011C0005B6806481946FFF7B1FF80BDB001FF1FFD
:1011D000B031000094370000E031000000D0024040
:1011E00080B500AF084B9B68002B06D1074840F242
:1011F0006761074A074B00F011F8034B9B680648EC
:101200001946FFF793FF80BDB001FF1FB03100000A
:10121000AC370000F031000000C00A4080B586B055
:1012200002AFF860B9607A603B607B680093044865
:101230003968FA68BB6801F033F900BEFDE700BF0A
:101240000033000080B483B000AF78607B681B6817
:10125000DB0FDBB218460C37BD465DF8047B7047E8
:1012600080B582B000AF0B463A600246FA71BB719E
:101270003B68002B06D1124840F25C61114A124BC8
:10128000FFF7CCFFFB79184600F00EF9BB79184642
:10129000396800F05DFA0D4B0C4A1278D2B202F0B8
:1012A0003F02D2B21A70094B9B79DBB203F00C03F8
:1012B0009B08032BF7D1002318460837BD4680BD95
:1012C00040340000683700005834000000400640F9
:1012D00080B582B000AF7860094B7A68526803F538
:1012E000825304331A607B681B78184600F09EFA1C
:1012F0007B685B78184600F083FA0837BD4680BDEE
:101300000070044080B582B000AF164B9B79DBB211
:1013100003F00C039B083B603B68032B1AD801A227
:1013200052F823F03D130000451300004D13000058
:101330003513000000F07CF878600DE000F014F840
:10134000786009E000F06CFB786005E000F0BEFA20
:10135000786001E000237B607B6818460837BD4653
:1013600080BD00BF0040064080B582B000AF194B81
:101370005B78DBB203F00203002B06D1154B9B799F
:10138000DBB203F02003002B01D000231DE000F0AE
:1013900069FB78607B68002B01D17B6815E00D4B01
:1013A000DB78DBB203F060035B09FB70094BDB7891
:1013B000DBB2DB09BB70F978BA78074B49000A4405
:1013C00033F812307A6802FB03F318460837BD463B
:1013D00080BD00BF004006401C37000080B500AF54
:1013E000064B1B78DBB203F00203002B01D1002374
:1013F00002E000F015FB0346184680BD00400640A1
:1014000080B582B000AF00F02DFB78607B68002BC8
:1014100008D0FFF777FF0346DA087B689A4201D3CA
:101420007B6800E0002318460837BD4680BD00BF3A
:1014300080B582B000AF184B9B79DBB203F040035C
:10144000002B01D1002322E000F022FB78607B68B2
:10145000002B06D1114840F27D21114A114BFFF7B4
:10146000DDFE0D4B1B79DBB203F01F0301337A68FD
:10147000B2FBF3F37B60084B5B79DBB203F01F0335
:1014800003F118027B6802FB03F37B607B6818465C
:101490000837BD4680BD00BF00400640E035000073
:1014A0002C370000F835000080B485B000AF03464B
:1014B000FB71204B1B7BDBB203F00302FB799A42EA
:1014C00002D00123FB7301E00023FB73194B194A7F
:1014D000127BD2B222F00302D1B2FA7902F00302F7
:1014E000D2B20A43D2B21A73FB79002B0DD1114B41
:1014F0005B78DBB203F00403002B06D00D4B9B7925
:10150000DBB203F00203002BF8D0FB7B002B09D0E9
:1015100040F2DC53BB6000E000BFBB685A1EBA60FB
:10152000002BF9D1002318461437BD465DF8047B23
:10153000704700BF0040064080B485B000AF13463E
:101540000246FA710A46BA717B713A4B9B79DBB25B
:1015500003F00C039B08FB60364B9B79DBB203F076
:101560000103FB72334B1B7ADBB203F00E035B0803
:10157000BB727A79BB7A9A422BD0FB7A012B18D1B5
:10158000FB68012B06D02B4B1B78DBB203F0020368
:10159000002B0ED0274B274A5278D2B222F00102FC
:1015A000D2B25A70234B9B79DBB203F00103002BBC
:1015B000F8D1204B1F4A127AD2B222F02F02D1B2B8
:1015C0007A795200D2B202F00E02D2B20A43D2B2FB
:1015D0001A72184B174A5278D2B222F00102D1B2D5
:1015E000BA7902F00102D2B20A43D2B25A70114B58
:1015F000104A1278D2B222F00302D1B2FA790A4329
:10160000D2B21A70FB68012B04D0FB7903F00203FD
:10161000002B07D0074B9B79DBB203F00102BB79AB
:101620009A42F7D1002318461437BD465DF8047B73
:10163000704700BF0040064080B584B000AF7860BE
:101640007B68002B06D11C4840F247311B4A1C4BDB
:10165000FFF7E4FD0023FB737B685B7803F01F0357
:10166000DAB2FB7B1343FB73164BFA7B1A71154BF3
:10167000144A5279D2B222F01F02D1B27A6892781B
:1016800002F01F02D2B20A43D2B25A710D4B0D4A78
:101690001279D1B27A6812780A43D2B242F040028B
:1016A000D2B21A71074B9B79DBB203F04003002BD7
:1016B000F8D01037BD4680BDE0350000403700004F
:1016C000043600000040064080B584B000AF78606A
:1016D0007B681B68184600F0E3F90346FB737B68E0
:1016E0001B791948194600F0D7F87B68063316486D
:1016F000194600F0B7F8154B144A5278D2B222F0CE
:101700003C02D1B2FA7B1201D2B202F03002D2B264
:101710000A43D1B27A6852790A43D2B25A707B68CE
:101720005B79002B0DD0084B1B78DBB2DBB25BB2D0
:10173000002B06DA054B9B79DBB203F00203002B8A
:10174000F8D01037BD4680BD00500640004006402E
:1017500080B582B000AF03463960FB713B68002B57
:1017600006D1234840F2BD51224A234BFFF756FDD4
:10177000224B224A5278D2B222F00202D2B25A70DE
:101780001E4B1E4A1278D2B202F03B02D2B262F075
:101790007F02D2B21A70194B9B79DBB203F01C03A3
:1017A000082BF8D1154B154A5279D2B222F04002DB
:1017B000D2B25A71114B9B79DBB203F02003002B9C
:1017C000F8D13868FFF738FF0C4B0C4A5279D2B287
:1017D00042F04002D2B25A71084B9B79DBB203F05F
:1017E0002003002BF8D0002318460837BD4680BDE3
:1017F000E035000054370000043600000040064089
:1018000080B483B000AF7860074B074A126822F4B7
:1018100040217A68920402F440220A431A600C378D
:10182000BD465DF8047B70470070044080B483B00F
:1018300000AF78600A490A4B03F5805304331B68F4
:1018400023F440327B681B0403F440331A4301F550
:10185000805304331A600C37BD465DF8047B704733
:101860000070044080B485B000AF786039607B6858
:101870001B78FB73FB7B03F05F03FB733B681A78F9
:10188000FB7B1343FB737B68FA7B1A701437BD46EE
:101890005DF8047B704700BF80B485B000AF78600E
:1018A0000B46FB707B681B78FB73FB7B23F00F03FD
:1018B000FB73FA7BFB781343FB737B68FA7B1A702C
:1018C0001437BD465DF8047B704700BF80B582B019
:1018D00000AF194B1B7BDBB203F00303012B12D0CB
:1018E000012B02D3022B1CD01EE0144B1B68002BD3
:1018F00005D11348D421134A134BFFF78FFC0F4B2C
:101900001B687B6012E0114B1B68002B05D10C4853
:10191000D9210C4A0E4BFFF781FC0C4B1B687B60F6
:1019200004E00C4B7B6001E000237B607B68184681
:101930000837BD4680BD00BF00400640A801FF1F1C
:1019400084360000D43600009C360000AC01FF1F36
:10195000A8360000006CDC0280B582B000AFFFF753
:10196000B5FF78607B68002B01D17B684DE0294B87
:101970001B78DBB203F03803DB08FB70FB787A6876
:1019800022FA03F37B60234B5B78DBB203F0300376
:101990001B09BB701F4B1B7BDBB203F003037B7087
:1019A000BB78002B02D07B78002B02D07B78022BF7
:1019B0002AD1FB78072B25D801A151F823F000BFCD
:1019C000E1190000E1190000E1190000E11900002F
:1019D000E1190000E1190000E9190000F719000001
:1019E0007B685B097B600FE07A680B4BA3FB0213FB
:1019F0001B097B6008E07A68084BA3FB0213DB0835
:101A00007B6001E000237B607B6818460837BD4699
:101A100080BD00BF00400640CDCCCCCCABAAAAAA6A
:101A200080B400AF0C4B9B79DBB203F00103002BB9
:101A300002D10A4B1B6809E0094B1A68064B1B7A56
:101A4000DBB203F00E035B0822FA03F31846BD462F
:101A50005DF8047B704700BF004006407000FF1F28
:101A60007400FF1F80B500AF074B9B79DBB203F01A
:101A700010031B09002B03D1FFF76EFF034601E0A3
:101A8000024B1B68184680BD004006407000FF1FD7
:101A900080B500AFFFF71AFF0346184680BD00BFB0
:101AA00080B485B000AF78607A6849F697039A42AF
:101AB00002D80023FB7308E07A68074B9A4202D8E9
:101AC0000123FB7301E00223FB73FB7B18461437F1
:101AD000BD465DF8047B704700127A0080B500AF08
:101AE0000B4B1B78DBB2DBB25BB2002B0DDA094B80
:101AF0001B68002B06D1084840F26511074A084BC5
:101B0000FFF78CFB034B1B6800E00023184680BDE9
:101B100000500640A801FF1F84360000EC3600008C
:101B20009C36000080B582B000AF184B1B6803F4F0
:101B300040239B0C022B0FD0032B1CD0002B1ED15B
:101B4000FFF7CCFF0346B3F5004F02D14FF400433B
:101B500000E000237B6014E00D4B1B68002B06D1D6
:101B60000C4840F279110C4A0C4BFFF757FB084B1D
:101B70001B687B6005E04FF47A737B6001E0002313
:101B80007B607B6818460837BD4680BD0070044006
:101B9000AC01FF1F8436000004370000A8360000A7
:101BA00080B582B000AF104B03F5805304331B683F
:101BB00003F440331B0C012B08D0012B02D3032B61
:101BC00008D00AE0FFF7D0FB786008E0FFF730FCB0
:101BD000786004E0054B7B6001E000237B607B685C
:101BE00018460837BD4680BD00700440006CDC021A
:101BF00080B584B000AF0346FB71FB79132B00F274
:101C00008C8001A252F823F0591C0000591C0000DE
:101C1000751C0000951C0000B51C00001B1D000079
:101C2000D51C0000DD1C0000E51C00001B1D000091
:101C30001B1D0000ED1C0000F51C0000FD1C000039
:101C4000051D00001B1D00001B1D00001B1D0000CA
:101C50000D1D0000131D0000FFF754FB0246324B20
:101C600003F5825304331B681B0F0133B2FBF3F3FC
:101C7000FB6054E0FFF746FB02462B4B03F5825313
:101C800004331B6803F070631B0E0133B2FBF3F3E4
:101C9000FB6044E0FFF736FB0246234B03F582531B
:101CA00004331B6803F470031B0D0133B2FBF3F321
:101CB000FB6034E0FFF726FB02461B4B03F5825323
:101CC00004331B6803F470231B0C0133B2FBF3F3E2
:101CD000FB6024E0FFF764FFF86020E0FFF722FFDD
:101CE000F8601CE0FFF7FAFEF86018E0FFF788FBE9
:101CF000F86014E0FFF772FBF86010E0FFF734FBC8
:101D0000F8600CE0FFF794FBF86008E0074BFB601D
:101D100005E04FF47A73FB6001E00023FB60FB6891
:101D200018461037BD4680BD00700440006CDC02D0
:101D300080B586B000AF00237B614A4B1B68002B47
:101D40007ED1494B1B6801333B61474B3A691A60AE
:101D50003B69002B1FD1454B1B681B68002B09D02A
:101D60004FF0500383F31188BFF36F8FBFF34F8F92
:101D70003B60FEE73D4B1B68FB603D4B1A683B4BED
:101D80001A603B4BFA681A603A4B1B685A1C394B75
:101D90001A6000F0D7F8384B1B683A699A4255D35D
:101DA00000E000BF314B1B681B68002B01D10123F1
:101DB00000E00023002B04D02F4B4FF0FF321A60BD
:101DC00044E02A4B1B68DB68DB68BB60BB685B6870
:101DD0007B603A697B689A4203D2274B7A681A6023
:101DE00034E0BB680433184600F04EF9BB689B6AC8
:101DF000002B04D0BB681833184600F045F9BB68C7
:101E0000DB6A01229A401D4B1B681A431B4B1A6068
:101E1000BB68DA6A13469B0013449B00184A1A44B5
:101E2000BB6804331046194600F00AF9BB68DA6A49
:101E3000144B1B68DB6A9A42B3D301237B61B1E781
:101E4000114B1B685A1C104B1A6000E000BF0F4B6F
:101E50001B68002B01D001237B617B691846183772
:101E6000BD4680BDA401FF1F8C01FF1F8401FF1F21
:101E70008801FF1F9C01FF1FA001FF1F9001FF1F92
:101E80002001FF1F1C01FF1F9401FF1F9801FF1F6E
:101E900080B487B000AF264B1B68002B03D0254BC6
:101EA00001221A603EE0234B00221A60224B1B687D
:101EB000FB60FB68B3FA83F3FB72FB7AC3F11F0389
:101EC0007B611E497A6913469B0013449B000B44B7
:101ED0001B68002B09D14FF0500383F31188BFF327
:101EE0006F8FBFF34F8F7B60FEE77A6913469B00CD
:101EF00013449B00114A13443B613B695B685A6879
:101F00003B695A603B695A683B6908339A4204D17D
:101F10003B695B685A683B695A603B695B68DA6891
:101F2000074B1A601C37BD465DF8047B704700BF45
:101F3000A401FF1F9801FF1F9001FF1F2001FF1F39
:101F40001C01FF1F80B483B000AF0E4B1B681B68E1
:101F5000002B01D1012300E00023002B04D00A4B09
:101F60004FF0FF321A6008E0064B1B68DB68DB6845
:101F70007B607B685A68044B1A600C37BD465DF87D
:101F8000047B70478401FF1FA001FF1F00000000B9
:101F9000EFF30980BFF36F8F154B1A681EF0100F17
:101FA00008BF20ED108A20E9F04F10604DF8043D85
:101FB0004FF0500080F31188BFF34F8FBFF36F8F46
:101FC000FFF766FF4FF0000080F3118808BC196826
:101FD0000868B0E8F04F1EF0100F08BFB0EC108A90
:101FE00080F30988BFF36F8F704700BFAFF30080A5
:101FF0001C01FF1FAFF30080AFF30080AFF3008040
:1020000080B582B000AF4FF0500383F31188BFF367
:102010006F8FBFF34F8F7B60FFF78AFE0346002B65
:1020200003D0064B4FF080521A6000233B603B68A0
:1020300083F311880837BD4680BD00BF04ED00E082
:1020400080B485B000AF786039607B685B68FB6006
:102050003B68FA685A60FB689A683B689A60FB685C
:102060009B683A685A60FB683A689A603B687A688D
:102070001A617B681B685A1C7B681A601437BD465E
:102080005DF8047B704700BF80B485B000AF786016
:102090007B681B69FB607B685B687A6892689A6002
:1020A0007B689B687A6852685A60FB685A687B68EC
:1020B0009A4203D17B689A68FB685A607B68002269
:1020C0001A61FB681B685A1EFB681A60FB681B6874
:1020D00018461437BD465DF8047B704780B400AFE6
:1020E0000B4B0B4AD2F8882042F47002C3F88820C8
:1020F000084B4CF22052DA81064B4DF62812DA8159
:10210000044B4FF4E9721A80BD465DF8047B7047BA
:1021100000ED00E00020054080B400AF054B03F562
:10212000825304334FF092721A60BD465DF8047B0F
:10213000704700BF0070044080B483B000AF786087
:10214000034B7A681A600C37BD465DF8047B704714
:10215000A801FF1F80B584B000AF134A07F10C033C
:102160001188927819809A70104A3B1D92E80300FA
:1021700083E80300FFF7D0FF00F01EF807F10C031F
:10218000002000211A46FFF76BF8022000210022F0
:10219000FFF7D2F93B1D1846FFF79AF8044B054AA2
:1021A0001A601037BD4680BDC0360000C43600003E
:1021B0000000FF1F000E270780B582B000AF084A5D
:1021C0003B4692E8030083E803003B461846FFF7CE
:1021D0007BFA0448FFF7B0FF0837BD4680BD00BF5B
:1021E000CC36000080F0FA0280B485B000AF786091
:1021F0007B681B0C03F1804303F58E23FB60FB68B7
:10220000FA6811687A6892B2012000FA02F20A4371
:102210001A601437BD465DF8047B704780B485B002
:1022200000AFF860B9601346FB71FB68BA6853F8F9
:10223000223023F4E062FB791B0203F4E06342EAFC
:102240000301FB68BA6843F822101437BD465DF8F5
:10225000047B704780B500AF0C48FFF7C5FF0C4802
:1022600010210322FFF7DAFF094811210322FFF7AB
:10227000D5FF0849074B03F5805310331B6823F043
:10228000030201F5805310331A6080BD0A00381034
:1022900000A004400070044080B483B000AF034647
:1022A000FB71084B97F907205209F97901F01F01DA
:1022B000012000FA01F143F822100C37BD465DF809
:1022C000047B704700E100E080B582B000AF0346B8
:1022D000FB7197F9073013F1800F04D097F907309D
:1022E0001846FFF7D9FF0837BD4680BD80B483B0DC
:1022F00000AF78600B46FB707B68FA78DA710C37B8
:10230000BD465DF8047B704780B483B000AF786051
:102310007B68DB79DBB218460C37BD465DF8047B81
:10232000704700BF80B582B000AF1B48FEF7A4FC29
:10233000034603F02803002B2BD01748FFF7E4FFD8
:102340000346FB71154B1B889BB25A1C144B134060
:10235000002B03DA013B63F00F0301331A46114BE4
:102360001B889BB29A4214D00C4B1B889BB20E4A1E
:10237000F979D154094B1B889BB201339AB2074BB0
:102380001A80064B1B889BB203F00F039AB2034BD3
:102390001A800837BD4680BD00A006401A01FF1F05
:1023A0000F0000801801FF1F0801FF1F80B584B0D7
:1023B00000AFFFF74FFFFFF7CDFE3B1D1846FEF7BE
:1023C000F5FB4FF4E1337B6001233B7301237B7307
:1023D0000020FFF70DFC03463A1D1E4811461A4621
:1023E000FEF778FA1B481C496A22FEF767F919487C
:1023F0004FF40221FEF708FC1F20FFF765FF17E0EE
:10240000164B1B889BB2164AD35C12481946FFF73D
:102410006DFF124B1B889BB201339AB20F4B1A808F
:102420000E4B1B889BB203F00F039AB20B4B1A8022
:102430000848FEF721FC034603F08003002BF7D089
:10244000084B1B889AB2054B1B889BB29A42D7D186
:10245000EEE700BF00A006400400FF1F1801FF1FA9
:102460000801FF1F1A01FF1F00000000000000000C
:10247000074B19680868B0E8F04F80F30988BFF38C
:102480006F8F4FF0000080F311887047AFF300802A
:102490001C01FF1FAFF30080AFF30080AFF300809B
:1024A0000FB480B582B000AF0B4B1B78002B02D16C
:1024B0004FF0FF3309E007F114033B600748396927
:1024C0003A6800F0D3F878607B6818460837BD4654
:1024D000BDE8804004B07047F800FF1FE124000011
:1024E00080B582B000AF78600A4B1B78002B02D118
:1024F0004FF0FF3309E0074B9B68064A51683A1DCD
:102500000846114601229847012318460837BD4660
:1025100080BD00BFF800FF1F80B586B000AFB96076
:102520007A603B600346FB73BB687B610CE097F904
:102530000F203B6A104698473B681B685A1C3B6853
:102540001A607B6901337B617A697B689A42EEDBB2
:102550001837BD4680BD00BF80B48DB000AFF860B5
:10256000B9607A603B600023FB61FB68BB61BB69BB
:102570005A1CBA6100221A707B68002B35D0BB68E8
:102580001B68FB62FB6A002B2BD1BB6930221A70DF
:10259000FB690133FB61FB6962E0FA6A3B6892FB0D
:1025A000F3F37B617B693A6802FB03F3FA6AD31A9F
:1025B000BB62BB6A002B06DABB6A3B623B6AC3F1B3
:1025C0003003BB6202E0BB6A3033BB627B69FB62F3
:1025D000BB695A1CBA61BA6AD2B21A70FB6901337C
:1025E000FB61FB6A002BD8D139E0BB681B687B62BA
:1025F0007B6A002B30D1BB6930221A70FB69013332
:10260000FB61FB692CE03B687A6AB2FBF3F33B6148
:102610003B683A6902FB03F37A6AD31A3B623B6A6E
:10262000092B03D83B6A30333B620AE097F8383015
:10263000002B01D0412300E061233A6A13440A3B96
:102640003B623B697B62BB695A1CBA613A6AD2B28F
:102650001A70FB690133FB617B6A002BD3D1FB69E4
:1026600018463437BD465DF8047B704780B59CB092
:1026700002AFF860B9607A6000233B660023FB6517
:102680000023BB61002387F84A3000233B61BB680D
:102690007B6691E17B6C252B06D0FB68786C9847B4
:1026A000BB690133BB6184E1012387F84B30002310
:1026B0007B650023BB651CE07B6E01337B667B6E14
:1026C0001B785BB27B647B6C2F2B0DDD7B6C392B15
:1026D0000ADC7A6D13469B0013445B001A467B6C40
:1026E0001344303B7B6504E07B6E013B7B6601233A
:1026F000BB65BB6D002BDFD006233B657B6E0133D2
:102700007B667B6E1B785BB22E2B25D100233B654D
:102710000023BB651CE07B6E01337B667B6E1B7800
:102720005BB27B647B6C2F2B0DDD7B6C392B0ADC61
:102730003A6D13469B0013445B001A467B6C1344AE
:10274000303B3B6504E07B6E013B7B660123BB6550
:10275000BB6D002BDFD002E07B6E013B7B667B6EA6
:1027600001337B667B6E1B785BB27B647B6C642B76
:102770001BD07B6C692B18D07B6C662B15D07B6CC7
:10278000462B12D07B6C782B0FD07B6C582B0CD047
:102790007B6C6F2B09D07B6C622B06D07B6C702B13
:1027A00003D07B6C752B40F0C3807B6C642B02D014
:1027B0007B6C692B17D17B681A1D7A601B687B6163
:1027C00007F11C0207F1140397F84B100091104613
:1027D000194601220A23FFF7BFFEF86507F11C0224
:1027E000FB6D13443B667B6C582B02D07B6C782BC3
:1027F0001DD17B6C782B02D1002387F84B307B688E
:102800001A1D7A601B683B6107F11C0207F1100377
:1028100097F84B1000911046194600221023FFF73D
:102820009BFEF86507F11C02FB6D13443B667B6C55
:102830006F2B08D07B6C622B05D07B6C702B02D089
:102840007B6C752B57D17B681A1D7A601B683B61C6
:102850007B6C623B132B3AD801A252F823F000BFE5
:10286000B9280000CF280000CF280000CF280000A2
:10287000CF280000CF280000CF280000CF2800007C
:10288000CF280000CF280000CF280000CF2800006C
:10289000CF280000B1280000C1280000CF28000088
:1028A000CF280000CF280000CF280000C928000052
:1028B000082387F84A300AE0022387F84A3006E006
:1028C000102387F84A3002E00A2387F84A3097F845
:1028D0004A3007F11C0107F1100297F84B000090F5
:1028E000084611460022FFF737FEF86507F11C0283
:1028F000FB6D13443B667A6D07F11803F96800918C
:102900002020F96DFFF708FE3B6E002B0BD150E045
:102910003B6E5A1E3A661B785AB2FB6810469847BF
:10292000BB690133BB613B6E1B78002BF0D140E0EB
:102930007B6C632B0DD17B681A1D7A601B68DBB240
:102940005BB23B64FB68386C9847BB690133BB6181
:102950002FE07B6C732B26D17B681A1D7A601B6875
:10296000FB64FB6C002B24D0F86C00F033F80346BA
:10297000FB657A6D07F11803F96800912020F96D65
:10298000FFF7CAFD0AE0FB6C5A1CFA641B785AB2C6
:10299000FB6810469847BB690133BB61FB6C1B7831
:1029A000002BF0D105E0FB68786C9847BB690133D8
:1029B000BB617B6E01337B667B6E1B785BB27B6495
:1029C0007B6C002B7FF466AEBB6918466837BD464A
:1029D00080BD00BF034613F8012B002AFBD1181A53
:1029E0000138704708B5074B044613B10021AFF317
:1029F0000080054B1868836A03B19847204600F0B1
:102A000033F800BF00000000A838000070B50E4B7E
:102A10000E4DED1AAD1000241E46AC4204D056F8FF
:102A2000242090470134F8E700F040FF084D094B9F
:102A3000ED1AAD1000241E46AC4204D056F82420F6
:102A400090470134F8E770BDCC380000CC38000066
:102A5000D0380000CC38000002440346934202D034
:102A600003F8011BFAE77047FEE700BF2E2E2F6424
:102A70007269766572732F66736C5F736468632E18
:102A8000630000006361706162696C6974790000C1
:102A9000737263436C6F636B5F487A20213D203013
:102AA0005500000028627573436C6F636B5F487A52
:102AB00020213D2030552920262620286275734389
:102AC0006C6F636B5F487A203C3D20737263436C8C
:102AD0006F636B5F487A2900636F6E6669670000F9
:102AE000636F6E6669672D3E64617461426C6F63EB
:102AF0006B53697A65203C3D2028534448435F422C
:102B00004C4B415454525F424C4B53495A455F4DD4
:102B100041534B203E3E20534448435F424C4B417F
:102B20005454525F424C4B53495A455F53484946AF
:102B300054290000636F6E6669672D3E646174619D
:102B4000426C6F636B436F756E74203C3D2028535D
:102B50004448435F424C4B415454525F424C4B43B8
:102B60004E545F4D41534B203E3E20534448435FFB
:102B7000424C4B415454525F424C4B434E545F5372
:102B80004849465429000000636F6E6669672D3E10
:102B900061636B54696D656F7574436F756E7420F6
:102BA0003C3D2028534448435F4D4D43424F4F54D2
:102BB0005F44544F435641434B5F4D41534B203E7E
:102BC0003E20534448435F4D4D43424F4F545F4472
:102BD000544F435641434B5F5348494654290000E4
:102BE000636F6E6669672D3E626C6F636B436F75D2
:102BF0006E74203C3D2028534448435F4D4D434272
:102C00004F4F545F424F4F54424C4B434E545F4DD5
:102C100041534B203E3E20534448435F4D4D434279
:102C20004F4F545F424F4F54424C4B434E545F53AF
:102C300048494654290000007472616E73666572DB
:102C40000000000068616E646C65000063616C6C7C
:102C50006261636B00000000735F736468634861C6
:102C60006E646C655B305D00FFFFFFFFFFFFFFFFE1
:102C70002E2E2F647269766572732F66736C5F7582
:102C80006172742E63000000696E7374616E636517
:102C9000203C20756172744172726179436F756E68
:102CA00074000000636F6E6669672D3E6261756433
:102CB000526174655F4270730000000046534C5FC0
:102CC000464541545552455F554152545F46494629
:102CD0004F5F53495A456E286261736529203E3D16
:102CE00020636F6E6669672D3E74784669666F571C
:102CF000617465726D61726B0000000046534C5F39
:102D0000464541545552455F554152545F464946E8
:102D10004F5F53495A456E286261736529203E3DD5
:102D200020636F6E6669672D3E72784669666F57DD
:102D3000617465726D61726B0000000062617564A0
:102D4000526174655F427073000000002E2E2F6484
:102D50007269766572732F66736C5F7361692E6337
:102D60000000000068616E646C650000735F736151
:102D70006948616E646C655B305D5B305D000000CE
:102D8000735F73616948616E646C655B305D5B3174
:102D90005D0000002E2E2F647269766572732F66B7
:102DA000736C5F666C657863616E2E630000000073
:102DB000636F6E66696700006D61736B49647820AC
:102DC0003C3D2028626173652D3E4D4352202620F4
:102DD00043414E5F4D43525F4D41584D425F4D411F
:102DE000534B29006D62496478203C3D2028626184
:102DF00073652D3E4D435220262043414E5F4D4387
:102E0000525F4D41584D425F4D41534B29000000E8
:102E100021464C455843414E5F49734D624F6363B1
:102E2000757069656428626173652C206D62496400
:102E3000782900002828636F6E66696729207C7CEA
:102E4000202866616C7365203D3D20656E61626C73
:102E50006529290028636F6E66696729207C7C20BC
:102E60002866616C7365203D3D20656E61626C650E
:102E700029000000636F6E6669672D3E69644669CC
:102E80006C7465724E756D203C3D20313238000007
:102E9000282873657475705F6D62202D2038292095
:102EA0002D202832202A207266666E2929203E2095
:102EB0003000000074784672616D65007478467267
:102EC000616D652D3E6C656E677468203C3D2038F1
:102ED0000000000072784672616D650068616E6482
:102EE0006C650000786665720000000078666572A7
:102EF0002D3E6D62496478203C3D202862617365F7
:102F00002D3E4D435220262043414E5F4D43525F9C
:102F10004D41584D425F4D41534B290021464C4590
:102F20005843414E5F49734D624F636375706965E5
:102F30006428626173652C20786665722D3E6D622F
:102F40004964782900000000735F666C65786361EE
:102F50006E48616E646C655B305D00002E2E2F64E0
:102F60007269766572732F66736C5F66746D2E631B
:102F700000000000696E7374616E6365203C20661A
:102F8000746D4172726179436F756E740000000058
:102F90002E2E2F647269766572732F66736C5F656F
:102FA000646D612E630000006368616E6E656C2065
:102FB0003C2046534C5F464541545552455F45447D
:102FC0004D415F4D4F44554C455F4348414E4E4542
:102FD0004C00000074636420213D204E554C4C0091
:102FE000282875696E7433325F74297463642026EF
:102FF00020307831465529203D3D2030000000002A
:10300000636F6E66696720213D204E554C4C000071
:10301000282875696E7433325F74296E657874542C
:103020006364202620307831465529203D3D2030EC
:10303000000000006C696E6B65644368616E6E65CC
:103040006C203C2046534C5F464541545552455FE9
:1030500045444D415F4D4F44554C455F4348414EBB
:103060004E454C0068616E646C6520213D204E55D4
:103070004C4C0000282875696E7433325F742974D3
:103080006364506F6F6C20262030783146552920BC
:103090003D3D203000000000737263416464722083
:1030A000213D204E554C4C0064657374416464723C
:1030B00020213D204E554C4C0000000028737263C7
:1030C0005769647468203D3D20315529207C7C205F
:1030D000287372635769647468203D3D2032552916
:1030E000207C7C20287372635769647468203D3D9E
:1030F00020345529207C7C202873726357696474BE
:1031000068203D3D2031365529207C7C2028737273
:10311000635769647468203D3D20333255290000AF
:1031200028646573745769647468203D3D20315587
:1031300029207C7C20286465737457696474682036
:103140003D3D20325529207C7C20286465737457CE
:1031500069647468203D3D20345529207C7C2028FA
:10316000646573745769647468203D3D2031365539
:1031700029207C7C202864657374576964746820F6
:103180003D3D2033325529007472616E736665725D
:103190004279746573202520627974657345616393
:1031A0006852657175657374203D3D2030000000E4
:1031B0002E2E2F647269766572732F66736C5F644E
:1031C0007370692E6300000068616E646C650000B6
:1031D000675F6473706948616E646C655B305D0045
:1031E000675F6473706948616E646C655B315D0034
:1031F000675F6473706948616E646C655B325D0023
:103200002E2E2F647269766572732F66736C5F65FC
:10321000646D612E680000006368616E6E656C20ED
:103220003C2046534C5F464541545552455F45440A
:103230004D415F4D4F44554C455F4348414E4E45CF
:103240004C000000636F6E66696720213D204E557B
:103250004C4C00006368616E6E656C203C204653E8
:103260004C5F464541545552455F444D414D55587C
:103270005F4D4F44554C455F4348414E4E454C00D1
:103280002E2E2F647269766572732F66736C5F647D
:103290007370695F65646D612E63000065646D61C4
:1032A0005278526567546F52784461746148616E18
:1032B000646C650065646D61547844617461546F39
:1032C000496E7465726D65646961727948616E6496
:1032D0006C65000065646D61496E7465726D65644E
:1032E00069617279546F547852656748616E646C95
:1032F000650000007472616E736665720000000004
:10330000415353455254204552524F5220222025BA
:103310007320223A2066696C652022257322204C96
:10332000696E6520222564222066756E6374696F5C
:103330006E206E616D652022257322200A00000038
:103340002E2E2F647269766572732F66736C5F64BC
:1033500061632E6300000000696E7374616E6365C3
:10336000203C2046534C5F464541545552455F53DF
:103370004F435F4441435F434F554E5400000000AC
:103380004E554C4C20213D20636F6E6669670000EE
:10339000696E646578203C204441435F4441544C4D
:1033A0005F434F554E5400002E2E2F647269766590
:1033B00072732F66736C5F646D616D75782E630038
:1033C000696E7374616E6365203C2046534C5F46A2
:1033D0004541545552455F534F435F444D414D5510
:1033E000585F434F554E54002E2E2F6472697665F8
:1033F00072732F66736C5F647370692E63000000D4
:10340000696E7374616E6365203C2046534C5F4661
:103410004541545552455F534F435F445350495FB4
:10342000434F554E540000006D6173746572436FD5
:103430006E6669670000000066616C7365000000DD
:103440002E2E2F647269766572732F66736C5F63BC
:103450006C6F636B2E630000636F6E6669670000BC
:103460002E2E2F647269766572732F66736C5F639C
:103470006D702E6300000000696E7374616E636589
:10348000203C2046534C5F464541545552455F53BE
:103490004F435F434D505F434F554E540000000073
:1034A0004E554C4C20213D20636F6E6669670000CD
:1034B0002E2E2F647269766572732F66736C5F634C
:1034C0006D742E680000000068696768436F756E50
:1034D00074203C3D20434D545F434748315F504882
:1034E0005F4D41534B00000068696768436F756E1C
:1034F000740000006C6F77436F756E74203C3D2044
:10350000434D545F43474C315F504C5F4D41534BEB
:10351000000000006C6F77436F756E740000000050
:1035200068696768436F756E74203C3D20434D5455
:103530005F434748325F53485F4D41534B000000A3
:103540006C6F77436F756E74203C3D20434D545F24
:1035500043474C325F534C5F4D41534B00000000DA
:103560002E2E2F647269766572732F66736C5F639B
:103570006D742E6300000000696E7374616E636584
:10358000203C2046534C5F464541545552455F53BD
:103590004F435F434D545F434F554E54000000006E
:1035A000627573436C6F636B5F487A203E3D2043C6
:1035B0004D545F494E5445524D454449415445464A
:1035C00052455155454E43595F384D485A00000009
:1035D0006D6F64756C617465436F6E66696700003A
:1035E0002E2E2F647269766572732F66736C5F631B
:1035F0006C6F636B2E6300006D6367706C6C30637F
:103600006C6B0000636F6E6669670000546D7251E9
:10361000000000002E2E2F647269766572732F668B
:10362000736C5F61646331362E630000696E73747E
:10363000616E6365203C2046534C5F4645415455BE
:1036400052455F534F435F41444331365F434F55CB
:103650004E5400004E554C4C20213D20636F6E6649
:10366000696700006368616E6E656C47726F7570A4
:10367000203C204144435F5343315F434F554E54F8
:10368000000000002E2E2F647269766572732F661B
:10369000736C5F636C6F636B2E630000675F78749D
:1036A000616C304672657100675F7874616C3332AB
:1036B0004672657100000000030200000000040073
:1036C00000131800010200000000240180F0FA023B
:1036D00000008000434C4F434B5F4765744D636768
:1036E000457874436C6B467265710000434C4F43E0
:1036F0004B5F4765744F7363304572436C6B467222
:1037000065710000434C4F434B5F4765744572330E
:10371000326B436C6B467265710000008002DC0204
:103720000005B80580079508000A710B434C4F430C
:103730004B5F476574506C6C3046726571000000D9
:10374000434C4F434B5F456E61626C65506C6C300F
:1037500000000000434C4F434B5F5365745062655B
:103760004D6F646500000000434C4F434B5F426F58
:103770006F74546F5065654D6F64650053504930E8
:103780005F44726976657249525148616E646C6536
:1037900072000000535049315F4472697665724986
:1037A000525148616E646C6572000000535049329A
:1037B0005F44726976657249525148616E646C6506
:1037C0007200000045444D415F48616E646C65497C
:1037D0005251000043414E305F4472697665724930
:1037E000525148616E646C6572000000493253307A
:1037F0005F54785F44726976657249525148616ED0
:10380000646C657200000000493253305F52785F8B
:1038100044726976657249525148616E646C657292
:1038200000000000534448435F4472697665724962
:10383000525148616E646C657200000000A0064041
:1038400000B0064000C0064000D0064000A00E4078
:1038500000B00E400A0034100B0034100C0034107D
:103860000D0034100A0028100B0028105541525446
:103870005F476574496E7374616E63650000000094
:10388000554152545F496E697400000055415254CD
:103890005F47657444656661756C74436F6E6669F5
:1038A00067000000430000007800FF1FF8B500BF6C
:1038B000F8BC08BC9E467047F8B500BFF8BC08BC11
:0438C0009E46704769
:0838C400A0CBFF7F0100000012
:0438CC0035040000BF
:0438D00011040000DF
:1038D40000004001556172742066756E6374696FEF
:1038E4006E616C2041504920696E74657272757006
:1038F40074206578616D706C650D0A426F61726445
:1039040020726563656976657320636861726163BB
:1039140074657273207468656E2073656E647320B9
:103924007468656D206F75740D0A4E6F7720706C26
:103934006561736520696E7075743A0D0A00000044
:103944000080000000093D000000000000000000AD
:103954000000000000000000000000000000000063
:103964000000000000000000A43800000000000077
:103974000000000000000000000000000000000043
:103984000000000000000000000000000000000033
:103994000000000000000000000000000000000023
:0C39A40000000000000000000000000017
:04000003000004D91C
:00000001FF
