:1000000000000320D90400002105000025050000A0
:100010001D0500001D0500001D050000000000007A
:10002000000000000000000000000000A1430000EC
:100030001D050000000000001134000081340000A4
:1000400035050000390500003D05000041050000B0
:1000500045050000490500004D0500005105000060
:1000600055050000590500005D0500006105000010
:1000700065050000690500006D05000071050000C0
:10008000750500001D0500001D0500001D05000090
:100090001D0500001D0500001D0500001D050000D8
:1000A000790500007D050000810500008505000040
:1000B000890500008D0500009105000095050000F0
:1000C000990500009D050000A1050000A5050000A0
:1000D000A9050000AD050000B10500001D050000E8
:1000E0001D0500001D0500001D0500001D05000088
:1000F0001D0500001D0500001D0500001D05000078
:100100001D0500001D0500001D0500001D05000067
:100110001D0500001D0500001D0500001D05000057
:100120001D0500001D0500001D0500001D05000047
:100130001D0500001D0500001D0500001D05000037
:100140001D050000B5050000B9050000BD05000053
:10015000C1050000C50500001D0500001D050000CB
:100160001D0500001D050000C9050000CD050000AB
:10017000D1050000D5050000D9050000DD0500000F
:10018000E1050000E5050000E9050000051000009C
:1001900025100000451000001D0500001D05000091
:1001A0001D0500001D0500001D0500001D050000C7
:1001B0001D0500001D0500001D0500001D050000B7
:1001C0001D0500001D0500001D0500001D050000A7
:1001D0001D0500001D0500001D0500001D05000097
:1003F0001D0500001D0500001D050000FFFFFFFF9B
:10040000FFFFFFFFFFFFFFFFFFFFFFFFFEFFFFFFFD
:1004100010B5054C237833B9044B13B10448AFF33E
:1004200000800123237010BD8400FF1F0000000026
:100430008C5E000008B5064B1BB106480649AFF3B9
:1004400000800648036813B1054B03B1984708BD07
:10045000000000008C5E00008800FF1F8000FF1F6E
:1004600000000000154B002B08BF134B9D46A3F561
:10047000803A00218B460F461348144A121A04F0A2
:10048000EBFB0F4B002B00D098470E4B002B00D0FE
:1004900098470020002104000D000D48002802D0DC
:1004A0000C48AFF3008004F0B1FB2000290003F0FA
:1004B00087FC04F097FB00BF000008000000032049
:1004C00000000000000000008400FF1F042CFF1F3C
:1004D000000000000000000072B6094809490160F0
:1004E0000948804709490A4A0A4B9A42BEBF51F857
:1004F000040B42F8040BF8E762B607488047000097
:1005000008ED00E000000000853D0000B45E000042
:100510000000FF1F8400FF1F65040000FFF7FEBFFF
:1005200035480047354800473548004735480047BB
:1005300035480047354800473548004735480047AB
:10054000354800473548004735480047354800479B
:10055000354800473548004735480047354800478B
:10056000354800473548004735480047354800477B
:10057000354800473548004735480047354800476B
:10058000354800473548004735480047354800475B
:10059000354800473548004735480047354800474B
:1005A000354800473548004735480047354800473B
:1005B000354800473548004735480047354800472B
:1005C000354800473548004735480047354800471B
:1005D0003448004733480047324800473148004715
:1005E000304800473048004730480047304800470F
:1005F000304800473048004721050000250500002D
:10060000A143000011340000813400006510000097
:10061000791000008D100000A1100000B51000003E
:10062000C9100000DD100000F110000005110000ED
:10063000191100002D11000041110000551100009A
:10064000691100007D110000911100001D050000DE
:100650001D0F0000390F00003D130000791300004A
:10066000950E0000D90E00001D0500005D09000078
:100670001D050000890900001D050000B5090000E6
:100680001D050000E10900001D050000B513000074
:100690000D0A00001D050000390A00001D050000BC
:1006A000550F0000C10F0000450A00001D050000A5
:1006B0001D0500001D0500001D05000080B582B06D
:1006C00000AF01F0E3FC786004484FF4E13101220F
:1006D0007B6803F059FF0837BD4680BD00A0064087
:1006E00080B400AF054B03F5825304334FF0927290
:1006F0001A60BD465DF8047B704700BF007004407F
:1007000080B483B000AF7860034B7A681A600C370E
:10071000BD465DF8047B7047AC2AFF1F80B584B0EE
:1007200000AF134A07F10C031188927819809A7070
:10073000104A3B1D92E8030083E80300FFF7D0FF57
:1007400000F01EF807F10C03002000211A4600F00B
:1007500071FE02200021002200F0AEFF3B1D184672
:1007600000F0A0FE044B054A1A601037BD4680BD5C
:10077000AC4F0000B04F00000000FF1F000E270725
:1007800080B582B000AF084A3B4692E8030083E898
:1007900003003B46184601F057F80448FFF7B0FF46
:1007A0000837BD4680BD00BFB84F000080F0FA0298
:1007B00080B485B000AF78607B681B0C03F1804388
:1007C00003F58E23FB60FB68FA6811687A6892B2C1
:1007D000012000FA02F20A431A601437BD465DF8A0
:1007E000047B704780B485B000AFF860B9601346F1
:1007F000FB71FB68BA6853F8223023F4E062FB799E
:100800001B0203F4E06342EA0301FB68BA6843F8A1
:1008100022101437BD465DF8047B704780B500AFE9
:100820000C48FFF7C5FF0C4810210322FFF7DAFF41
:10083000094811210322FFF7D5FF0849074B03F5AB
:10084000805310331B6823F0030201F580531033EB
:100850001A6080BD0A00381000A0044000700440F7
:1008600080B485B000AFF860B9607A600CE0FB68D6
:100870001B79DBB2DBB25BB2002BF8DABB685A1C27
:10088000BA601A78FB68DA717B685A1E7A60002BAE
:10089000EDD11437BD465DF8047B704780B586B056
:1008A00000AFF860B9607A60BB68002B36D1204891
:1008B0004FF40F711F4A204B00F09AFDF86800F0CA
:1008C000C5FA78617B6903F00803002B02D040F27F
:1008D000F13329E07B6903F00403002B02D040F2DE
:1008E000F23321E07B6903F00203002B02D040F2D7
:1008F000F33319E07B6903F00103002B02D04FF4BE
:100900007D7311E0FB689B7DDBB2002BD6D0BB680A
:100910005A1CBA60FA68D279D2B21A707B685A1E31
:100920007A60002BEED1002318461837BD4680BDF3
:10093000C04F0000705E0000D84F000080B500AFCF
:10094000034B1B68034A126803481146984780BD51
:10095000642BFF1F4C2BFF1F00A0064080B500AF8B
:10096000FFF7ECFF80BD00BF80B500AF034B1B68F5
:10097000034A526803481146984780BD642BFF1F05
:100980004C2BFF1F00B0064080B500AFFFF7ECFF17
:1009900080BD00BF80B500AF034B1B68034A92685F
:1009A00003481146984780BD642BFF1F4C2BFF1F47
:1009B00000C0064080B500AFFFF7ECFF80BD00BF70
:1009C00080B500AF034B1B68034AD2680348114649
:1009D000984780BD642BFF1F4C2BFF1F00D00640A3
:1009E00080B500AFFFF7ECFF80BD00BF80B500AF62
:1009F000034B1B68034A126903481146984780BDA0
:100A0000642BFF1F4C2BFF1F00A00E4080B500AFD2
:100A1000FFF7ECFF80BD00BF80B500AF034B1B6844
:100A2000034A526903481146984780BD642BFF1F53
:100A30004C2BFF1F00B00E4080B500AFFFF7ECFF5E
:100A400080BD00BF80B500AF094B1B68002B06D1ED
:100A500008484FF4A961084A084B00F0C9FC084B4C
:100A60001B68034A126807481146984780BD00BFBB
:100A7000442BFF1F44500000F05D00003052000086
:100A8000482BFF1F00100B4080B485B000AF78608A
:100A90007B681B0C03F1804303F58E23FB60FB682E
:100AA000FA6811687A6892B2012000FA02F20A43E9
:100AB0001A601437BD465DF8047B704780B584B07A
:100AC00000AF78600623BB600023FB6009E00E4B9B
:100AD000FA6853F822207B689A4206D0FB680133FB
:100AE000FB60FA68BB689A42F1D3FA68BB689A4225
:100AF00005D30648A921064A064B00F079FCFB689D
:100B000018461037BD4680BD085E00004852000000
:100B1000385E00006052000080B588B000AFF86019
:100B2000B9607A60BB68002B05D1A348D421A34AE1
:100B3000A34B00F05DFCBB681B68002B05D19E48F1
:100B4000D5219E4A9F4B00F053FCFA689E4B9A4277
:100B500020D0FA689D4B9A421AD0FA689C4B9A4270
:100B600014D0FA689B4B9A420ED0FA689A4B9A427C
:100B700008D0FA68994B9A4201D101230BE04FF05B
:100B8000FF3308E0012306E0012304E0012302E033
:100B9000082300E00823BA689279934205DA864870
:100BA000D721864A8E4B00F023FCFA68864B9A4286
:100BB00020D0FA68854B9A421AD0FA68844B9A4240
:100BC00014D0FA68834B9A420ED0FA68824B9A424C
:100BD00008D0FA68814B9A4201D101230BE04FF013
:100BE000FF3308E0012306E0012304E0012302E0D3
:100BF000082300E00823BA68D279934205DA6E48E8
:100C0000D8216E4A774B00F0F3FB0023FB830023CF
:100C10007B770023BB61BB681B681B017A68B2FB52
:100C2000F3F3FB83FB8B002B01D10123FB83002318
:100C30007B617B685A00BB681B68B2FBF3F39AB216
:100C4000FB8B1946C902CB1A5B019BB213447B8212
:100C50007B685A00FB8B59017B8A0B44B2FBF3F390
:100C60007B61BB681A687B699A4204D2BB681B68C7
:100C70007A69D31A03E0BB681A687B69D31ABB612F
:100C8000BB681A68584BA3FB02135A0913465B0052
:100C90001A44BB699A4202D240F2F53387E0F86801
:100CA000FFF70CFF0246514B53F822301846FFF76E
:100CB000EBFEFB68DB78DBB223F00C03DAB2FB68F7
:100CC000DA70FB681B78DBB223F01F03DAB2FB8B10
:100CD0001B0A9BB2DBB21343DAB2FB681A70FB8BC0
:100CE000DAB2FB685A70FB689B7ADBB223F01F0311
:100CF000DAB27B8ADBB203F01F03DBB21343DAB252
:100D0000FB689A72FB689B78DBB223F013037B7756
:100D1000BB681B79002B07D0BB681A797B7F134314
:100D2000DBB243F010037B77FB687A7F9A70FB6835
:100D30001B78DBB223F02003DAB2BB685B795B017E
:100D4000DBB203F02003DBB21343DAB2FB681A70A4
:100D5000BB689A79FB68DA74BB68DA79FB685A7504
:100D6000FB681B7CDBB263F07703DAB2FB681A74B2
:100D7000FB685B7CDBB263F03F03DAB2FB685A745A
:100D8000FB68DB787B77BB681B7A002B03D07B7F0B
:100D900043F008037B77BB685B7A002B03D07B7F33
:100DA00043F004037B77FB687A7FDA7000231846F0
:100DB0002037BD4680BD00BF485200004C5E000099
:100DC000B05000007C52000000A0064000B0064079
:100DD00000C0064000D0064000A00E4000B00E400B
:100DE00094520000D45200001F85EB51205E000099
:100DF00080B582B000AF78607B68002B06D11048C8
:100E000040F25D110F4A104B00F0F2FA7B684FF48C
:100E1000E1321A607B6800221A717B6800225A71E5
:100E20007B6800229A717B680122DA717B6800225C
:100E30001A727B6800225A720837BD4680BD00BF17
:100E400048520000585E0000B050000080B485B0E9
:100E500000AF78607B681B79DBB21A467B685B79F0
:100E6000DBB21B021343FB607B681B7BDBB21B0402
:100E7000FA681343FB607B689B7CDBB21B06FA6855
:100E80001343FB60FB6818461437BD465DF8047BCE
:100E9000704700BF80B500AF094B1B68002B06D11F
:100EA000084840F21A41084A084B00F0A1FA084BE2
:100EB0001B68034A126807481146984780BD00BF67
:100EC000342BFF1F24530000B85D00004453000082
:100ED0003C2BFF1F00F0024080B500AF094B5B6860
:100EE000002B06D108484FF48461084A084B00F0F3
:100EF0007FFA084B1B68034A526807481146984717
:100F000080BD00BF342BFF1F24530000D45D0000C0
:100F100058530000402BFF1F00F0024080B500AF87
:100F2000034B1B680348194600F022F880BD00BF40
:100F3000202BFF1F0060064080B500AF034B5B68AD
:100F40000348194600F014F880BD00BF202BFF1F96
:100F50000070064080B500AF034B9B6803481946FC
:100F600000F006F880BD00BF202BFF1F00600E4080
:100F700080B582B000AF786039607B68DB78DBB227
:100F800003F01003002B06D17B689B78DBB203F0E3
:100F90002003002B05D0084B1B68786839689847F8
:100FA00004E0064B1B68786839689847BFF34F8F99
:100FB0000837BD4680BD00BF2C2BFF1F302BFF1F05
:100FC00080B500AF094B1B68002B06D1084840F2E2
:100FD0001F51084A084B00F00BFA084B1B68034AE4
:100FE000126807481146984780BD00BF182BFF1FA5
:100FF0006C530000A05D0000205500001C2BFF1F5B
:101000000040024080B500AF034B1B68034A1268E2
:1010100003481146984780BD0C2BFF1F082BFF1F6C
:1010200000000C4080B500AF034B1B68034A1268F8
:1010300003481146984780BD102BFF1F082BFF1F48
:1010400000000C4080B500AF034B1B68034A1268D8
:1010500003481146984780BD142BFF1F082BFF1F24
:1010600000000C4080B500AF024B1B68184600F032
:1010700099F880BDC82AFF1F80B500AF024B5B689E
:10108000184600F08FF880BDC82AFF1F80B500AF5A
:10109000024B9B68184600F085F880BDC82AFF1FE8
:1010A00080B500AF024BDB68184600F07BF880BDCE
:1010B000C82AFF1F80B500AF024B1B69184600F01D
:1010C00071F880BDC82AFF1F80B500AF024B5B6975
:1010D000184600F067F880BDC82AFF1F80B500AF32
:1010E000024B9B69184600F05DF880BDC82AFF1FBF
:1010F00080B500AF024BDB69184600F053F880BDA5
:10110000C82AFF1F80B500AF024B1B6A184600F0CB
:1011100049F880BDC82AFF1F80B500AF024B5B6A4B
:10112000184600F03FF880BDC82AFF1F80B500AF09
:10113000024B9B6A184600F035F880BDC82AFF1F95
:1011400080B500AF024BDB6A184600F02BF880BD7B
:10115000C82AFF1F80B500AF024B1B6B184600F07A
:1011600021F880BDC82AFF1F80B500AF024B5B6B22
:10117000184600F017F880BDC82AFF1F80B500AFE1
:10118000024B9B6B184600F00DF880BDC82AFF1F6C
:1011900080B500AF024BDB6B184600F003F880BD52
:1011A000C82AFF1F90B589B000AF78607B68002B1C
:1011B00006D1504840F23A314F4A504B00F018F9EE
:1011C0007B689B687A68127CDA777B68DB68002B27
:1011D0000DD17B681B68002B09D07B681C687B687D
:1011E0005B687868194601220023A0477EE07B688F
:1011F0009A687B681B7C5B01134403F580531833AA
:101200001B687B617B689A687B681B7C5B0113446D
:1012100003F5805318339B889BB203F08003002BA7
:101220000CBF00230123FB747B68DB687A69D31A47
:101230007B617B695B09FB60FB7C002B02D0FB6858
:10124000FB760EE0FB68002B04D0FB68DBB2013BB1
:10125000DBB205E07B681B7DDBB2DBB2013BDBB2BE
:10126000FB76FA7E7B685B7CDBB25BB29A4212D182
:101270007B68DB7CDAB27B681B7DDBB252B25BB28F
:101280009A4205D17B68DB7CDBB25BB2FB6113E089
:101290000023FB6110E0FA7E7B685B7CDBB25BB213
:1012A000D31AFB61FB69002B06DA7B681B7DDBB27E
:1012B0005BB2FA691344FB61FA7E7B685A747B68FF
:1012C000DB7CDBB2DAB2FB69DBB2D31ADBB2DAB2B7
:1012D0007B68DA747B681B68002B07D07B681C680E
:1012E0007B685968FB69FA7C7868A0472437BD465B
:1012F00090BD00BF68550000905D00003C560000A6
:1013000080B582B000AF78603960786800F084F80A
:101310000346002B05D0074B1B687868396898474F
:1013200004E0054B1B687868396898470837BD4664
:1013300080BD00BFC02AFF1FC42AFF1F80B500AFB9
:10134000084B1B68002B06D1074840F25761074A3B
:10135000074B00F04DF8034B1B6806481946FFF792
:10136000CFFF80BDB42AFF1F88570000485D0000F2
:10137000A857000000C0024080B500AF084B5B6872
:10138000002B06D1074840F25F61074A074B00F087
:101390002FF8034B5B6806481946FFF7B1FF80BD85
:1013A000B42AFF1F88570000605D0000B857000096
:1013B00000D0024080B500AF084B9B68002B06D1DF
:1013C000074840F26761074A074B00F011F8034BEA
:1013D0009B6806481946FFF793FF80BDB42AFF1F9C
:1013E00088570000785D0000C857000000C00A4020
:1013F00080B586B002AFF860B9607A603B607B6808
:10140000009304483968FA68BB6803F003F900BE2A
:10141000FDE700BFD858000080B483B000AF78600B
:101420007B681B68DB0FDBB218460C37BD465DF8E6
:10143000047B704780B582B000AF0B463A6002462D
:10144000FA71BB713B68002B06D1124840F25C6117
:10145000114A124BFFF7CCFFFB79184600F0E4F875
:10146000BB791846396800F033FA0D4B0C4A1278F4
:10147000D2B202F03F02D2B21A70094B9B79DBB2B2
:1014800003F00C039B08032BF7D100231846083701
:10149000BD4680BD185A0000345D0000305A00007F
:1014A0000040064080B582B000AF7860094B7A6892
:1014B000526803F5825304331A607B681B78184620
:1014C00000F08CFC7B685B78184600F071FC0837F4
:1014D000BD4680BD0070044080B582B000AF164BA1
:1014E0009B79DBB203F00C039B083B603B68032B4A
:1014F0001AD801A252F823F01115000019150000A6
:10150000211500000915000000F052F878600DE088
:1015100000F014F8786009E000F05AFD786005E00A
:1015200000F0ACFC786001E000237B607B6818462B
:101530000837BD4680BD00BF0040064080B582B080
:1015400000AF194B5B78DBB203F00203002B06D12E
:10155000154B9B79DBB203F02003002B01D0002355
:101560001DE000F057FD78607B68002B01D17B689F
:1015700015E00D4BDB78DBB203F060035B09FB7019
:10158000094BDB78DBB2DB09BB70F978BA78074B23
:1015900049000A4433F812307A6802FB03F3184614
:1015A0000837BD4680BD00BF00400640E85C000033
:1015B00080B582B000AF184B9B79DBB203F04003DB
:1015C000002B01D1002322E000F03AFD78607B6817
:1015D000002B06D1114840F27D21114A114BFFF733
:1015E00007FF0D4B1B79DBB203F01F0301337A6851
:1015F000B2FBF3F37B60084B5B79DBB203F01F03B4
:1016000003F118027B6802FB03F37B607B681846DA
:101610000837BD4680BD00BF00400640B85B0000F3
:10162000F85C0000D05B000080B485B000AF0346DA
:10163000FB71204B1B7BDBB203F00302FB799A4268
:1016400002D00123FB7301E00023FB73194B194AFD
:10165000127BD2B222F00302D1B2FA7902F0030275
:10166000D2B20A43D2B21A73FB79002B0DD1114BBF
:101670005B78DBB203F00403002B06D00D4B9B79A3
:10168000DBB203F00203002BF8D0FB7B002B09D068
:1016900040F2DC53BB6000E000BFBB685A1EBA607A
:1016A000002BF9D1002318461437BD465DF8047BA2
:1016B000704700BF0040064080B485B000AF1346BD
:1016C0000246FA710A46BA717B713A4B9B79DBB2DA
:1016D00003F00C039B08FB60364B9B79DBB203F0F5
:1016E0000103FB72334B1B7ADBB203F00E035B0882
:1016F000BB727A79BB7A9A422BD0FB7A012B18D134
:10170000FB68012B06D02B4B1B78DBB203F00203E6
:10171000002B0ED0274B274A5278D2B222F001027A
:10172000D2B25A70234B9B79DBB203F00103002B3A
:10173000F8D1204B1F4A127AD2B222F02F02D1B236
:101740007A795200D2B202F00E02D2B20A43D2B279
:101750001A72184B174A5278D2B222F00102D1B253
:10176000BA7902F00102D2B20A43D2B25A70114BD6
:10177000104A1278D2B222F00302D1B2FA790A43A7
:10178000D2B21A70FB68012B04D0FB7903F002037C
:10179000002B07D0074B9B79DBB203F00102BB792A
:1017A0009A42F7D1002318461437BD465DF8047BF2
:1017B000704700BF0040064080B584B000AF78603D
:1017C0007B68002B06D11C4840F247311B4A1C4B5A
:1017D000FFF70EFE0023FB737B685B7803F01F03AB
:1017E000DAB2FB7B1343FB73164BFA7B1A71154B72
:1017F000144A5279D2B222F01F02D1B27A6892789A
:1018000002F01F02D2B20A43D2B25A710D4B0D4AF6
:101810001279D1B27A6812780A43D2B242F0400209
:10182000D2B21A71074B9B79DBB203F04003002B55
:10183000F8D01037BD4680BDB85B00000C5D0000DD
:10184000DC5B00000040064080B584B000AF7860EB
:101850007B681B68184600F0FBFB0346FB737B6844
:101860001B791948194600F0EFFA7B6806331648D1
:10187000194600F0CFFA154B144A5278D2B222F032
:101880003C02D1B2FA7B1201D2B202F03002D2B2E3
:101890000A43D1B27A6852790A43D2B25A707B684D
:1018A0005B79002B0DD0084B1B78DBB2DBB25BB24F
:1018B000002B06DA054B9B79DBB203F00203002B09
:1018C000F8D01037BD4680BD0050064000400640AD
:1018D00080B582B000AF03463960FB713B68002BD6
:1018E00006D1234840F2BD51224A234BFFF780FD29
:1018F000224B224A5278D2B222F00202D2B25A705D
:101900001E4B1E4A1278D2B202F03B02D2B262F0F3
:101910007F02D2B21A70194B9B79DBB203F01C0321
:10192000082BF8D1154B154A5279D2B222F0400259
:10193000D2B25A71114B9B79DBB203F02003002B1A
:10194000F8D13868FFF738FF0C4B0C4A5279D2B205
:1019500042F04002D2B25A71084B9B79DBB203F0DD
:101960002003002BF8D0002318460837BD4680BD61
:10197000B85B0000205D0000DC5B0000004006401A
:1019800080B584B000AF7860396001F02DFC07F1BC
:101990000803184600F066F8F860BB68002B31D1E8
:1019A0003B68002B0AD17A68FB689A4206D801F09E
:1019B00029FC7868F96801F09DF825E03B68002B68
:1019C00008D0134B1B681B68002B14BF0023012396
:1019D000DBB23B600F4B1A687968FB68CB1A104684
:1019E00019463A6801F00CFA01F00CFC0346002B92
:1019F0000AD1094B4FF080521A60BFF34F8FBFF3EB
:101A00006F8F01E001F0FEFB1037BD4680BD00BFC7
:101A10009C2AFF1FA02AFF1F04ED00E080B485B0C0
:101A200000AF78600E4B1B681B68002B14BF0023AF
:101A30000123DBB21A467B681A607B681B68002BA7
:101A400005D1074B1B68DB681B68FB6001E00023C6
:101A5000FB60FB6818461437BD465DF8047B704791
:101A6000982AFF1F80B584B000AF786001F066FC53
:101A7000F8600B4B1B68FA689A4205D200F002F935
:101A80007B6801221A6002E07B6800221A60044B26
:101A9000FA681A60FB6818461037BD4680BD00BF63
:101AA000A82AFF1F80B586B000AFF860B9607A60E1
:101AB0003B6000237B61FB68BA685A60FB68FA6888
:101AC0001A61BA687B689A4212D87A683B68D21A5F
:101AD000FB689B699A4202D301237B611BE0104B98
:101AE0001A68FB6804331046194601F07FFD12E0C6
:101AF0007A683B689A4206D2BA683B689A4202D337
:101B000001237B6107E0074B1A68FB68043310462A
:101B1000194601F06BFD7B6918461837BD4680BD3C
:101B20009C2AFF1F982AFF1F80B58EB002AF97E056
:101B30007B68002B18DA3B1D0433FB62FB6A002B29
:101B400009D14FF0500383F31188BFF36F8FBFF3B8
:101B50004F8FFB61FEE7FB6A1B68FA6A5168FA6AFD
:101B600092680846114698477B68002B78DBFB6833
:101B7000BB62BB6A5B69002B04D0BB6A04331846A6
:101B800001F06CFD3B461846FFF76CFF78627B68FE
:101B9000092B65D801A252F823F000BFC51B000035
:101BA000C51B0000C51B0000611C0000231C0000B9
:101BB0005B1C0000C51B0000C51B0000611C000071
:101BC000231C0000BA68BB6A9B691A44BB68B86AE8
:101BD00011467A6AFFF766FF0346002B40D0BB6AC6
:101BE0005B6AB86A9847BB6ADB69012B38D1BA686F
:101BF000BB6A9B69134400220092B86A00211A460E
:101C0000002300F025FF38623B6A002B28D14FF0FB
:101C1000500383F31188BFF36F8FBFF34F8FBB6106
:101C2000FEE7BA68BB6A9A61BB6A9B69002B09D15F
:101C30004FF0500383F31188BFF36F8FBFF34F8FC3
:101C40007B61FEE7BB6A9A697B6A1344B86A1946EE
:101C50007A6A7B6AFFF726FF02E0B86A02F016FA9A
:101C6000074B1A683B1D104619460022002301F05D
:101C700073FF0346002B7FF45BAF3037BD4680BD5A
:101C8000A02AFF1F80B588B002AF44E02B4B1B6831
:101C9000DB681B687B61294B1B68DB68DB683B6189
:101CA0003B690433184601F0D9FC3B695B6A38692B
:101CB00098473B69DB69012B2DD13B699A697B69A8
:101CC0001344FB60FA687B699A420ED93B69FA6853
:101CD0005A603B693A691A61184B1A683B690433C8
:101CE0001046194601F082FC15E000230093386984
:101CF00000217A69002300F0ABFEB860BB68002BBE
:101D000009D14FF0500383F31188BFF36F8FBFF3F6
:101D10004F8F3B60FEE7094B1B681B68002BB5D15A
:101D2000064B1B687B60064B1A68044B1A60044B19
:101D30007A681A601837BD4680BD00BF982AFF1F19
:101D40009C2AFF1F80B500AF01F008FB124B1B68F7
:101D5000002B1DD1114801F0F9FB114801F0F6FBF1
:101D6000104B0E4A1A60104B0D4A1A600A201021BF
:101D7000002201F005FD0246074B1A60064B1B6866
:101D8000002B05D0044B1B681846084901F010F8D9
:101D900001F012FB80BD00BFA02AFF1F702AFF1FA9
:101DA000842AFF1F982AFF1F9C2AFF1FE45B000064
:101DB00080B483B000AF7860074B074A126822F402
:101DC00040217A68920402F440220A431A600C37D8
:101DD000BD465DF8047B70470070044080B483B05A
:101DE00000AF78600A490A4B03F5805304331B683F
:101DF00023F440327B681B0403F440331A4301F59B
:101E0000805304331A600C37BD465DF8047B70477D
:101E10000070044080B485B000AF786039607B68A2
:101E20001B78FB73FB7B03F05F03FB733B681A7843
:101E3000FB7B1343FB737B68FA7B1A701437BD4638
:101E40005DF8047B704700BF80B485B000AF786058
:101E50000B46FB707B681B78FB73FB7B23F00F0347
:101E6000FB73FA7BFB781343FB737B68FA7B1A7076
:101E70001437BD465DF8047B704700BF80B582B063
:101E800000AF194B1B7BDBB203F00303012B12D015
:101E9000012B02D3022B1CD01EE0144B1B68002B1D
:101EA00005D11348D421134A134BFFF7A1FA0F4B66
:101EB0001B687B6012E0114B1B68002B05D10C489E
:101EC000D9210C4A0E4BFFF793FA0C4B1B687B6031
:101ED00004E00C4B7B6001E000237B607B681846CC
:101EE0000837BD4680BD00BF00400640AC2AFF1F3A
:101EF0005C5C0000D05C0000745C0000B02AFF1F36
:101F0000805C0000006CDC0280B582B000AFFFF79F
:101F1000B5FF78607B68002B01D17B684DE0294BD1
:101F20001B78DBB203F03803DB08FB70FB787A68C0
:101F300022FA03F37B60234B5B78DBB203F03003C0
:101F40001B09BB701F4B1B7BDBB203F003037B70D1
:101F5000BB78002B02D07B78002B02D07B78022B41
:101F60002AD1FB78072B25D801A151F823F000BF17
:101F7000911F0000911F0000911F0000911F0000A1
:101F8000911F0000911F0000991F0000A71F000073
:101F90007B685B097B600FE07A680B4BA3FB021345
:101FA0001B097B6008E07A68084BA3FB0213DB087F
:101FB0007B6001E000237B607B6818460837BD46E4
:101FC00080BD00BF00400640CDCCCCCCABAAAAAAB5
:101FD00080B400AF0C4B9B79DBB203F00103002B04
:101FE00002D10A4B1B6809E0094B1A68064B1B7AA1
:101FF000DBB203F00E035B0822FA03F31846BD467A
:102000005DF8047B704700BF004006401400FF1FCE
:102010001800FF1F80B500AF074B9B79DBB203F0C0
:1020200010031B09002B03D1FFF76EFF034601E0ED
:10203000024B1B68184680BD004006401400FF1F7D
:1020400080B500AFFFF71AFF0346184680BD00BFFA
:1020500080B485B000AF78607A6849F697039A42F9
:1020600002D80023FB7308E07A68074B9A4202D833
:102070000123FB7301E00223FB73FB7B184614373B
:10208000BD465DF8047B704700127A0080B500AF52
:10209000FFF722FA0246054B03F5825304331B680F
:1020A0001B0F0133B2FBF3F3184680BD00700440F0
:1020B00080B586B000AF00237B614E4B1B68002BC0
:1020C00040F086804C4B1B6801333B614A4B3A69B8
:1020D0001A603B69002B1FD1484B1B681B68002B03
:1020E00009D04FF0500383F31188BFF36F8FBFF314
:1020F0004F8F3B60FEE7414B1B68FB60404B1A680B
:102100003E4B1A603E4BFA681A603E4B1B685A1CE5
:102110003C4B1A6000F0B8FA3B4B1B683A699A4294
:102120004FD300E000BF354B1B681B68002B01D16B
:10213000012300E00023002B04D0334B4FF0FF328B
:102140001A603EE02D4B1B68DB68DB68BB60BB6838
:102150005B687B603A697B689A4203D22A4B7A6853
:102160001A602EE0BB680433184601F077FABB68AA
:102170009B6A002B04D0BB681833184601F06EFA36
:10218000BB68DB6A01229A40204B1B681A431F4B35
:102190001A60BB68DA6A13469B0013449B001C4A12
:1021A0001A44BB6804331046194601F0FBF9BB68BA
:1021B000DA6A184B1B68DB6A9A42B3D301237B614E
:1021C000B1E7154B1B68002B09D101F05DFE06E05D
:1021D000114B1B685A1C104B1A6001F055FE0F4B37
:1021E0001B68002B01D001237B617B6918461837DF
:1021F000BD4680BD6C2AFF1F482AFF1FFC29FF1F18
:10220000002AFF1F5C2AFF1F642AFF1F4C2AFF1FA2
:102210007029FF1F6C29FF1F542AFF1F582AFF1F18
:1022200080B487B000AF264B1B68002B03D0254B32
:1022300001221A603EE0234B00221A60224B1B68E9
:10224000FB60FB68B3FA83F3FB72FB7AC3F11F03F5
:102250007B611E497A6913469B0013449B000B4423
:102260001B68002B09D14FF0500383F31188BFF393
:102270006F8FBFF34F8F7B60FEE77A6913469B0039
:1022800013449B00114A13443B613B695B685A68E5
:102290003B695A603B695A683B6908339A4204D1EA
:1022A0003B695B685A683B695A603B695B68DA68FE
:1022B000074B1A601C37BD465DF8047B704700BFB2
:1022C0006C2AFF1F582AFF1F4C2AFF1F7029FF1F6F
:1022D0006C29FF1F80B584B000AF786039607B68DF
:1022E000002B09D14FF0500383F31188BFF36F8F98
:1022F000BFF34F8FFB60FEE7064B1B68183378680F
:10230000194601F073F93868012100F00DFB103710
:10231000BD4680BD6C29FF1F80B586B000AFF86058
:10232000B9607A60FB68002B09D14FF0500383F34A
:102330001188BFF36F8FBFF34F8F7B61FEE70A4BAE
:102340001B681833F868194601F02CF97B68002BDC
:1023500002D04FF0FF33BB60B868796800F0E4FA50
:102360001837BD4680BD00BF6C29FF1F80B586B001
:1023700000AF78607B68DB68DB683B613B69002B02
:1023800009D14FF0500383F31188BFF36F8FBFF370
:102390004F8FFB60FEE73B691833184601F05EF98A
:1023A0001D4B1B68002B1CD13B690433184601F000
:1023B00055F93B69DB6A01229A40184B1B681A43A6
:1023C000164B1A603B69DA6A13469B0013449B0064
:1023D000134A1A443B6904331046194601F0E2F8E7
:1023E00005E03B6918330F48194601F0DBF83B69FB
:1023F000DA6A0D4B1B68DB6A9A4205D901237B61BF
:102400000A4B01221A6001E000237B617B691846B8
:102410001837BD4680BD00BF6C2AFF1F4C2AFF1F26
:102420007029FF1F042AFF1F6C29FF1F582AFF1F56
:1024300080B485B000AF78607B68002B09D14FF085
:10244000500383F31188BFF36F8FBFF34F8FFB608F
:10245000FEE7064B1A687B681A60054B1A687B68B2
:102460005A601437BD465DF8047B70475C2AFF1F35
:10247000482AFF1F80B586B000AF786039607B685E
:10248000002B09D14FF0500383F31188BFF36F8FF6
:10249000BFF34F8FFB60FEE73B68002B09D14FF085
:1024A000500383F31188BFF36F8FBFF34F8FBB606F
:1024B000FEE700F053FF1C4B1B683B613B681B6849
:1024C000B3F1FF3F02D100237B6126E07B681A68ED
:1024D000164B1B689A4207D07B685A683B699A4240
:1024E00002D801237B6118E07B685B683A69D21AE5
:1024F0003B681B689A420ED23B681A687B68596831
:102500003B69CB1A1A443B681A607868FFF790FF62
:1025100000237B6101E001237B6100F04DFF7B69BB
:1025200018461837BD4680BD482AFF1F5C2AFF1F8A
:1025300080B400AF034B01221A60BD465DF8047BF6
:10254000704700BF582AFF1F80B582B000AF786087
:1025500000F050F8064B1B68012BF9D9054B4FF0E2
:1025600080521A60BFF34F8FBFF36F8FF0E700BF49
:102570007029FF1F04ED00E080B582B000AF00239A
:102580007B600CE07A6813469B0013449B00114A61
:102590001344184600F0DAFF7B6801337B607B68E8
:1025A000042BEFD90C4800F0D1FF0C4800F0CEFF0F
:1025B0000B4800F0CBFF0B4800F0C8FF0A4800F0C2
:1025C000C5FF0A4B044A1A60094B044A1A600837CF
:1025D000BD4680BD7029FF1FD429FF1FE829FF1FBA
:1025E000042AFF1F182AFF1F302AFF1FFC29FF1F84
:1025F000002AFF1F80B582B000AF28E000F0F4FD94
:10260000164B1B68002B14BF00230123DBB27B6039
:1026100000F0F8FD7B68002B19D100F09FFE0F4BF6
:10262000DB68DB683B603B680433184601F016F852
:102630000B4B1B685A1E0A4B1A600A4B1B685A1E2A
:10264000084B1A6000F0B8FE386800F00DF8054B32
:102650001B68002BD2D10837BD4680BD182AFF1F4A
:10266000442AFF1F2C2AFF1F80B582B000AF78607C
:102670007B681B6B184601F009FD786801F006FDC8
:102680000837BD4680BD00BF80B483B000AF0E4B9D
:102690001B681B68002B01D1012300E00023002BE5
:1026A00004D00A4B4FF0FF321A6008E0064B1B685B
:1026B000DB68DB687B607B685A68044B1A600C3708
:1026C000BD465DF8047B7047FC29FF1F642AFF1F8D
:1026D00080B483B000AF0B4B1B68002B02D10123E9
:1026E0007B6008E0084B1B68002B02D102237B6053
:1026F00001E000237B607B6818460C37BD465DF81F
:10270000047B7047502AFF1F6C2AFF1F80B584B0DE
:1027100000AF78607B68FB607B68002B62D0FB6851
:10272000DA6A324B1B68DB6A9A425BD2FB689B69B0
:10273000002B06DB2D4B1B68DB6AC3F10502FB682F
:102740009A61FB685969FB68DA6A13469B00134477
:102750009B00274A1344994201D1012300E0002342
:10276000002B3AD0FB680433184600F077FF03468D
:10277000002B15D1FB68DA6A1D4913469B001344F0
:102780009B000B441B68002B0AD1FB68DB6A01220B
:1027900002FA03F3DA43174B1B681A40154B1A6011
:1027A000124B1B68DA6AFB68DA62FB68DB6A01229B
:1027B0009A40104B1B681A430E4B1A60FB68DA6A8A
:1027C00013469B0013449B00094A1A44FB680433D8
:1027D0001046194600F0E6FE04E0044B1B68DA6A76
:1027E000FB68DA621037BD4680BD00BF6C29FF1F51
:1027F0007029FF1F4C2AFF1F80B586B000AF78609C
:102800007B683B6100237B617B68002B6CD0394B7C
:102810001B683A699A4209D04FF0500383F311883C
:10282000BFF36F8FBFF34F8FFB60FEE73B69DB6C3D
:10283000002B09D14FF0500383F31188BFF36F8F42
:10284000BFF34F8FBB60FEE73B69DB6C5A1E3B69F1
:10285000DA643B69DA6A3B699B6C9A4244D03B6913
:10286000DB6C002B40D13B690433184600F0F6FEC8
:102870000346002B15D13B69DA6A1F4913469B00BA
:1028800013449B000B441B68002B0AD13B69DB6A95
:10289000012202FA03F3DA43184B1B681A40174B64
:1028A0001A603B699A6C3B69DA623B69DB6AC3F187
:1028B00005023B699A613B69DB6A01229A400F4B32
:1028C0001B681A430D4B1A603B69DA6A13469B007A
:1028D00013449B00084A1A443B69043310461946C6
:1028E00000F060FE01237B617B6918461837BD4606
:1028F00080BD00BF6C29FF1F7029FF1F4C2AFF1FDE
:1029000080B400AF074B1B68002B04D0054B1B683D
:10291000DA6C0132DA64034B1B681846BD465DF879
:10292000047B70476C29FF1F80B584B000AF7860CE
:102930003960284B1B68FB60274B1B680433184623
:1029400000F08CFE0346002B0BD1234B1B68DB6A87
:10295000012202FA03F3DA43204B1B681A401F4B93
:102960001A607B68B3F1FF3F0AD13B68002B07D0A8
:10297000194B1B6804331A48194600F013FE26E071
:10298000FA687B681344BB60134B1B68BA685A60D3
:10299000BA68FB689A4209D2124B1A680E4B1B6840
:1029A00004331046194600F021FE10E00E4B1A6861
:1029B000094B1B6804331046194600F017FE0B4BF9
:1029C0001B68BA689A4202D2084BBA681A6010377C
:1029D000BD4680BD482AFF1F6C29FF1F4C2AFF1FE0
:1029E000302AFF1F002AFF1FFC29FF1F642AFF1F38
:1029F00080B584B002AF00237B60FFF7A3F9104BD2
:102A00001B68002B0AD0022300930E4B01930E4843
:102A10000E49B422002300F029FA78607B68002B6D
:102A200009D14FF0500383F31188BFF36F8FBFF3C9
:102A30004F8F3B60FEE77B6818460837BD4680BD78
:102A4000A02AFF1FA42AFF1F752B0000905C000026
:102A500080B58AB000AFF860B9607A603B6000234F
:102A60007B62FB68002B09D14FF0500383F3118880
:102A7000BFF36F8FBFF34F8F3B62FEE71C4B1B68AA
:102A8000002B30D0BB683B617B687B61FB68BB611E
:102A9000BB68052B1CDCFFF71BFE0346022B0BD18A
:102AA000134B1A6807F11003104619463A6B0023BE
:102AB00000F0C0FE786216E00D4B1A6807F11003B3
:102AC000104619460022002300F0B4FE78620AE0A6
:102AD000074B1A6807F11003104619463A6800239D
:102AE00000F0A6FF78627B6A18462837BD4680BD95
:102AF000A02AFF1F80B588B002AF786039601C4BF8
:102B00001B68DB68DB687B617B690433184600F077
:102B1000A5FD7B69DB69012B22D17B699A697B6802
:102B20001344786919463A687B68FEF7BBFF034691
:102B3000002B15D000230093786900217A680023C8
:102B4000FFF786FF38613B69002B09D14FF0500336
:102B500083F31188BFF36F8FBFF34F8FFB60FEE7E6
:102B60007B695B6A786998471837BD4680BD00BFAE
:102B7000982AFF1F80B584B000AF786007F1080382
:102B80001846FEF74BFFF860BB68F8681946FEF779
:102B9000F7FEFEF7C9FFF1E780B586B000AFF86039
:102BA000B9607A6000237B61FB689B6B3B61FB68CB
:102BB0001B6C002B0DD1FB681B68002B4FD1FB68F1
:102BC0005B681846FFF718FE7861FB6800225A60C0
:102BD00045E07B68002B1AD1FB689A68FB681B6C88
:102BE0001046B9681A4601F0DDFFFB689A68FB6879
:102BF0001B6C1A44FB689A60FB689A68FB685B6808
:102C00009A422CD3FB681A68FB689A6027E0FB683D
:102C1000DA68FB681B6C1046B9681A4601F0C2FFFF
:102C2000FB68DA68FB681B6C5B421A44FB68DA607D
:102C3000FB68DA68FB681B689A4207D2FB685A682F
:102C4000FB681B6C5B421A44FB68DA607B68022BF2
:102C500005D13B69002B02D03B69013B3B613B69DD
:102C60005A1CFB689A637B6918461837BD4680BDBD
:102C700080B582B000AF786039607B681B6C002B38
:102C800019D07B68DA687B681B6C1A447B68DA6051
:102C90007B68DA687B685B689A4203D37B681A6852
:102CA0007B68DA607B68DA687B681B6C3868114681
:102CB0001A4601F077FF0837BD4680BD80B584B065
:102CC00000AF786000F04AFB7B6893F84530FB73F7
:102CD00010E07B685B6A002B10D07B6824331846B9
:102CE000FFF744FB0346002B01D0FFF721FCFB7BE1
:102CF000013BFB7397F90F30002BEADC7B68FF2266
:102D000083F8452000F058FB00F028FB7B6893F81F
:102D10004430BB7310E07B681B69002B10D07B68CC
:102D200010331846FFF722FB0346002B01D0FFF7B4
:102D3000FFFBBB7B013BBB7397F90E30002BEADC3A
:102D40007B68FF2283F8442000F036FB1037BD4635
:102D500080BD00BF80B584B000AF786000F0FEFA9F
:102D60007B689B6B002B02D10123FB6001E00023F9
:102D7000FB6000F021FBFB6818461037BD4680BDA4
:102D800080B584B000AF786000F0E8FA7B689A6B99
:102D90007B68DB6B9A4202D10123FB6001E00023D8
:102DA000FB6000F009FBFB6818461037BD4680BD8C
:102DB00080B485B000AF786039600023FB6014E018
:102DC0000E4BFA6853F83230002B0BD10B4BFA68DC
:102DD000396843F83210094AFB68DB0013447A680B
:102DE0005A6005E0FB680133FB60FB68072BE7D9FD
:102DF0001437BD465DF8047B704700BF2C29FF1FC8
:102E000080B586B000AFF860B9607A60FB687B611E
:102E100000F0A4FA7B6993F84430DBB25BB2B3F103
:102E2000FF3F03D17B69002283F844207B6993F83C
:102E30004530DBB25BB2B3F1FF3F03D17B690022C7
:102E400083F8452000F0B8FA7B699B6B002B06D114
:102E50007B6924331846B9687A68FFF75DFA7869A8
:102E6000FFF72CFF1837BD4680BD00BF80B58CB082
:102E700004AFF860B9603B601346FB80FB889B00A1
:102E8000184601F041F878617B69002B0ED06C2068
:102E900001F03AF8F861FB69002B03D0FB697A690D
:102EA0001A6305E0786901F0F1F801E00023FB61A5
:102EB000FB69002B14D0FB88BA6A0092FA6A01926F
:102EC000FA69029200220392F868B9681A463B68D0
:102ED00000F00EF8F86900F09DF80123BB6102E0F4
:102EE0004FF0FF33BB61BB6918462037BD4680BD3C
:102EF00080B588B000AFF860B9607A603B603B6B2A
:102F00001A6B7B689B001046A5211A4601F0A4FEAF
:102F10003B6B1A6B7B6803F18043013B9B001344BE
:102F2000BB61BB6923F00703BB61BB6903F0070307
:102F3000002B09D04FF0500383F31188BFF36F8F3C
:102F4000BFF34F8F7B61FEE70023FB6111E0BA689E
:102F5000FB6913441A78396BFB690B4430331A71DF
:102F6000BA68FB6913441B78002B05D0FB69013359
:102F7000FB61FB69092BEAD93B6B002283F83D20FA
:102F8000BB6A042B01D90423BB623B6BBA6ADA62C9
:102F90003B6BBA6A9A643B6B0022DA643B6B043386
:102FA000184600F0F3FA3B6B1833184600F0EEFABF
:102FB0003B6B3A6B1A61BB6AC3F105023B6B9A61CA
:102FC0003B6B3A6B5A620023FB6108E03B6BFA698A
:102FD0001432002143F82210FB690133FB61FB69C5
:102FE000042BF3D93B6B00225A663B6B002283F81B
:102FF0006820B869F9683A6801F07AF902463B6BD3
:103000001A60FB6A002B02D0FB6A3A6B1A60203709
:10301000BD4680BD80B582B000AF786000F09EF9FB
:103020002C4B1B685A1C2B4B1A602B4B1B68002B1C
:1030300009D1294B7A681A60264B1B68012B10D1E5
:10304000FFF79AFA0DE0254B1B68002B09D1224BA4
:103050001B68DA6A7B68DB6A9A4202D81E4B7A6880
:103060001A601F4B1B685A1C1D4B1A601C4B1A68B8
:103070007B681A647B68DB6A01229A40194B1B68E3
:103080001A43184B1A607B68DA6A13469B00134494
:103090009B00154A1A447B6804331046194600F019
:1030A00081FA00F089F90D4B1B68002B0ED00A4BFA
:1030B0001B68DA6A7B68DB6A9A4207D20B4B4FF0D7
:1030C00080521A60BFF34F8FBFF36F8F0837BD4632
:1030D00080BD00BF442AFF1F6C29FF1F502AFF1F1D
:1030E000602AFF1F4C2AFF1F7029FF1F04ED00E01C
:1030F00080B584B000AF78600023FB607B68002B54
:1031000016D0124B1B68002B09D04FF0500383F3ED
:103110001188BFF36F8FBFF34F8FBB60FEE700F0E6
:1031200063F878680021FFF7FFFB00F06BF8F860A8
:10313000FB68002B07D1064B4FF080521A60BFF39B
:103140004F8FBFF36F8F1037BD4680BD6C2AFF1FB6
:1031500004ED00E080B586B002AF002300931C4B65
:1031600001931C481C495A220023FFF77FFEF86098
:10317000FB68012B02D1FFF73BFCF860FB68012BD9
:1031800015D14FF0500383F31188BFF36F8FBFF356
:103190004F8FBB60114B4FF0FF321A60104B012272
:1031A0001A60104B00221A6001F022F90DE0FB6852
:1031B000B3F1FF3F09D14FF0500383F31188BFF300
:1031C0006F8FBFF34F8F7B60FEE71037BD4680BD2A
:1031D000682AFF1F49250000985C0000642AFF1F31
:1031E000502AFF1F482AFF1F80B400AF044B1B6802
:1031F0005A1C034B1A60BD465DF8047B704700BF44
:103200006C2AFF1F80B584B000AF0023FB60002351
:10321000BB60414B1B68002B09D14FF0500383F377
:103220001188BFF36F8FBFF34F8F3B60FEE700F055
:1032300095F8394B1B685A1E374B1A60364B1B6882
:10324000002B61D1354B1B68002B2FD15CE0344B38
:10325000DB68DB68FB60FB681833184600F0FEF99A
:10326000FB680433184600F0F9F9FB68DB6A0122B9
:103270009A402C4B1B681A432A4B1A60FB68DA6A87
:1032800013469B0013449B00274A1A44FB680433EF
:103290001046194600F086F9FB68DA6A234B1B6872
:1032A000DB6A9A4202D3224B01221A601C4B1B6834
:1032B000002BCCD1FB68002B01D0FFF7E5F91D4BAB
:1032C0001B687B607B68002B10D0FEF7F1FE034685
:1032D000002B02D0164B01221A607B68013B7B60F9
:1032E0007B68002BF1D1134B00221A60104B1B6836
:1032F000002B09D00123BB600F4B4FF080521A60A6
:10330000BFF34F8FBFF36F8F00F056F8BB681846BE
:103310001037BD4680BD00BF6C2AFF1F442AFF1F27
:10332000042AFF1F4C2AFF1F7029FF1F6C29FF1F53
:10333000582AFF1F542AFF1F04ED00E080B483B019
:1033400000AF054B1B687B607B6818460C37BD4699
:103350005DF8047B704700BF482AFF1F80B483B02C
:1033600000AF4FF0500383F31188BFF36F8FBFF3AB
:103370004F8F7B600E4B1B685A1C0D4B1A600C4B19
:103380001B68012B0ED10B4B1B68DBB2002B09D045
:103390004FF0500383F31188BFF36F8FBFF34F8F4C
:1033A0003B60FEE70C37BD465DF8047B704700BF0D
:1033B0001000FF1F04ED00E080B483B000AF104B9D
:1033C0001B68002B09D14FF0500383F31188BFF322
:1033D0006F8FBFF34F8F7B60FEE7094B1B685A1E50
:1033E000074B1A60064B1B68002B04D100233B607F
:1033F0003B6883F311880C37BD465DF8047B70474A
:103400001000FF1F0000000000000000000000008E
:10341000EFF30980BFF36F8F154B1A681EF0100F82
:1034200008BF20ED108A20E9F04F10604DF8043DF0
:103430004FF0500080F31188BFF34F8FBFF36F8FB1
:10344000FEF7EEFE4FF0000080F3118808BC19680B
:103450000868B0E8F04F1EF0100F08BFB0EC108AFB
:1034600080F30988BFF36F8F704700BFAFF3008010
:103470006C29FF1FAFF30080AFF30080AFF3008033
:1034800080B582B000AF4FF0500383F31188BFF3D3
:103490006F8FBFF34F8F7B60FEF70AFE0346002B52
:1034A00003D0064B4FF080521A6000233B603B680C
:1034B00083F311880837BD4680BD00BF04ED00E0EE
:1034C000DFF80C00016841F47001016070470000F2
:1034D00088ED00E080B485B000AFEFF30583FB60BA
:1034E000FB680F2B13D9154AFB6813441B78FB723A
:1034F000134B1B78FA7A9A4209D24FF0500383F3A8
:103500001188BFF36F8FBFF34F8F7B60FEE70D4BCA
:103510001B6803F4E0620C4B1B689A4209D94FF018
:10352000500383F31188BFF36F8FBFF34F8F3B605E
:10353000FEE71437BD465DF8047B7047F0E300E01A
:103540002429FF1F0CED00E02829FF1F80B483B061
:1035500000AF78607B6803F108027B685A607B6883
:103560004FF0FF329A607B6803F108027B68DA60F3
:103570007B6803F108027B681A617B6800221A608D
:103580000C37BD465DF8047B704700BF80B483B044
:1035900000AF78607B6800221A610C37BD465DF889
:1035A000047B704780B485B000AF786039607B6879
:1035B0005B68FB603B68FA685A60FB689A683B6826
:1035C0009A60FB689B683A685A60FB683A689A6040
:1035D0003B687A681A617B681B685A1C7B681A60B2
:1035E0001437BD465DF8047B704700BF80B485B0DA
:1035F00000AF786039603B681B68BB60BB68B3F1A3
:10360000FF3F03D17B681B69FB600CE07B680833DC
:10361000FB6002E0FB685B68FB60FB685B681A6844
:10362000BB689A42F6D9FB685A683B685A603B68A7
:103630005B683A689A603B68FA689A60FB683A6827
:103640005A603B687A681A617B681B685A1C7B6801
:103650001A601437BD465DF8047B704780B485B0AE
:1036600000AF78607B681B69FB607B685B687A6889
:1036700092689A607B689B687A6852685A60FB68B7
:103680005A687B689A4203D17B689A68FB685A60E3
:103690007B6800221A61FB681B685A1EFB681A606F
:1036A000FB681B6818461437BD465DF8047B7047FD
:1036B00080B584B000AF786039607B68FB60FB68E0
:1036C000002B09D14FF0500383F31188BFF36F8FA4
:1036D000BFF34F8FBB60FEE7FFF740FEFB681A6841
:1036E000FB68DB6BF968096C01FB03F31A44FB68A8
:1036F0005A60FB6800229A63FB681A68FB689A604C
:10370000FB681A68FB68DB6B013BF968096C01FB1D
:1037100003F31A44FB68DA60FB68FF2283F8442055
:10372000FB68FF2283F845203B68002B14D1FB681F
:103730001B69002B1AD0FB6810331846FEF716FEE3
:103740000346002B12D00D4B4FF080521A60BFF38E
:103750004F8FBFF36F8F09E0FB6810331846FFF7F8
:10376000F5FEFB6824331846FFF7F0FEFFF724FE52
:10377000012318461037BD4680BD00BF04ED00E0B0
:1037800080B58AB002AFF860B9601346FB71FB6880
:10379000002B09D14FF0500383F31188BFF36F8FD3
:1037A000BFF34F8F3B61FEE7BB68002B02D10023C4
:1037B000FB6104E0FB68BA6802FB03F3FB61FB6991
:1037C0005033184600F0A0FBB861BB69002B0AD04B
:1037D000BB6950337B61FB79BA690092F868B968BC
:1037E0007A6900F005F8BB6918462037BD4680BDF0
:1037F00080B584B000AFF860B9607A60FB70BB68D8
:10380000002B03D1BB69BA691A6002E0BB697A6810
:103810001A60BB69FA68DA63BB69BA681A64B86986
:103820000121FFF745FFBB69FA7883F84C20103778
:10383000BD4680BD80B58EB000AFF860B9607A60DB
:103840003B6000237B63FB683B633B6B002B09D130
:103850004FF0500383F31188BFF36F8FBFF34F8F87
:10386000BB62FEE7BB68002B03D13B6B1B6C002BDC
:1038700001D1012300E00023002B09D14FF05003B8
:1038800083F31188BFF36F8FBFF34F8F7B62FEE727
:103890003B68022B03D13B6BDB6B012B01D1012376
:1038A00000E00023002B09D14FF0500383F311886F
:1038B000BFF36F8FBFF34F8F3B62FEE7FEF708FF4A
:1038C0000346002B02D17B68002B01D1012300E0CD
:1038D0000023002B09D14FF0500383F31188BFF36D
:1038E0006F8FBFF34F8FFB61FEE7FFF737FD3B6B39
:1038F0009A6B3B6BDB6B9A4202D33B68022B29D15C
:10390000386BB9683A68FFF747F9F8623B6B5B6A56
:10391000002B10D03B6B24331846FEF727FD0346DF
:10392000002B13D0414B4FF080521A60BFF34F8FE2
:10393000BFF36F8F0AE0FB6A002B07D03B4B4FF0C1
:1039400080521A60BFF34F8FBFF36F8FFFF734FDC4
:10395000012366E07B68002B03D1FFF72DFD0023D8
:103960005FE07B6B002B06D107F114031846FEF7CE
:103970005FFD01237B63FFF71FFDFFF735FCFFF7BA
:10398000EDFC3B6B93F84430DBB25BB2B3F1FF3F2D
:1039900003D13B6B002283F844203B6B93F8453006
:1039A000DBB25BB2B3F1FF3F03D13B6B002283F884
:1039B0004520FFF701FD07F114023B1D1046194693
:1039C000FEF758FD0346002B25D1386BFFF7D8F9D9
:1039D0000346002B19D03B6B03F110027B681046A5
:1039E0001946FEF777FC386BFFF768F9FFF70AFC1A
:1039F0000346002B7FF479AF0C4B4FF080521A60D6
:103A0000BFF34F8FBFF36F8F6FE7386BFFF756F938
:103A1000FFF7F8FB69E7386BFFF750F9FFF7F2FBA8
:103A2000002318463837BD4680BD00BF04ED00E0D6
:103A300080B58EB000AFF860B9607A603B60FB681B
:103A40003B633B6B002B09D14FF0500383F311888C
:103A5000BFF36F8FBFF34F8F7B62FEE7BB68002B16
:103A600003D13B6B1B6C002B01D1012300E0002331
:103A7000002B09D14FF0500383F31188BFF36F8FF0
:103A8000BFF34F8F3B62FEE73B68022B03D13B6BDA
:103A9000DB6B012B01D1012300E00023002B09D1B6
:103AA0004FF0500383F31188BFF36F8FBFF34F8F35
:103AB000FB61FEE7FFF70EFDEFF311824FF05003BD
:103AC00083F31188BFF36F8FBFF34F8FBA617B61B0
:103AD000BB69FB623B6B9A6B3B6BDB6B9A4202D31D
:103AE0003B68022B2CD13B6B93F8453087F82B3089
:103AF000386BB9683A68FFF74FF897F92B30B3F194
:103B0000FF3F12D13B6B5B6A002B16D03B6B24331B
:103B10001846FEF72BFC0346002B0ED07B68002BCB
:103B20000BD07B6801221A6007E097F82B30013335
:103B3000DBB2DAB23B6B83F8452001237B6301E003
:103B400000237B63FB6A3B613B6983F311887B6BDA
:103B500018463837BD4680BD80B58EB000AFF860DE
:103B6000B9607A603B6000237B63FB683B633B6B1F
:103B7000002B09D14FF0500383F31188BFF36F8FEF
:103B8000BFF34F8F7B62FEE7BB68002B03D13B6B1B
:103B90001B6C002B01D1012300E00023002B09D175
:103BA0004FF0500383F31188BFF36F8FBFF34F8F34
:103BB0003B62FEE7FEF78CFD0346002B02D17B68DB
:103BC000002B01D1012300E00023002B09D14FF08D
:103BD000500383F31188BFF36F8FBFF34F8FFB61E7
:103BE000FEE7FFF7BBFB3B6B9B6BFB62FB6A002BAB
:103BF00046D03B6BDB68BB62386BB968FFF738F8BF
:103C00003B68002B21D1FB6A5A1E3B6B9A633B6BCE
:103C10001B68002B04D1FEF773FE02463B6B5A6013
:103C20003B6B1B69002B27D03B6B10331846FEF70C
:103C30009DFB0346002B1FD0514B4FF080521A6062
:103C4000BFF34F8FBFF36F8F16E03B6BBA6ADA603A
:103C50003B6B5B6A002B0FD03B6B24331846FEF79F
:103C600085FB0346002B07D0454B4FF080521A606E
:103C7000BFF34F8FBFF36F8FFFF79EFB01237AE0F7
:103C80007B68002B03D1FFF797FB002373E07B6B6E
:103C9000002B06D107F114031846FEF7C9FB0123D8
:103CA0007B63FFF789FBFFF79FFAFFF757FB3B6B3F
:103CB00093F84430DBB25BB2B3F1FF3F03D13B6B0F
:103CC000002283F844203B6B93F84530DBB25BB2B3
:103CD000B3F1FF3F03D13B6B002283F84520FFF790
:103CE0006BFB07F114023B1D10461946FEF7C2FBA1
:103CF0000346002B32D1386BFFF72CF80346002B1C
:103D000026D03B6B1B68002B08D1FFF727FB3B6BD2
:103D10005B681846FEF7FAFCFFF74EFB3B6B03F1BE
:103D200024027B6810461946FEF7D4FA386BFEF77A
:103D3000C5FFFFF767FA0346002B7FF452AF104B25
:103D40004FF080521A60BFF34F8FBFF36F8F48E779
:103D5000386BFEF7B3FFFFF755FA42E7386BFEF713
:103D6000ADFFFFF74FFA386BFEF7F4FF0346002B69
:103D70003FF437AF002318463837BD4680BD00BF3B
:103D800004ED00E080B400AF0B4B0B4AD2F8882062
:103D900042F47002C3F88820084B4CF22052DA81BA
:103DA000064B4DF62812DA81044B4FF4E9721A8063
:103DB000BD465DF8047B704700ED00E00020054043
:103DC00080B582B002AFFCF729FDFCF7A7FCFCF739
:103DD00075FC052004210022FFF7D2FC0246164B99
:103DE0001A6040F2372000F03FFF134B1B68002B96
:103DF0001FD0012300930023019310481049F022A3
:103E00000023FFF733F802230093002301930B48AC
:103E10000C49F0220123FFF729F800230093002327
:103E2000019309480949F0220023FFF71FF8FFF723
:103E300091F900BFFDE700BFB400FF1FD13E0000B5
:103E4000B45C0000BC5C0000513E0000C45C00009B
:103E500080B584B000AF7860094B1A6807F10C0395
:103E6000104619464FF0FF320023FFF775FEFB683E
:103E70000448194600F09FFE024800F0CBFBEBE738
:103E8000B400FF1FB800FF1F80B582B000AF002351
:103E90007B600C4B1B685A1C0A4B1A60094B1B6851
:103EA000C72B0BDD084B1A683B1D104607491A4605
:103EB0000123FFF7BDFD034B00221A600837BD4602
:103EC00080BD00BF0801FF1FB400FF1F0C00FF1FD3
:103ED00080B584B000AF78607B68FB60084B1A68DF
:103EE000FB689900074B0B4410461946002200233B
:103EF000FFF7A0FC4FF47A70FFF7FAF8EEE700BF87
:103F0000B400FF1F0400FF1F80B58AB000AF7860C7
:103F10000023FB61FFF768F9574B1B68002B01D1A9
:103F200000F00CF9554B1A687B681340002B40F0E9
:103F30008C807B68002B1CD008237A6813447B603C
:103F40007B6803F00703002B13D07B6823F0070383
:103F500008337B607B6803F00703002B09D04FF028
:103F6000500383F31188BFF36F8FBFF34F8F7B61D3
:103F7000FEE77B68002B68D0414B1B687A689A4249
:103F800063D8404B3B623F4B1B687B6204E07B6A1B
:103F90003B627B6A1B687B627B6A5A687B689A42D9
:103FA00003D27B6A1B68002BF1D1334B1B687A6A02
:103FB0009A424AD03B6A1A6808231344FB617B6A21
:103FC0001A683B6A1A607B6A5A687B68D21A0823AF
:103FD0005B009A421ED97A6A7B681344BB61BB6955
:103FE00003F00703002B09D04FF0500383F311882F
:103FF000BFF36F8FBFF34F8F3B61FEE77B6A5A6859
:104000007B68D21ABB695A607B6A7A685A60B86961
:1040100000F0F6F81A4B1A687B6A5B68D21A184BE4
:104020001A60174B1A68184B1B689A4203D2144B3C
:104030001A68154B1A607B6A5A68104B1B681A4342
:104040007B6A5A607B6A00221A60FFF7DBF8FB6923
:1040500003F00703002B09D04FF0500383F31188BE
:10406000BFF36F8FBFF34F8FFB60FEE7FB6918460E
:104070002837BD4680BD00BF1429FF1F2029FF1F20
:104080001829FF1F0C29FF1F1C29FF1F80B586B0B0
:1040900000AF78607B687B617B68002B46D008238B
:1040A0005B427A6913447B617B693B613B695A6877
:1040B000204B1B681340002B09D14FF0500383F3B2
:1040C0001188BFF36F8FBFF34F8FFB60FEE73B6933
:1040D0001B68002B09D04FF0500383F31188BFF306
:1040E0006F8FBFF34F8FBB60FEE73B695A68114B80
:1040F0001B681340002B19D03B691B68002B15D19E
:104100003B695A680B4B1B68DB431A403B695A609A
:10411000FFF76AF83B695A68074B1B681A44064B5D
:104120001A60386900F06CF8FFF76CF81837BD4674
:1041300080BD00BF2029FF1F1829FF1F80B485B054
:1041400000AF4FF42053BB60274BFB60FB6803F0CC
:104150000703002B0CD0FB680733FB60FB6823F0E0
:104160000703FB60BA68FB68D21A1F4B1344BB609D
:10417000FB687B601D4B7A681A601C4B00225A60FA
:104180007A68BB681344FB600823FA68D31AFB60A3
:10419000FB6823F00703FB60FA68154B1A60144BA9
:1041A0001B6800225A60124B1B6800221A607B6851
:1041B0003B603B68FA68D21A3B685A600C4B1A683D
:1041C0003B681A603B685A680A4B1A603B685A6839
:1041D000094B1A60094B4FF000421A601437BD4674
:1041E0005DF8047B704700BF0C01FF1F0C29FF1F07
:1041F0001429FF1F1C29FF1F1829FF1F2029FF1F3B
:1042000080B485B000AF7860274BFB6002E0FB68AC
:104210001B68FB60FB681A687B689A42F7D3FB68EF
:10422000BB60FB685B68BA681A447B689A4208D135
:10423000FB685A687B685B681A44FB685A60FB68D5
:104240007B607B68BB607B685B68BA681A44FB680C
:104250001B689A4218D1FB681A68144B1B689A4273
:104260000DD07B685A68FB681B685B681A447B68E2
:104270005A60FB681B681A687B681A6008E00B4B81
:104280001A687B681A6003E0FB681A687B681A602A
:10429000FA687B689A4202D0FB687A681A60143721
:1042A000BD465DF8047B70470C29FF1F1429FF1FD2
:1042B00080B400AF094B0A4A11680A4AA2FB010206
:1042C0009209013A1A60084B00221A60074B072234
:1042D0001A60BD465DF8047B704700BF14E000E043
:1042E0000000FF1FD34D621018E000E010E000E076
:1042F00080B485B000AFF860B9607A60FB68043BB9
:10430000FB60FB684FF080721A60FB68043BFB6047
:10431000BB6823F00102FB681A60FB68043BFB608A
:104320000C4AFB681A60FB68143BFB607A68FB6808
:104330001A60FB68043BFB60FB686FF002021A60C6
:10434000FB68203BFB60FB6818461437BD465DF8F0
:10435000047B70475943000080B483B000AF0C4B1E
:104360001B68B3F1FF3F09D04FF0500383F311886E
:10437000BFF36F8FBFF34F8F7B60FEE74FF05003AB
:1043800083F31188BFF36F8FBFF34F8F3B60FEE75E
:104390001000FF1F000000000000000000000000EF
:1043A000074B19680868B0E8F04F80F30988BFF33D
:1043B0006F8F4FF0000080F311887047AFF30080DB
:1043C0006C29FF1FAFF30080AFF30080AFF30080D4
:1043D00006480068006880F3088862B661B6BFF3DB
:1043E0004F8FBFF36F8F00DF00BF000008ED00E0CC
:1043F00080B586B000AF3B4B1A683B4B9A4209D15F
:104400004FF0500383F31188BFF36F8FBFF34F8FCB
:104410003B61FEE7334B1A68344B9A4209D14FF0A7
:10442000500383F31188BFF36F8FBFF34F8FFB608F
:10443000FEE72F4B7B617B691B78DBB2BB607B693E
:10444000FF221A707B691B78DBB2FB71FB79DBB250
:1044500003F05003DAB2274B1A70274B07221A6079
:1044600009E0254B1B685A1E234B1A60FB79DBB20F
:104470005B00DBB2FB71FB79DBB2DBB25BB2002B22
:10448000EFDB1D4B1B681A021B4B1A601A4B1B6893
:1044900003F4E062184B1A60BB68DAB27B691A70E9
:1044A000164B164A126842F470021A60134B134AF4
:1044B000126842F070421A60FFF7FAFE104B0022B9
:1044C0001A60FEF7FDFF0F4B0E4A126842F04042A1
:1044D0001A60FFF77DFFFFF73FFF002318461837EC
:1044E000BD4680BD00ED00E071C20F4170C20F41BA
:1044F00000E400E02429FF1F2829FF1F20ED00E031
:104500001000FF1F34EF00E080B483B000AF78608C
:104510000B46FB70FB78002B08D07B68DB78DBB2A6
:1045200043F00803DAB27B68DA7007E07B68DB7877
:10453000DBB223F00803DAB27B68DA700C37BD46D1
:104540005DF8047B704700BF80B483B000AF786033
:104550000B46FB70FB78002B08D07B68DB78DBB266
:1045600043F00403DAB27B68DA7007E07B68DB783B
:10457000DBB223F00403DAB27B68DA700C37BD4695
:104580005DF8047B704700BF80B588B000AFF8606D
:10459000B9603B601346FB711B4B1B78002B01D0AD
:1045A00001232DE0184BFA791A70FB79012B26D1E3
:1045B000FA68154B5A6007F114031846FCF718FC0B
:1045C000BB687B61104B5A6807F11403104619460B
:1045D0003A68FCF7A1FA0C4B5B6818460121FFF71B
:1045E00093FF094B5B6818460121FFF7ADFF064BAF
:1045F000064A9A60044B064ADA60002300E004236E
:1046000018462037BD4680BDA000FF1F610800008E
:104610009D0800000FB480B582B000AF0B4B1B7833
:10462000002B02D14FF0FF3309E007F114033B6088
:10463000074839693A6800F0D3F878607B68184613
:104640000837BD46BDE8804004B07047A000FF1F9A
:104650005546000080B582B000AF78600A4B1B78E9
:10466000002B02D14FF0FF3309E0074B9B68064A4D
:1046700051683A1D08461146012298470123184601
:104680000837BD4680BD00BFA000FF1F80B586B0C3
:1046900000AFB9607A603B600346FB73BB687B6127
:1046A0000CE097F90F203B6A104698473B681B685F
:1046B0005A1C3B681A607B6901337B617A697B68AD
:1046C0009A42EEDB1837BD4680BD00BF80B48DB086
:1046D00000AFF860B9607A603B600023FB61FB6863
:1046E000BB61BB695A1CBA6100221A707B68002B3F
:1046F00035D0BB681B68FB62FB6A002B2BD1BB6902
:1047000030221A70FB690133FB61FB6962E0FA6ACF
:104710003B6892FBF3F37B617B693A6802FB03F32E
:10472000FA6AD31ABB62BB6A002B06DABB6A3B6229
:104730003B6AC3F13003BB6202E0BB6A3033BB6249
:104740007B69FB62BB695A1CBA61BA6AD2B21A7041
:10475000FB690133FB61FB6A002BD8D139E0BB68F0
:104760001B687B627B6A002B30D1BB6930221A70D8
:10477000FB690133FB61FB692CE03B687A6AB2FBA1
:10478000F3F33B613B683A6902FB03F37A6AD31A9D
:104790003B623B6A092B03D83B6A30333B620AE039
:1047A00097F83830002B01D0412300E061233A6AAA
:1047B00013440A3B3B623B697B62BB695A1CBA618A
:1047C0003A6AD2B21A70FB690133FB617B6A002B33
:1047D000D3D1FB6918463437BD465DF8047B70477A
:1047E00080B59CB002AFF860B9607A6000233B6688
:1047F0000023FB650023BB61002387F84A300023B8
:104800003B61BB687B6691E17B6C252B06D0FB6826
:10481000786C9847BB690133BB6184E1012387F859
:104820004B3000237B650023BB651CE07B6E0133AE
:104830007B667B6E1B785BB27B647B6C2F2B0DDD04
:104840007B6C392B0ADC7A6D13469B0013445B00AA
:104850001A467B6C1344303B7B6504E07B6E013B66
:104860007B660123BB65BB6D002BDFD006233B6558
:104870007B6E01337B667B6E1B785BB22E2B25D162
:1048800000233B650023BB651CE07B6E01337B6628
:104890007B6E1B785BB27B647B6C2F2B0DDD7B6C9E
:1048A000392B0ADC3A6D13469B0013445B001A4611
:1048B0007B6C1344303B3B6504E07B6E013B7B66C5
:1048C0000123BB65BB6D002BDFD002E07B6E013B9B
:1048D0007B667B6E01337B667B6E1B785BB27B6491
:1048E0007B6C642B1BD07B6C692B18D07B6C662B8C
:1048F00015D07B6C462B12D07B6C782B0FD07B6C49
:10490000582B0CD07B6C6F2B09D07B6C622B06D0A4
:104910007B6C702B03D07B6C752B40F0C3807B6C61
:10492000642B02D07B6C692B17D17B681A1D7A60CF
:104930001B687B6107F11C0207F1140397F84B1009
:1049400000911046194601220A23FFF7BFFEF865C1
:1049500007F11C02FB6D13443B667B6C582B02D0A5
:104960007B6C782B1DD17B6C782B02D1002387F8D0
:104970004B307B681A1D7A601B683B6107F11C0293
:1049800007F1100397F84B100091104619460022CA
:104990001023FFF79BFEF86507F11C02FB6D134423
:1049A0003B667B6C6F2B08D07B6C622B05D07B6CDD
:1049B000702B02D07B6C752B57D17B681A1D7A60E7
:1049C0001B683B617B6C623B132B3AD801A252F807
:1049D00023F000BF2D4A0000434A0000434A000074
:1049E000434A0000434A0000434A0000434A000093
:1049F000434A0000434A0000434A0000434A000083
:104A0000434A0000434A0000254A0000354A00009E
:104A1000434A0000434A0000434A0000434A000062
:104A20003D4A0000082387F84A300AE0022387F84D
:104A30004A3006E0102387F84A3002E00A2387F85C
:104A40004A3097F84A3007F11C0107F1100297F835
:104A50004B000090084611460022FFF737FEF8652C
:104A600007F11C02FB6D13443B667A6D07F11803D6
:104A7000F96800912020F96DFFF708FE3B6E002BCE
:104A80000BD150E03B6E5A1E3A661B785AB2FB6857
:104A900010469847BB690133BB613B6E1B78002B06
:104AA000F0D140E07B6C632B0DD17B681A1D7A60DE
:104AB0001B68DBB25BB23B64FB68386C9847BB6930
:104AC0000133BB612FE07B6C732B26D17B681A1DF1
:104AD0007A601B68FB64FB6C002B24D0F86C00F040
:104AE00072F80346FB657A6D07F11803F9680091C7
:104AF0002020F96DFFF7CAFD0AE0FB6C5A1CFA642E
:104B00001B785AB2FB6810469847BB690133BB61FA
:104B1000FB6C1B78002BF0D105E0FB68786C9847A4
:104B2000BB690133BB617B6E01337B667B6E1B7897
:104B30005BB27B647B6C002B7FF466AEBB6918466E
:104B40006837BD4680BD00BF80B584B000AF7860D7
:104B5000114B1B68002B02D10F4B104A1A600E4BF1
:104B60001B68FB600C4B1A687B681A440C4B9A421A
:104B700007D900F031F803460C221A604FF0FF33DA
:104B800006E0054B1A687B681A44034B1A60FB6801
:104B900018461037BD4680BDB000FF1F0000002042
:104BA0000004002010B50023934203D0CC5CC45411
:104BB0000133F9E710BD034611F8012B03F8012B6F
:104BC000002AF9D17047034613F8012B002AFBD1C4
:104BD000181A013870470000014B1868704700BF71
:104BE0007C00FF1F08B5074B044613B10021AFF34B
:104BF0000080054B1868836A03B19847204600F08F
:104C0000C9F800BF00000000885E000070B50E4BC0
:104C10000E4DED1AAD1000241E46AC4204D056F8DD
:104C2000242090470134F8E701F030F9084D094B92
:104C3000ED1AAD1000241E46AC4204D056F82420D4
:104C400090470134F8E770BDAC5E0000AC5E000038
:104C5000B05E0000AC5E000002440346934202D006
:104C600003F8011BFAE7704738B5134B1C68A36BB8
:104C70000546D3B9182000F021F843F20E33A063A3
:104C800003804AF6CD33438041F2342383804EF2D1
:104C90006D63C3804DF6EC630381052343810B23D1
:104CA000838101220023C0E90423A36B284600214D
:104CB000C3E9040138BD00BF7C00FF1F024B014661
:104CC000186800F003B800BF7C00FF1F70B5CD1C52
:104CD00025F0030508350C2D38BF0C25002D0646A0
:104CE0003FDB8D423DD3214B1C6818462146A1B1C4
:104CF0000B685B1B0ED40B2B03D90B60CC18CD506B
:104D00001FE08C4202D1626802601AE04B68636067
:104D10000C4616E00C464968E9E7154C23681BB9B8
:104D2000304600F027F820602946304600F022F88F
:104D3000431C014615D0C41C24F0030484420AD14C
:104D4000256004F10B00231D20F00700C31A0BD0CF
:104D50005A42E25070BD3046611A00F00BF8013043
:104D6000EED10C233360002070BD00BF6C2BFF1F01
:104D7000682BFF1F38B5064C002305460846236004
:104D8000FFF7E2FE431C02D1236803B12B6038BD5C
:104D9000002CFF1FFEE700BF68656C70000000007C
:104DA0000D0A2268656C70223A204C697374732076
:104DB000616C6C20746865207265676973746572D4
:104DC000656420636F6D6D616E64730D0A00000091
:104DD00065786974000000000D0A22657869742204
:104DE0003A20457869742070726F6772616D0D0AA0
:104DF000000000005461736B2031202A2A2A2A2ADD
:104E00002A2A2A2A2A2A2A2A2A2A2A2A2A2A2A2A02
:104E10002A2A2A2A2A2A2A2A2A2A2A2A2A2A2A2AF2
:104E20002A2A2A2A2A2A2A2A2A2A2A2A2A2A2A0A02
:104E30000D0000005461736B2032202D2D2D2D2D7F
:104E40002D2D2D2D2D2D2D2D2D2D2D2D2D2D2D2D92
:104E50002D2D2D2D2D2D2D2D2D2D2D2D2D2D2D2D82
:104E60002D2D2D2D2D2D2D2D2D2D2D2D2D2D2D0A95
:104E70000D0000004D657373616765207072696E87
:104E80007465642066726F6D207468652074696350
:104E90006B20686F6F6B20696E74657272757074C9
:104EA0002023232323232323232323232323230AEE
:104EB0000D0000002E2E2F647269766572732F66C6
:104EC000736C5F756172745F65646D612E63000061
:104ED00068616E646C65000068616E646C652D3E8F
:104EE000747845646D6148616E646C650000000013
:104EF0007866657200000000786665722D3E646118
:104F000074610000786665722D3E64617461536956
:104F10007A65000068616E646C652D3E7278456448
:104F20006D6148616E646C6500000000636F756EB2
:104F3000740000002E2E2F647269766572732F66DE
:104F4000736C5F767265662E63000000696E737421
:104F5000616E6365203C2046534C5F464541545585
:104F600052455F534F435F565245465F434F554E40
:104F700054000000636F6E66696720213D204E5526
:104F80004C4C0000636F6E66696700002E2E2F6424
:104F90007269766572732F66736C5F77646F672EC4
:104FA000630000000302000000000400001318006A
:104FB000010200000000240180F0FA0200008000DD
:104FC0002E2E2F647269766572732F66736C5F750F
:104FD0006172742E6300000064617461000000005F
:104FE00068616E646C65000072696E674275666622
:104FF0006572000078666572000000007866657270
:105000002D3E6461746153697A650000786665724B
:105010002D3E646174610000636F756E7400000062
:105020002E2E2F647269766572732F66736C5F75AE
:105030006172745F65646D612E63000070617261FE
:105040006D0000002E2E2F647269766572732F66D4
:10505000736C5F736468632E63000000636170614A
:1050600062696C6974790000737263436C6F636B7F
:105070005F487A20213D203055000000286275737A
:10508000436C6F636B5F487A20213D2030552920A7
:1050900026262028627573436C6F636B5F487A2005
:1050A0003C3D20737263436C6F636B5F487A2900E9
:1050B000636F6E6669670000636F6E6669672D3E99
:1050C00064617461426C6F636B53697A65203C3D27
:1050D0002028534448435F424C4B415454525F4252
:1050E0004C4B53495A455F4D41534B203E3E205354
:1050F0004448435F424C4B415454525F424C4B53E3
:10510000495A455F5348494654290000636F6E660B
:1051100069672D3E64617461426C6F636B436F75A8
:105120006E74203C3D2028534448435F424C4B4121
:105130005454525F424C4B434E545F4D41534B20AD
:105140003E3E20534448435F424C4B415454525FCF
:10515000424C4B434E545F5348494654290000008B
:10516000636F6E6669672D3E61636B54696D656F31
:105170007574436F756E74203C3D2028534448433A
:105180005F4D4D43424F4F545F44544F435641434C
:105190004B5F4D41534B203E3E20534448435F4DAF
:1051A0004D43424F4F545F44544F435641434B5F2E
:1051B0005348494654290000636F6E6669672D3E67
:1051C000626C6F636B436F756E74203C3D20285397
:1051D0004448435F4D4D43424F4F545F424F4F54FD
:1051E000424C4B434E545F4D41534B203E3E205367
:1051F0004448435F4D4D43424F4F545F424F4F54DD
:10520000424C4B434E545F534849465429000000DA
:105210007472616E736665720000000068616E648E
:105220006C65000063616C6C6261636B0000000080
:10523000735F7364686348616E646C655B305D00C6
:10524000FFFFFFFFFFFFFFFF2E2E2F6472697665C1
:1052500072732F66736C5F756172742E6300000049
:10526000696E7374616E6365203C20756172744170
:1052700072726179436F756E74000000636F6E66C1
:1052800069672D3E62617564526174655F42707337
:105290000000000046534C5F464541545552455F5F
:1052A000554152545F4649464F5F53495A456E280F
:1052B0006261736529203E3D20636F6E6669672DCC
:1052C0003E74784669666F57617465726D61726B82
:1052D0000000000046534C5F464541545552455F1F
:1052E000554152545F4649464F5F53495A456E28CF
:1052F0006261736529203E3D20636F6E6669672D8C
:105300003E72784669666F57617465726D61726B43
:105310000000000062617564526174655F427073E1
:10532000000000002E2E2F647269766572732F665E
:10533000736C5F7361692E630000000068616E64C6
:105340006C650000735F73616948616E646C655BD6
:10535000305D5B305D000000735F73616948616EB2
:10536000646C655B305D5B315D0000002E2E2F6448
:105370007269766572732F66736C5F666C657863AD
:10538000616E2E6300000000636F6E666967000047
:105390006D61736B496478203C3D202862617365C0
:1053A0002D3E4D435220262043414E5F4D43525FD8
:1053B0004D41584D425F4D41534B29006D62496448
:1053C00078203C3D2028626173652D3E4D4352207C
:1053D000262043414E5F4D43525F4D41584D425F41
:1053E0004D41534B2900000021464C455843414E46
:1053F0005F49734D624F63637570696564286261CC
:1054000073652C206D624964782900002828636F39
:105410006E66696729207C7C202866616C73652034
:105420003D3D20656E61626C6529290028636F6EC1
:1054300066696729207C7C202866616C7365203D45
:105440003D20656E61626C6529000000636F6E66C9
:1054500069672D3E696446696C7465724E756D208E
:105460003C3D203132380000282873657475705F28
:105470006D62202D203829202D202832202A2072EC
:1054800066666E2929203E2030000000747846723E
:10549000616D650074784672616D652D3E6C656E58
:1054A000677468203C3D2038000000007278467226
:1054B000616D650068616E646C6500007866657298
:1054C00000000000786665722D3E6D6249647820A8
:1054D0003C3D2028626173652D3E4D4352202620BD
:1054E00043414E5F4D43525F4D41584D425F4D41E8
:1054F000534B290021464C455843414E5F49734D5B
:10550000624F6363757069656428626173652C20FE
:10551000786665722D3E6D6249647829000000004E
:10552000735F666C657863616E48616E646C655B21
:10553000305D00002E2E2F647269766572732F66BF
:10554000736C5F66746D2E6300000000696E737487
:10555000616E6365203C2066746D417272617943AF
:105560006F756E74000000002E2E2F6472697665D0
:1055700072732F66736C5F65646D612E630000004B
:105580006368616E6E656C203C2046534C5F4645F7
:1055900041545552455F45444D415F4D4F44554C34
:1055A000455F4348414E4E454C0000007463642003
:1055B000213D204E554C4C00282875696E743332BD
:1055C0005F74297463642026203078314655292081
:1055D0003D3D203000000000636F6E66696720214A
:1055E0003D204E554C4C0000282875696E743332AE
:1055F0005F74296E65787454636420262030783196
:10560000465529203D3D2030000000006C696E6B3E
:1056100065644368616E6E656C203C2046534C5F48
:10562000464541545552455F45444D415F4D4F44B9
:10563000554C455F4348414E4E454C0068616E6491
:105640006C6520213D204E554C4C00002828756982
:105650006E7433325F7429746364506F6F6C2026EC
:1056600020307831465529203D3D20300000000093
:105670007372634164647220213D204E554C4C008E
:10568000646573744164647220213D204E554C4C16
:1056900000000000287372635769647468203D3D00
:1056A00020315529207C7C202873726357696474EB
:1056B00068203D3D20325529207C7C202873726370
:1056C0005769647468203D3D20345529207C7C2036
:1056D000287372635769647468203D3D20313655E4
:1056E00029207C7C20287372635769647468203D8C
:1056F0003D2033325529000028646573745769646E
:105700007468203D3D20315529207C7C202864652B
:1057100073745769647468203D3D20325529207C9C
:105720007C2028646573745769647468203D3D204B
:10573000345529207C7C202864657374576964740F
:1057400068203D3D2031365529207C7C2028646529
:1057500073745769647468203D3D203332552900C5
:105760007472616E73666572427974657320252068
:1057700062797465734561636852657175657374A8
:10578000203D3D20300000002E2E2F64726976658A
:1057900072732F66736C5F647370692E6300000010
:1057A00068616E646C650000675F6473706948616E
:1057B0006E646C655B305D00675F6473706948613F
:1057C0006E646C655B315D00675F6473706948612E
:1057D0006E646C655B325D002E2E2F647269766597
:1057E00072732F66736C5F65646D612E68000000D4
:1057F0006368616E6E656C203C2046534C5F464585
:1058000041545552455F45444D415F4D4F44554CC1
:10581000455F4348414E4E454C000000636F6E6645
:10582000696720213D204E554C4C00006368616E35
:105830006E656C203C2046534C5F464541545552A2
:10584000455F444D414D55585F4D4F44554C455F64
:105850004348414E4E454C002E2E2F6472697665AA
:1058600072732F66736C5F647370695F65646D61DA
:105870002E63000065646D615278526567546F5203
:10588000784461746148616E646C650065646D6143
:10589000547844617461546F496E7465726D6564C7
:1058A0006961727948616E646C65000065646D6160
:1058B000496E7465726D656469617279546F54786C
:1058C00052656748616E646C650000007472616EB9
:1058D00073666572000000004153534552542045E1
:1058E00052524F52202220257320223A2066696CA2
:1058F000652022257322204C696E652022256422B2
:105900002066756E6374696F6E206E616D6520220E
:10591000257322200A0000002E2E2F6472697665FE
:1059200072732F66736C5F6461632E630000000006
:10593000696E7374616E6365203C2046534C5F460C
:105940004541545552455F534F435F4441435F4384
:105950004F554E54000000004E554C4C20213D2028
:10596000636F6E6669670000696E646578203C202D
:105970004441435F4441544C5F434F554E540000F3
:105980002E2E2F647269766572732F66736C5F6456
:105990006D616D75782E6300696E7374616E6365F9
:1059A000203C2046534C5F464541545552455F5379
:1059B0004F435F444D414D55585F434F554E540042
:1059C0002E2E2F647269766572732F66736C5F6416
:1059D0007370692E63000000696E7374616E636595
:1059E000203C2046534C5F464541545552455F5339
:1059F0004F435F445350495F434F554E540000009E
:105A00006D6173746572436F6E66696700000000B4
:105A100066616C73650000002E2E2F6472697665D6
:105A200072732F66736C5F636C6F636B2E63000021
:105A3000636F6E66696700002E2E2F64726976654B
:105A400072732F66736C5F636D702E6300000000CD
:105A5000696E7374616E6365203C2046534C5F46EB
:105A60004541545552455F534F435F434D505F434B
:105A70004F554E54000000004E554C4C20213D2007
:105A8000636F6E66696700002E2E2F6472697665FB
:105A900072732F66736C5F636D742E680000000074
:105AA00068696768436F756E74203C3D20434D54B0
:105AB0005F434748315F50485F4D41534B00000002
:105AC00068696768436F756E740000006C6F774398
:105AD0006F756E74203C3D20434D545F43474C31FD
:105AE0005F504C5F4D41534B000000006C6F77439B
:105AF0006F756E740000000068696768436F756EAB
:105B000074203C3D20434D545F434748325F534827
:105B10005F4D41534B0000006C6F77436F756E749F
:105B2000203C3D20434D545F43474C325F534C5F14
:105B30004D41534B000000002E2E2F647269766594
:105B400072732F66736C5F636D742E6300000000C8
:105B5000696E7374616E6365203C2046534C5F46EA
:105B60004541545552455F534F435F434D545F4346
:105B70004F554E5400000000627573436C6F636BA9
:105B80005F487A203E3D20434D545F494E54455274
:105B90004D4544494154454652455155454E43595A
:105BA0005F384D485A0000006D6F64756C61746514
:105BB000436F6E66696700002E2E2F6472697665EA
:105BC00072732F66736C5F636C6F636B2E63000080
:105BD0006D6367706C6C30636C6B0000636F6E6636
:105BE00069670000546D7251000000002E2E2F6472
:105BF0007269766572732F66736C5F6164633136A8
:105C00002E630000696E7374616E6365203C2046EC
:105C1000534C5F464541545552455F534F435F4196
:105C2000444331365F434F554E5400004E554C4C63
:105C300020213D20636F6E66696700006368616EB6
:105C40006E656C47726F7570203C204144435F5312
:105C500043315F434F554E54000000002E2E2F64F9
:105C60007269766572732F66736C5F636C6F636BBA
:105C70002E630000675F7874616C30467265710056
:105C8000675F7874616C33324672657100000000A2
:105C9000546D72205376630049444C450000000067
:105CA0000D0A000025730D0A0000000025732573FE
:105CB000000000005072696E743100005072696E0D
:105CC00074320000476174656B6565706572000031
:105CD000434C4F434B5F4765744D6367457874434E
:105CE0006C6B4672657100008002DC020005B8052D
